:100000000C94250A0C94E41B0C94420A0C94420AAA
:100010000C94420A0C940C100C94E41E0C94420AAA
:100020000C94420A0C94420A0C94420A0C94C70F96
:100030000C94420A0C94420A0C94741C0C94420ACC
:100040000C94420A0C94420A0C94420A0C94420A00
:100050000C94420A0C94420A0C94420A0C94420AF0
:100060000C94420A0C94420A05A84CCDB2D44EB965
:100070003836A9020C50B9918688083CA6AAAA2A4B
:10008000BE000000803F072C7AA5BA6CC590DA3B11
:100090009365FC8BBC53F810FD3C5692834DBD8795
:1000A0009D3AB63DCBC9BF5BBE73DA0FC93F06644C
:1000B000EC1B3C04BC163E3BE5B93CC93C37C29E38
:1000C0005A3D660498083EEA69AAAA3E00000080EC
:1000D0003F00564152310C0A2028003030280038A9
:1000E000312800ED32280136332801CC3428027D36
:1000F000352802EE3628037F37280447382804A124
:10010000392805773A1006427F007F007F001300F0
:100110000A00818002C003E008F002E002C0818092
:1001200010008480F0F8FC04FF837F3F1F070F025C
:100130001F813F04FF84FEF8F0C00A0081FE05FF26
:10014000821F010F0082010705FF82FCF00600817B
:10015000E006FF1500813F05FF81C0050007FF078E
:100160000008FE070006FF050007FF0700083F071D
:100170000006FF050082017F05FF8180130082C019
:10018000FE05FF81010700821F7F04FF83FCC08002
:100190000D008380E0F005FF821F030A0083070F34
:1001A0001F027F03FF81FE02FC05F802FC02FE0332
:1001B000FF857F3F0F0301110003010203080702BF
:1001C0000381010D00130007E01800028002C084C3
:1001D000E0F0FCFE08FF120003FE03FF027F023F77
:1001E000851F0F07030107FF120003010C0007FF23
:1001F000210007FF210007FF210007FF210007FF63
:1002000012000FFC07FF0DFC0500230301000A008C
:10021000818002C003E008F003E002C081800F008B
:100220008480F0F8FC04FF837F3F1F070F021F82CA
:100230003F7F04FF84FEFCF8800900827E7F04FF7C
:10024000821F011000810106FF81FC1F008280C017
:1002500005FF823F071A008580C0F0F8FE03FF8487
:100260007F1F070315008480C0E0F002FC03FF023B
:100270003F830F070314008580C0F0F8FC03FF865E
:100280007F3F0F07030115008580E0F8FCFE02FFA9
:10029000857F3F1F03011B0081FC07FF19FC07003E
:1002A000210304000A00818002C003E008F003E09B
:1002B00002C081800F0084C0F8FCFE04FF817F0231
:1002C0001F080F831F3F7F04FF84FEFCF880090096
:1002D000023F047F821F011000810106FF81FC1E86
:1002E000008380C0E005FF821F03130006F803FCB3
:1002F00002FE02BF021F830F030116000707030F50
:10030000811F023F847FFFFEFC02F882E0800A002A
:100310000380140082010705FF81F80600810705AC
:10032000FF83FEF080110082E0F805FF810F0800D6
:1003300084030F1F3F05FF02FC08F802FC81FE0446
:10034000FF857F3F1F07010F000201030309070319
:100350000381010B001700818007E01C0084C0E0CE
:10036000FCFE08FF18008480F0FCFE02FF841F0FD3
:10037000030006FF140083C0F0F802FF847F3F0FE4
:1003800001050006FF100083C0E0FC02FF847F3FF0
:100390000703090006FF0C008380F0FC03FF831FA6
:1003A0000F010D0006FF0A0081FE05FF81FD11FC13
:1003B00006FF08FC0200180306FF08031A0006FFE8
:1003C00022000603090006001CE00C0006FF161FB1
:1003D0000B0081F805FF8107210006FF03008180E3
:1003E00003C007E003C081800F0081FC06FF83FE8D
:1003F000FF7F023F071F023F817F05FF84FCF8F06B
:10040000C00900070381010F008401031F7F05FF5E
:1004100081C0220006FF0600810C02FC03FE83F867
:10042000E0800F008380C0F805FF817F0800850110
:10043000071F3F7F04FF81FE02FC07F802FC81FEDC
:1004400003FF027F841F0F070110008101030309CE
:1004500007020303010B000D00818002C002E008C7
:10046000F002E081C0028010008480C0F8FC03FF2D
:10047000827F3F031F050F021F817F04FF84FEFC64
:10048000F8C00A0082C0FE04FF830F07010E00813E
:1004900001020F04078106080081FC04FF827F032C
:1004A0000300028003C007E002C081800F0005FF47
:1004B00086C0F0FCFEFF7F023F071F023F05FF02E0
:1004C000FC82F8C0090006FF833F03010F0083018F
:1004D0000F7F05FF81C00700817F05FF81C01400E9
:1004E00006FF080082077F04FF83F0E0C00E008251
:1004F000C0F805FF827F010A008501071F3F7F03C7
:10050000FF81FE02FC06F802FC04FF857F3F1F0FFF
:10051000011200020102030807020302010B00049A
:100520000020E00800191F81DF05FF817F1D008486
:1005300080F0FCFE02FF837F1F071B008380C0F05A
:1005400004FF837F0F031C0082E0F804FF837F0712
:10055000011C008380F0FC04FF823F031E0081F039
:1005600005FF820F011F0006FF810F200081FC059F
:10057000FF81032100060315000A00818002C003E9
:10058000E008F003E002C081800F008480F0FCFEF0
:1005900004FF817F021F080F021F817F04FF84FE7A
:1005A000FCF080090081FC06FF810110008101063A
:1005B000FF81FC080082031F05FF83E0C0800C0060
:1005C0008380C0E005FF821F030B008503070F9F98
:1005D000BF03FF81FE08FC02FE02FF029F830F079C
:1005E000030B0082C0F002FC81FE02FF833F1F0F5D
:1005F000020708030207810F021F02FF02FE83FCAD
:10060000F0C0070081FC05FF81071400810305FF8E
:1006100081FC0600810F05FF83FCE080110082E071
:10062000FC05FF810F07008501071F3F7F04FF8145
:10063000FE02FC08F802FC81FE04FF857F3F1F07D5
:10064000010F00810104030807040381010B000A64
:1006500000818002C003E008F002E081C002800F48
:10066000008580C0F8FCFE03FF027F021F060F0218
:100670001F823F7F03FF85FEFCF0E080090081E0E0
:1006800005FF827F0F100082030705FF82F08007BD
:100690000006FF8180140006FF070082017F05FF2E
:1006A00082FCE002800C008480C0E0FE06FF0900AE
:1006B0008401070F1F027F03FF02FE06FC02FE8378
:1006C000FF7F3F021F8203C105FF100002010703E5
:1006D0000301050081F005FF811F080004F002F806
:1006E00082F0800D008480E0F0FC03FF837F3F01F7
:1006F00009008501031F3F7F04FF81FE02FC05F80E
:1007000002FC81FE03FF857F3F1F0F011200810164
:1007100003030807020302010E00230009F8070083
:1007200009FF07000903270009F8070009FF070070
:1007300009030400564152310D03200C00342D0CE6
:1007400000362E0C003C300C0042310C0069320C9B
:100750000081330C00A1340C00C8350C00E2360CCB
:100760000101370C0129380C013F390C01642400C8
:100770000E0007300F001C0003070500840080C036
:10078000E0036083E0C080020003FF8100031C815E
:100790000002FF817F020083010307030683070332
:1007A000010200028002C003E00500020102000312
:1007B000FF050004060307040601008280C002E072
:1007C000036083E0C08002008A0181C1E070383C90
:1007D0001F0F070200030707060200818002C08185
:1007E000E0036002E083C08000038181000318867B
:1007F0003CFFE7E3000102038107030602078303CE
:100800000100050081C004E0020087E0F0F8DEC7C7
:10081000C3C103FF02C007000307020003E0076033
:100820000200039F8118030C861CFCF8F0000102F3
:100830000381070306810702030200840080C0E0F1
:10084000036002E084C080007E02FF8118030C84F4
:100850001CFDF9F10200830103070306810702036F
:10086000820100086002E08160040087E0F8FC1E5D
:100870000703010400030707008280C002E0036051
:1008800002E087C08000E3E7FF3C0318873CFFE7F6
:10089000E3000103020703060207830301008180CE
:1008A00002C081E0036083E0C0800200848F9FBFAC
:1008B000380330811802FF847F000103020703061A
:1008C00083070301020056415231110320090044FD
:1008D000251300462E06007D2F0800833A06009758
:1008E000410E00A1430F00BE460C00E5480C00F786
:1008F0004D0F0111500D013D540E0156550E01686A
:10090000680B0188690501A26E0B01B0720801C66F
:100910001B00830080C0024082C08005008380C02D
:10092000400500821F30022089301F80E0301C0605
:10093000E33002108230E0050084080C0701040057
:1009400082070C0208830C07000E00020C0200054F
:100950000082E06003008480F83F030300830C0FF3
:10096000010400080002060400020C020005000356
:10097000C0080089C0785F4340435F78C0030083AC
:10098000080F07070084030F08000300028081C0DE
:10099000044081C00280030083FCFF030700810143
:1009A00002030300840307060C0408850C040703F4
:1009B00000810002C00840020002FF08200200027D
:1009C0000F0900810002C0060002C0020002FF06FB
:1009D0001002FF0200020F0600020F010081000258
:1009E000C081800700818002C002008DFF00073EA9
:1009F000F0C00080F03C0700FF0200810F0400847B
:100A0000070C07010300820F00810002C00640822C
:100A1000C080030002FF062083301F0F0200020F78
:100A20000A008100054002C00540070002FF0C00DB
:100A3000020F0600810002C0080002C00200827F8F
:100A4000FF080082FF7F03008303070C0408830C68
:100A500007030200810002E0090002FF810C03028B
:100A60008306FCF80200020F0500020F010081005E
:100A70000260030002FE0300020F02000C0002FEEF
:100A8000810C03028306FCF80200020F0500020F2E
:100A90000100090002FE811803060200020F050092
:100AA000564152312801200500A02D0500A22E0537
:100AB00000A6300500AB310500B1320500B73305A3
:100AC00000BD340500C3350500C9360500D0370523
:100AD00000D7380500DD390500E43A0500EB410692
:100AE00000F0420600F7430600FF440501074505F4
:100AF000010E460501144705011A48050120490564
:100B000001274A05012D4B0601334C05013A4D05DD
:100B100001404E0501464F05014C5005015351055A
:100B2000015A52060161530501685406016F5505CB
:100B300001775606017E570601855806018C590635
:100B400001935A06019A05000320020082008003E7
:100B500000857C92827C00850084FE800085C4A292
:100B6000928C00854482926C0085302824FE20817E
:100B70004E028A827200817C028A8272008502E2C1
:100B80001A0600816C0292826C00818C0292827C37
:100B900000820088030086C03C223CC00081FE0227
:100BA00092816C0200817C02828144020081FE02FB
:100BB00082827C0081FE0392010081FE031201000B
:100BC000857C8292740081FE021082FE0085008284
:100BD000FE8200854080827E0084FE106C820200CE
:100BE00081FE0380010085FE0C300CFE85FE0C307A
:100BF000FE00817C0282827C0081FE0212820C0057
:100C0000817C0282827C0084FE1232CC0200814C04
:100C10000292826400020281FE02020100817E02D1
:100C200080827E0086067880780600861EE018E0C6
:100C30001E0086826C106C820086020CF00C020092
:100C400084C2B28A8602005641523128022009002D
:100C5000A02B0900A22D0900B02E0500B630090016
:100C6000BC310900D1320900E1330900F434090133
:100C7000083509011D3609012F37090142380901DC
:100C800052390901633A090176410A018043090199
:100C900098440901AD450901BF460901CD47090145
:100CA000DA480901EF490901FF4B09020F4C09021B
:100CB000234D0A022D4E0902454F09025B500902DD
:100CC000705209028053090292540902A555090283
:100CD000B15A0902C2610A02D5680902EA69090229
:100CE000FC6D09030C6E090322780903341200031A
:100CF0000002E004000303021F030301000B0004D1
:100D000003030006000230020083E0F038029887F7
:100D100038F0E0000F1F38023184381F0F000260E6
:100D2000813002F804000330023F0330010002303A
:100D300003188A98F07000383C36323331023001A3
:100D40000002308118039883F87000021881300384
:100D500031831F0E00020083C0E03802F8020083D6
:100D60000E0F0D020C023F820C0002F804D881988D
:100D70000200820919033084391F0F0083E0F03824
:100D8000039886383000071F390331831F0F000492
:100D9000188498D87838030084383E07010300820D
:100DA00070F8049885F870001E1F0431831F1E0020
:100DB00082E0F003188638F0E000183903338439F4
:100DC0001F070003000260070002300400020082D7
:100DD00080F0023882F080020084203C1F07020667
:100DE00084071F3C2083E0F03802188738706000C9
:100DF0000F1F38023084381C0C0002F803188438A6
:100E0000F0C000023F033084381F070002F8059845
:100E1000821800023F053182300002F805988218DE
:100E200000023F0501020083E0F0380218883870A4
:100E30006000071F38300233021F010002F80480EF
:100E400002F88100023F0401023F0100031802F88A
:100E5000031881000330023F0330010002F887804D
:100E6000C06030180800023F020385070E383020AA
:100E700002F80700023F0630010002F88578E00022
:100E8000E07802F88100023F850003060700023F78
:100E9000010002F88478E0800002F88100023F84BB
:100EA00000030F3C023F010083E0F038021887384E
:100EB000F0E0000F1F38023084381F0F0002F804E2
:100EC0001883F0E000023F04038101020002F804ED
:100ED0001802F08100023F020385070D393020021D
:100EE000F003988118023083000818033184331FFF
:100EF0001E00031802F803180400023F040002F861
:100F0000040002F883000F1F033084381F0F008194
:100F10000003188AD8F8781800303C3E3731033087
:100F200001008280C0046082E0C00200821E3E0395
:100F300033851B1F3F300002FC81C0036083E0C08B
:100F400000023F0400023F01008100026002EC0445
:100F5000000330023F0330010002E08760E0C06020
:100F6000E0C000023F8100023F8100023F01000219
:100F7000E081C0036083E0C000023F0400023F0143
:100F800000832060E0028087E060200020381D029E
:100F900007841D38200056415231090300180024EF
:100FA0000118005F02180087031800AF041800DB67
:100FB0000518010506180129071801530818017FB3
:100FC0008300206002C082E6FC03F802FF03F8827F
:100FD000FCE602C08260200300020C818C10FF81BD
:100FE0008C020C03000201020082190F0307023F6A
:100FF0000307820F19020002010300040084C0608D
:101000003010060884103060C00900833FC0800A99
:10101000008380C03F0A00830103020604830203A9
:10102000010700040082C020021006088410F0E0CE
:10103000C00900833FC080090003FF813F0A00818F
:101040000102020604830203010700040084C06059
:101050003010030803F802F082E0C00900833FC0AB
:1010600080050007FF813F0A008301030203040398
:1010700007020381010700040085C0603010D80515
:10108000F802F082E0C00900833FC08002000AFF3E
:10109000813F0A008401030206050702038101075C
:1010A00000040082C0E002F006F802F082E0C0090D
:1010B00000813F0EFF813F0A008101020306070203
:1010C0000381010700040082C0E002F005F885D822
:1010D000103060C00900813F0AFF02008380C03FDA
:1010E0000A008101020305078406020301070004C8
:1010F0000082C0E002F003F8030884103060C009E9
:1011000000813F07FF05008380C03F0A0081010284
:101110000303070304830203010700040082C0E005
:101120000210060884103060C00900813F02FF8170
:101130000C09008380E03F0A008301030205048458
:10114000060203010700564152310903001800242A
:10115000011800690218008D031800B6041800E297
:101160000518010F061801370718016408180190C7
:101170008300206002C083663C180208020F020848
:1011800083183C6602C08260200300020C848CFF3E
:10119000C0800A008480C0FF8C020C0300020102A0
:1011A0000083190F060204023C020483060F190291
:1011B0000002010300040082C0E002F006F802F021
:1011C00082E0C00900813F0EFF813F0A00810102D9
:1011D00003060702038101070003008380C0E002C9
:1011E000F006F884F03060C00800820C7F0BFF84AA
:1011F0000080C03F0A00810102030607020381014B
:101200000700040082C0E002F004F80208841030F5
:1012100060C00900813F08FF04008380C03F0A00CE
:101220008101020304070204830203010700040092
:1012300082C0E002F082F838040884103060C009EF
:1012400000813F05FF07008380C03F0A0081010243
:101250000302070404830203010700040084C06042
:101260003010060884103060C00900833FC0800A37
:10127000008380C03F0A0083010302060483020347
:10128000010700040084C060301004088238F802AE
:10129000F082E0C00900833FC080070005FF813F66
:1012A0000A0083010302040402070203810107000C
:1012B000040084C0603010020804F802F082E0C02C
:1012C0000900833FC080040008FF813F0A008301BA
:1012D000030202040407020381010700040082C024
:1012E0006002F006F802F082E0C00900833FC0808F
:1012F0000CFF813F0A0081010203060702038101FE
:1013000007000000000000400000000080660000B0
:101310000000000040000000106600000000000017
:101320002000000080660000000000004000000077
:101330001066000000000000200000000000000017
:101340000000000000000000140800000000010A76
:101350000A000A0A0001000000000000000000006E
:10136000000000000000000000000000000000007D
:10137000000000000000000000000000000000006D
:10138000140800010000010000000000000100003E
:10139000000000000000000000000000444444443D
:1013A0004444000000221741003236004000000093
:1013B000000000000000008080000000000000002D
:1013C000000000404000000000000000000000009D
:1013D000800000000000000000000000000000008D
:1013E000000000000000000A0000000000020100F0
:1013F00000000000000100000000000000000000EC
:1014000000000000000000000000000000000000DC
:1014100000000000000000000000000000000000CC
:1014200000000000000000000000000000000000BC
:101430000000000000000000000000222222222202
:1014400022000000221741B0323611241FBECFEF18
:10145000D8E0DEBFCDBF12E0A0E0B1E0EEE1FAE6F9
:1014600002C005900D92AC30B107D9F726E0ACE090
:10147000B2E001C01D92A638B207E1F70E94A70EA4
:101480000C940D350C940000A4E0B0E0EAE4FAE01E
:101490000C94E0346C017B01E0917C06F0917D06B8
:1014A000309729F068E776E009958C0102C00FEFCC
:1014B0001FEFF6014081518162817381809178062E
:1014C00090917906A0917A06B0917B06840F951FC2
:1014D000A61FB71F101611064CF4A801012E000C10
:1014E000660B770B840F951FA61FB71F89839A83FE
:1014F000AB83BC83B701CE0101960E947A0CF70141
:10150000138702872496E8E00C94FC34A0E0B0E056
:10151000ECE8FAE00C94DC34EC01EE81FF818F0101
:1015200004561109B9F0CF01855691096C0197FF56
:1015300003C023E0C20ED11CD594C794D594C794A0
:101540006CE97FEF0E94CC2FC60ED71E8FEFC81A12
:10155000D80A02C0C12CD12C2DE631E0D8010E945E
:1015600030300D2C000CEE08FF08C60ED71EE81E0A
:10157000F91E8B81082E000C990B8C01015011096A
:101580002D8122302CF4222379F1015E1F4F2CC0D3
:10159000CF018459984F0E94410D282F30E0255CDF
:1015A0003F4F200F311F8D81082E000C990B0297A1
:1015B0008530910514F027563F4F65E070E00E949A
:1015C000CC2FAC0197FF02C04F5F5F4F55954795F9
:1015D0009DE3949F8001959F100D1124020F131F0E
:1015E00080FF02C0015E1F4FC801110FAA0BBB0B89
:1015F0009C01AD012C0D3D1D4E1D5F1D60E871E588
:1016000081E090E00E948E2F4B015C01AA810A2E9E
:10161000000CBB0B20E13EE00E9430306B017C01EE
:10162000A9810A2E000CBB0B2CE330E00E94303065
:10163000C60ED71EE81EF91E6881862F660F990B0D
:10164000AA0BBB0B8C0D9D1DAE1DBF1DBC01CD019A
:10165000680D791D8A1D9B1DCDB7DEB7ECE00C949B
:10166000F8344F925F926F927F928F929F92AF92D7
:10167000BF92CF92DF92EF92FF92FC018081918125
:10168000A281B381BC01CD01605A7F498A41910991
:1016900023E93EEE46E250E00E94E02F6B017C0120
:1016A000F9E4CF1AF7E7DF0AF3E1EF0AF108C7011F
:1016B000B6010E943D3228E43AEB4BE959E40E941E
:1016C00093312BED3FE049E450E40E94C9324B01D5
:1016D0005C010E9436332B013C01C501B4010E941C
:1016E0007A339B01AC01C301B2010E94C9324B01A4
:1016F0005C01C701B60125ED31E340E050E00E94F6
:101700000230CA01B9010E943D326B017C0120E028
:1017100030E048E451E4C501B4010E94C9329B01A4
:10172000AC01C701B6010E9426310E940532862F06
:10173000FF90EF90DF90CF90BF90AF909F908F90F1
:101740007F906F905F904F90089560937E067093A6
:101750007F068093800690938106209382063093C3
:101760008306409384065093850608950FB6F89437
:10177000609374067093750680937606909377064F
:101780000FBE0895609378067093790680937A0669
:1017900090937B060895CF92DF92EF92FF92CF93C2
:1017A000DF93EC010E94AE0D6B017C01CE010E9423
:1017B0000D0C22E030E040E050E00E940230C70112
:1017C000B601621B730B840B950BDF91CF91FF90D9
:1017D000EF90DF90CF900895CF92DF92EF92FF923B
:1017E000CF93DF93EC010E94AE0D6B017C01CE0123
:1017F0000E940D0C22E030E040E050E00E940230F8
:10180000CA01B9016C0D7D1D8E1D9F1DDF91CF9109
:10181000FF90EF90DF90CF9008958F929F92AF92BC
:10182000BF92CF92DF92EF92FF927C0160917E0691
:1018300070917F0680918006909181060E943D32D2
:1018400024E33EE649E458E40E9493314B015C01F5
:10185000C7010E94550D6B017C01C501B4010E94B6
:1018600070344B015C01C701B60190580E9470347E
:101870009B01AC01C501B4010E94C9326B017C011E
:1018800020E030E040E85FE30E94253418168CF039
:1018900020E030E040E85FEBC701B6010E949333DF
:1018A00087FF0DC0C12CD12C90E8E92E9FEBF92EBB
:1018B00006C0C12CD12C80E8E82E8FE3F82EC7019A
:1018C000B6010E94823328E433E347E450E40E94E7
:1018D000933120E030EC48EA57E40E94C9320E947C
:1018E0000532FF90EF90DF90CF90BF90AF909F9028
:1018F0008F900895A8E0B0E0E0E8FCE00C94E034BC
:101900008B01FC01608171818281938120E831E546
:1019100041E050E00E94E02F69017A012CE330E0C1
:1019200040E050E00E94023029833A834B835C837D
:1019300089819A81AB81BC81F80160836CE370E09E
:101940000E94CC2FDC01CB01F801A1838283C60168
:10195000069667E070E00E94B82F84832DEA3EE887
:1019600040E050E0C701B6010E94023029833A836B
:101970006D837E838F83988789819A8124E6289F4F
:101980006001299FD00C11246D817E818F81988503
:1019900025EB35E040E050E00E94023029833A8395
:1019A0006D837E83E980FA80EE0CFF1CEE0CFF1C39
:1019B000EC0CFD1C8D819E81F5E6EF16F10410F014
:1019C000019604C024E6E216F10419F021E030E0AB
:1019D00002C020E030E0A90144595E4F4817590782
:1019E00068F46DE671E0821B930B0E94CC2FDC0142
:1019F000CB01E80EF91ECD0120E030E044E6E40E14
:101A0000F11CF801F782E68291878087255C3F4FC1
:101A10008217930748F46FE170E00E94CC2FDC013D
:101A2000CB01F801858322C069E970E0821B930B2A
:101A30000E94CC2FDC01CB01F82EFF0CFF0CF80E1E
:101A40006DE370E0CD010E94CC2FDC01CB01E82ECC
:101A5000EE0C6FE170E0CD010E94CC2FDC01CB01D8
:101A600022E0280FF20EFE0CF801F582A383F801A4
:101A70001386128683818F5F83832896E8E00C9417
:101A8000FC349C0123703327232B59F464E670E067
:101A90000E94CC2F892B39F46370772781E0672B64
:101AA00019F080E0089581E008958F929F92AF929F
:101AB000BF92CF92DF92EF92FF92FC0180809180E3
:101AC000A280B380C501B40121E23BE841EE51E0C0
:101AD0000E94E02F6055764282429E4F0E943B3228
:101AE00021EB37E449E95AE40E9493310E947A33AA
:101AF0006B017C01C501B4012DE335E841EE51E0F5
:101B00000E94E02F6854774A824F9F4F0E943B32D9
:101B100021ED35E449E95AE40E9493314B015C011F
:101B20002FED33EE48E05DE3C701B6010E94C932F4
:101B3000A50194010E9427310E9436332CE336E739
:101B400041ED5EE30E94C9329058FF90EF90DF9024
:101B5000CF90BF90AF909F908F9008958F929F925B
:101B6000AF92BF92CF92DF92EF92FF92CF93DF932B
:101B7000FC0180809180A280B3800E94FD0DEC0169
:101B8000609182067091830680918406909185060B
:101B90002FE030E040E050E00E9402307501640127
:101BA000C21AD30AE40AF50AF0ECCF0EF8EADF1EF7
:101BB000E11CF11CC501B40120E831E541E050E031
:101BC0000E94E02FA7019601261B370B480B590BEB
:101BD0006E01DD0FEE08FF08CA01B9016C197D091D
:101BE0008E099F09DF91CF91FF90EF90DF90CF900A
:101BF000BF90AF909F908F9008958F929F92AF92D9
:101C0000BF92CF92DF92EF92FF92FC018080918091
:101C1000A280B380C501B40121E23BE841EE51E06E
:101C20000E94E02F6055764282429E4F0E943D32D4
:101C300021EB37E449E95AE40E9493310E947A3358
:101C40006B017C01C501B4012DE335E841EE51E0A3
:101C50000E94E02FDC01CB01805C9D43A34FBF4F6E
:101C6000BC01CD01660F771F881F991F0E943D326E
:101C700021ED35E449E95AE40E9493314B015C01BE
:101C80002FED33EE48E05DE3C701B6010E94C93293
:101C9000A50194010E9427310E947A332DEC3CE08B
:101CA00044E154E40E94C9324B015C012DEC3CEC50
:101CB00045EE53E4C701B6010E94C9329B01AC0155
:101CC000C501B4010E9427310E9405328827992757
:101CD000861B970BFF90EF90DF90CF90BF90AF9057
:101CE0009F908F9008958091840090918500892F16
:101CF0000895AF92BF92CF92DF92EF92FF920F932F
:101D00001F935D9A8FE99FE00197F1F700C00000F3
:101D10005D98A12CB12CC12CD12CE12CF12C01E02F
:101D200010E021E030E040E050E060E070E08AE068
:101D300090E00E94151E85E392E01F910F91FF90A5
:101D4000EF90DF90CF90BF90AF900C94DD16CF93C3
:101D5000DF93CDB7DEB72D970FB6F894DEBF0FBE79
:101D6000CDBF1092200280E096E5A2E6B9E2809312
:101D7000350290933602A0933702B09338026091F7
:101D800035027091360280913702909138020E949C
:101D9000B60B109221028DE192E00E940516A091EF
:101DA0001D020A2E000CBB0B20E13EE00E943030E9
:101DB0000E94C20B88B18F6088B98BB186608BB9E5
:101DC00083E79EE00E94EC0F0E9481280E9441134D
:101DD000559A2FEF83EC99E0215080409040E1F735
:101DE00000C00000C0903502D0903602E09037026B
:101DF000F09038020E94FF0F91E0811190E0B7014E
:101E0000A601892F0E94AA1882E292E00E94FC2B70
:101E100084E294EF909389008093880082E080931D
:101E20006F008CE08093810078940E942413F894D2
:101E3000C0903502D0903602E0903702F090380220
:101E40007894332433940E94790EF894809035026C
:101E500090903602A0903702B09038027894C8145F
:101E6000D904EA04FB0438F4240135014C185D0858
:101E70006E087F0806C026013701481859086A080D
:101E80007B080E94F318082F0E940610182FECE31D
:101E90004E1651046104710458F48C149D04AE0470
:101EA000BF0430F480912102081302C0112359F2BB
:101EB0000E94091080912002882359F02DE132E020
:101EC000B501A401812F0E94101B8093200210E015
:101ED0000CC0123051F4309220020E9441134DE1A7
:101EE00052E0C501B4010E94161B809120028111AD
:101EF00031C00E9402197C0189869A86AB86BC8615
:101F00000E94F3188D87113061F4F701868D978D4B
:101F1000019719F081E090E002C082E090E00E9419
:101F200005190E9441139E012F5F3F4FAE014D5F87
:101F30005F4FBE01695F7F4F82E292E00E94B22C48
:101F400049E75EE06DE172E0CE0101960E94471321
:101F50000E94361375016401FCE3CF0ED11CE11C15
:101F6000F11CC701B6012CE330E040E050E00E94D4
:101F7000E02F2FEF260F2A3320F4C61AD70AE80ADB
:101F8000F90A002309F45FCF009321025CCF1F926E
:101F90000F920FB60F9211248F939F93AF93BF931D
:101FA0008091350290913602A0913702B0913802AB
:101FB0000196A11DB11D8093350290933602A09326
:101FC0003702B0933802BF91AF919F918F910F90DC
:101FD0000FBE0F901F90189590933A02809339028C
:101FE00010923C0210923B0210923D025B9A5C9A66
:101FF00084E08093680088E180936D00089589B142
:1020000083FB882780F991E08927089580913D021C
:10201000089510923D0208951F920F920FB60F92ED
:1020200011242F933F934F935F936F937F938F93DD
:102030009F93AF93BF93EF93FF93E0913902F09199
:102040003A02099590E020913B0230913C028217C0
:10205000930748F020913B0230913C02275E3F4FAE
:1020600028173907F8F490933C0280933B024B9970
:1020700005C080913D02816080933D024C9905C06E
:1020800080913D02826080933D0280913D028823D1
:1020900049F080913B0290913C02992790933C0239
:1020A00080933B02FF91EF91BF91AF919F918F91F0
:1020B0007F916F915F914F913F912F910F900FBE44
:1020C0000F901F9018950F93CF93DF93C62FD42FA7
:1020D000042F9C01462FBC0180E492E00E94392726
:1020E00080E492E00E94DE27DC1738F06FEF80E496
:1020F00092E00E94F027CF5FF7CF80E492E0DF917B
:10210000CF910F910C949C28BC016F5F7F4FFC0115
:1021100040818CE092E00C94C628CF93DF931F920D
:10212000CDB7DEB7898341E0BE016F5F7F4F8CE0A2
:1021300092E00E94C6280F90DF91CF9108952F92D0
:102140003F924F925F926F927F928F929F92AF9247
:10215000BF92CF92DF92EF92FF920F931F93CF9394
:10216000DF93CDB7DEB727970FB6F894DEBF0FBE6B
:10217000CDBF4B015C015B834A832E831D830C839F
:10218000170197FF0BC0CC24DD247601C61AD70AAD
:10219000E80AF90A822F81508E8302C06B017C010C
:1021A000C701B60124E630E040E050E00E94023072
:1021B0002983032F142F5F838AE0482E512C612C32
:1021C000712C9E8191509E832A3031054105510525
:1021D00038F0CA01B901A30192010E94E02FF1CFAA
:1021E00030920D0220920C029E81913039F480E2EF
:1021F0000E948D108E8181508E83F6CF9330BCF774
:102200008C819D8190930D0280930C02B7FE03C0D8
:102210008DE20E948D1048E656E06981702F812F73
:102220009F810E94302A0E9484109E819230A9F4DE
:102230008EE20E948D10C701B60124E630E040E036
:1022400050E00E940230862F6AE00E949E2F68E6CE
:1022500076E00E94F4290E94841030920D022092B0
:102260000C026A817B818CE092E027960FB6F8948D
:10227000DEBF0FBECDBFDF91CF911F910F91FF90B9
:10228000EF90DF90CF90BF90AF909F908F907F9016
:102290006F905F904F903F902F900C94EA29CF93CE
:1022A000C82F8A3018F480E30E948D1068E676E02B
:1022B0008C2F0E94F429CF910C948410CF93C82FB7
:1022C000662319F0CF910C944F118D3010F0CC5043
:1022D00002C0882331F0CA3028F480E20E948D10B9
:1022E00001C0CCE068E676E08C2F0E94F429CF9103
:1022F0000C948410FF920F931F93CF93DF93F62ECD
:10230000122F21ED30E03093110220931002C4E32C
:10231000D7E0D0930D02C0930C02642F0E945E118F
:1023200086EC98E090930D0280930C028AE30E9461
:102330008D10D0930D02C0930C028F2D0E944F116F
:102340008EE091E09093110280931002011103C07E
:1023500086E491E102C086E99FE090930D028093AC
:102360000C02812FDF91CF911F910F91FF900C9460
:102370008D10CF92DF92EF92FF920F931F93CF9326
:10238000DF936B017C010E940219EC018E8D9F8D01
:10239000009749F488859985AA85BB85892B8A2B66
:1023A0008B2B21F048C1019709F445C180EA9AE0DE
:1023B00090930D0280930C028AE080931202109297
:1023C00011021092100288819981AA81BB81C816DE
:1023D000D906EA06FB0698F08601081B190B6CE08B
:1023E00071E08CE092E00E94EA29B80180E090E080
:1023F00048E656E00E94302A0E94841018C069E125
:1024000071E08CE092E00E94EA2988819981AA819A
:10241000BB81BC01CD016C197D098E099F0948E67D
:1024200056E00E94302A0E94841000E010E0809163
:1024300012028F5F8093120210921102109210020A
:102440008C819D81AE81BF81892B8A2B8B2BC1F022
:1024500064E271E08CE092E00E94EA298C819D8127
:10246000AE81BF81A7019601281B390B4A0B5B0B7C
:10247000CA01B90148E656E00E94302A0E94841041
:1024800088859985AA85BB85892B8A2B8B2BC9F0DA
:102490006EE271E08CE092E00E94EA2988859985DD
:1024A000AA85BB85A7019601281B390B4A0B5B0B3C
:1024B000CA01B90148E656E00E94302A0E94841001
:1024C00006C06BE371E08CE092E00E94EA29809103
:1024D00012028F5F8093120210921102109210026A
:1024E00067E471E08CE092E00E94EA2968E676E019
:1024F0008A8D9B8D0E940F2A0E94841062E571E0F4
:102500008CE092E00E94EA2968E676E08C8D9D8D51
:102510000E940F2A0E948410809112028F5F809384
:10252000120210921102109210026DE571E08CE01F
:1025300092E00E94EA296801E12CF12C8C859D85AE
:10254000AE85BF85BC01CD016C0D7D1D8E1D9F1D0F
:1025500048E656E00E94302A0E94841068E671E046
:102560008CE092E00E94EA29888D998D68E676E0F9
:10257000800F911F0E940F2A0E9484108A8D9B8DCC
:10258000892B31F1809112028F5F80931202109299
:1025900011021092100260E771E08CE092E00E945C
:1025A000EA298C859D85AE85BF85BC01CD016C0D6A
:1025B0007D1D8E1D9F1D2A8D3B8D40E050E00E94A9
:1025C000E02F68E676E0C9010E940F2A0E9484107D
:1025D000809112028F5F809312021092110210926A
:1025E00010026BE771E08CE092E00E94EA296889B2
:1025F00079898A899B8948E656E00E94302A0E94A0
:10260000841066E871E08CE092E00E94EA29F89478
:102610006C897D898E899F89789448E656E00E946E
:10262000302ADF91CF911F910F91FF90EF90DF90B3
:10263000CF900C948410DF91CF911F910F91FF9058
:10264000EF90DF90CF90089510923F0280E492E0E7
:102650000E94C82540E452E062ED70E08CE092E018
:102660000E949F2880E492E00C943F1B23982598B9
:102670002298219820982B982D982A982998289864
:102680000895239A259A229A219A209A08952F92A2
:102690003F924F925F926F927F928F929F92AF92F2
:1026A000BF92CF92DF92EF92FF920F931F93CF933F
:1026B000DF93CDB7DEB7E1970FB6F894DEBF0FBE5C
:1026C000CDBF1C017B015BA74AA7DB0111969C9142
:1026D00080914B0292FF02C0846001C08B7F809387
:1026E0004B0280E492E00E94562760E080E492E092
:1026F0000E94FB27F10182809380A480B580D4845E
:1027000080859185A285B38589A39AA3ABA3BCA339
:10271000BE01635F7F4FCE0181960E94440A0E94F2
:102720005D1B81110AC006E910E0C501B4010E94D9
:102730006C1B01501109C9F70AC08E856AE00E941E
:10274000AA2F911104C0C501B4010E946C1BD701CE
:1027500011961C911170DD2009F46AC080913F022E
:10276000882339F08F85811163C08E85813009F00F
:102770005FC089A19AA1ABA1BCA18D8F9E8FAF8FA5
:10278000B8A3CE014D960E94CB0B698F7A8F8B8FA9
:102790009C8FBE016F5F7F4FCE0149960E94440A15
:1027A0008B8180933F028A8180934D02CE014D96AA
:1027B0000E94EC0B698F7A8F8B8F9C8FBE016F5FAD
:1027C0007F4FCE0149960E94440A8B8180934E022E
:1027D0008A8180934C0289A19AA1ABA1BCA1898373
:1027E0009A83AB83BC83CE0101960E94310B8A3A57
:1027F00014F485E01BC0823C14F486E017C08B3DC6
:1028000014F487E013C0843F14F488E00FC08E30C6
:1028100014F481E00BC0873214F482E007C08134E5
:1028200014F483E003C0883524F784E080933E02EB
:1028300082ED90E090930D0280930C0210921202B0
:10284000111103C080E090E002C08CE090E0909312
:10285000110280931002612F8F850E945E118AE31E
:102860000E948D108E850E944F1111111AC086ECA6
:1028700098E090930D0280930C0287E080931202FF
:102880008DEA90E090931102809310028F858C3036
:1028900014F481E401C080E50E948D108DE40E9453
:1028A0008D1049E060E08DEC90E00E946310109282
:1028B000120281ED90E09093110280931002F701D3
:1028C00021818B899C8964E670E00E94CC2F082FBF
:1028D0001A891F5F84E397E090930D0280930C02A6
:1028E000F22FF270DF2E21FF02C0802F01C0812F56
:1028F0000E944F1186EC98E090930D0280930C0299
:102900008FE20E948D1084E397E090930D028093F4
:102910000C02D11002C0888901C0812F0E944F1182
:1029200086EC98E090930D0280930C028FE20E9457
:102930008D1084E397E090930D0280930C02DD20CC
:1029400011F0888901C0802F0E944F11D1011C967F
:102950008C91882301F1F7011181F12FF170DF2EA5
:10296000147083E080931202012F20E030E04F2F9B
:1029700060914D0280913F020E947A1186E080931F
:10298000120220913E0230E04D2D60914C02809168
:102990004E020E947A11D10116960D911C91179743
:1029A00012968D909D90AD90BC901597ED91FC91F5
:1029B000FDA7ECA7D70111968C91827089A70E9480
:1029C000881B6DA37EA38FA398A70E947B1B2B015E
:1029D0003C012DA13EA14FA158A582169306A40645
:1029E000B50640F0681579058A059B0538F4240181
:1029F000350104C08DA29EA2AFA2B8A6D301C20128
:102A00002DA13EA14FA158A5821B930BA40BB50B82
:102A10008EA79FA7A8ABB9AB39A531113CC029E05F
:102A200030E0D8010E94303025E030E040E050E056
:102A30000E94E02F89010058134FA8EEB3E02DA1AA
:102A40003EA14FA158A50E94373038E4C32E34E888
:102A5000D32EE12CF12CA70196010E94E02F2DA38B
:102A60003EA34FA358A7A8EEB3E0A30192010E9492
:102A70003730A70196010E94E02F29013A01A8EE04
:102A8000B3E0A50194010E943730A70196010E948E
:102A9000E02F49015A018AE08093120289EE90E00A
:102AA000909311028093100249A5442319F049EA3A
:102AB00051E002C04EE851E0B801110F880B990BAC
:102AC00026ECE22E28E0F22E04E317E024E00E9438
:102AD0009F108DE08093120289EE90E09093110296
:102AE00080931002ACA5BDA5BD0180E090E022E07E
:102AF00049E951E00E949F104FE06AE086EE90E0C5
:102B00000E9463108CE0809312028AE990E0909317
:102B1000110280931002B9A5BB2319F044E951E0DA
:102B200002C040E951E087E4E82E8CE0F82E8701EE
:102B300024E0C501B4010E949F108AE08093120234
:102B40009AE9C92ED12CD0921102C092100224E031
:102B50004DE951E0C301B2010E949F108EE08093C5
:102B60001202D0921102C092100224E042EA51E017
:102B70006DA17EA18FA198A50E949F102EA53FA5B3
:102B800048A959A9283231054105510510F00E9484
:102B9000951BD10118966D917D918D919C911B97FC
:102BA0000E94B91180E492E00E943428EAA5FBA5B6
:102BB0000995EAA5FBA5099580E492E00E9481258C
:102BC00063E070E080E492E00E943728E1960FB65F
:102BD000F894DEBF0FBECDBFDF91CF911F910F9153
:102BE000FF90EF90DF90CF90BF90AF909F908F902D
:102BF0007F906F905F904F903F902F90089580E46A
:102C000092E0089510923F020895CF93DF93EC0174
:102C100043E050E060E070E00E94A4348881998134
:102C200040E1949F9001112428273A81321305C076
:102C3000845F8B3110F4983010F018821982DF9184
:102C4000CF910895FC012181F0E12F9F9001112483
:102C5000FC0130812327228343E050E060E070E0F4
:102C60000C94B434CF93DF931F92CDB7DEB71982A3
:102C7000CE0101960E94CE1B8823C9F080916D047D
:102C800090916E04A0916F04B09170040196A11D03
:102C9000B11D80936D0490936E04A0936F04B09364
:102CA000700469818FE492E00E942721E1CF0F90A8
:102CB000DF91CF910895CF92DF92EF92FF926B0157
:102CC0007C018FE492E00E94152182E396E10E944C
:102CD000AB1B5E9AE9E5F4E0C082D182E282F38226
:102CE000828D938D0196938F828FC482D582E682E6
:102CF000F782FF90EF90DF90CF9008958BB186FB25
:102D0000882780F90895CF92DF92EF92FF926B01AE
:102D10007C010E947E16882309F44AC00E94C01BD1
:102D20008091590490915A049601281B390BC901CE
:102D300030937204209371044091650450916604AD
:102D40006091670470916804420F531F611D711DEB
:102D5000409365045093660460936704709368041D
:102D600020917304309174042230310540F430E82E
:102D7000C30E31E5D31E31E0E31EF11C10C060EB41
:102D800074E00E94B82FDB01119620E831E541E0A4
:102D900050E00E943730C60ED71EE81EF91EC092C2
:102DA0005904D0925A04E0925B04F0925C045E985D
:102DB000FF90EF90DF90CF9008952F923F924F9227
:102DC0005F926F927F928F929F92AF92BF92CF92BB
:102DD000DF92EF92FF920F931F93CF93DF93CDB7C4
:102DE000DEB768970FB6F894DEBF0FBECDBF1C01EB
:102DF000F894DC018D909D90AD90BC9078940E94E9
:102E00007E16882309F478C180915304882309F43D
:102E10001AC18091690490916A04A0916B04B091E9
:102E20006C040196A11DB11D8093690490936A04FE
:102E3000A0936B04B0936C0467EA71E08FE492E0B6
:102E40000E946821882309F4F9C01C861B86109211
:102E50005504109254049E012F5F3F4FAE014E5F08
:102E60005F4FBE016D5F7F4F8FE492E00E94CC23E5
:102E70009E012C5E3F4FAE014A5F5F4FBE016C5F0B
:102E80007F4F8FE492E00E942F248E8181508E83A9
:102E90008C8990E08C599F4F98878F838091540440
:102EA00090915504892B09F0C9C0F894F101408034
:102EB0005180628073807894CE0101960E94860AC8
:102EC0006B017C01461657066806790648F49B019B
:102ED000AC01241935094609570929013A0104C0F2
:102EE000461A570A680A790A3DE3431651046104F9
:102EF000710440F0C0925904D0925A04E0925B04ED
:102F0000F0925C04F894D101CD92DD92ED92FC92A6
:102F1000139778948E010D5E1F4F9E01215F3F4FE6
:102F2000AE01425F5F4FBE01635F7F4F8FE492E06F
:102F30000E940F244E852D8530E0A0E1BEE00E9466
:102F400021302B013C01242F30E0ACE3B0E00E94A3
:102F50002130460E571E681E791E6F857889898933
:102F60009A890E940532A3019201260F371F481F3C
:102F7000591F2D8B3E8B4F8B588F8B898B7F8335C1
:102F800059F450954095309521953F4F4F4F5F4FE5
:102F90002D8B3E8B4F8B588F8E010D5E1F4F9E01E8
:102FA000215F3F4FAE01425F5F4FBE01635F7F4FC6
:102FB0008FE492E00E941F244E852D8530E0A0E131
:102FC000BEE00E9421302B013C01242F30E0ACE315
:102FD000B0E00E942130460E571E681E791E6F8594
:102FE000788989899A890E940532A3019201260F66
:102FF000371F481F591F8B898B7F833539F45095B4
:103000004095309521953F4F4F4F5F4F809154042D
:1030100090915504892B91F46D897E898F89988DC3
:103020000E94A50BC0926104D0926204E0926304F6
:10303000F0926404C701B6010E9483168FE492E007
:103040000E941F22E1CE8091590490915A04A091D0
:103050005B04B0915C04885A9D4FAF4FBF4F8815F9
:103060009905AA05BB0508F05CC00E947E1688235E
:1030700009F457C08091750490917604019690935D
:103080007604809375048091610490916204A0910C
:103090006304B0916404892B8A2B8B2B29F0C50122
:1030A000B4010E9483163DC08091590490915A0446
:1030B0009401281B390B3093720420937104809182
:1030C000650490916604A0916704B0916804820F32
:1030D000931FA11DB11D8093650490936604A09376
:1030E0006704B09368048092590490925A04A092A5
:1030F0005B04B0925C0415C08091590490915A040D
:10310000A0915B04B0915C0488169906AA06BB06E0
:1031100040F00E947E16811104C0C501B4010E94D6
:103120005B1668960FB6F894DEBF0FBECDBFDF9179
:10313000CF911F910F91FF90EF90DF90CF90BF90B4
:10314000AF909F908F907F906F905F904F903F9047
:103150002F900895CF92DF92EF92FF92CF93C82FD6
:103160006A017B0110926104109262041092630460
:10317000109264048FE492E00E94152182E396E1AC
:103180000E94AB1B5E98569ACC23A9F0C0925D04B6
:10319000D0925E04E0925F04F09260040E947E167A
:1031A00081111BC0C701B601CF91FF90EF90DF9056
:1031B000CF900C945B16C701B6010E94831684E879
:1031C000C80E83E0D81EE11CF11CC0925904D092B5
:1031D0005A04E0925B04F0925C04CF91FF90EF9070
:1031E000DF90CF90089581E0409161045091620496
:1031F0006091630470916404452B462B472B09F4BE
:1032000080E0089589E594E0089590937804809390
:1032100077040895FB01882321F0918182E08927BA
:103220008183818181FD03C068EB71E002C06BEA9C
:1032300071E084E192E00C94EA29FB01882321F0FB
:10324000918181E089278183818180FD03C06FECBA
:1032500071E002C066EC71E084E192E00C94EA292E
:1032600068ED71E084E192E00C94EA29CF93DF935A
:10327000EB01882379F0998184E0892789830E9472
:10328000FF15FC018981938582FF02C0946001C013
:103290009B7F9387898182FD03C06BEE71E002C042
:1032A00061EE71E084E192E0DF91CF910C94EA2924
:1032B000FB01882389F08081853F14F48EE001C0F2
:1032C00081508083A0810A2E000CBB0B20E13EE0E0
:1032D0000E9430300E94C20B66EF71E084E192E000
:1032E0000C94EA29FB01882389F080818E3014F048
:1032F00084EF01C08F5F8083A0810A2E000CBB0B7E
:1033000020E13EE00E9430300E94C20B61E072E09A
:1033100084E192E00C94EA291F93CF93DF931F92EC
:10332000CDB7DEB7182F8A3050F480E3898341E0AF
:10333000BE016F5F7F4F84E192E00E94C62868E67D
:1033400076E0812F0E94F429BC016F5F7F4FFC0162
:10335000408184E192E00E94C6280F90DF91CF91D6
:103360001F9108950F931F93CF93DF93CDB7DEB7CF
:1033700065970FB6F894DEBF0FBECDBF6A8B7B8B0F
:103380008C8B9D8B142FBE016F5F7F4FCE014296B9
:103390000E94440A10921A02012F017010FD02C00F
:1033A00018E001C015E00E94FF15FC0181819281A7
:1033B000F9E01F9F801991091124969587959093A4
:1033C000190280931802002321F08B810E948C192E
:1033D00023C01B811D3010F01C5002C0112369F066
:1033E0001A3060F480E2898B41E0BE016F5E7F4F4E
:1033F00084E192E00E94C62801C01CE068E676E005
:10340000812F0E94F429BC016F5F7F4FFC01408136
:1034100084E192E00E94C6288AE3888B41E0BE01E5
:10342000605F7F4F84E192E00E94C6288A810E94FB
:103430008C19011123C080E28F8741E0BE01615FDA
:103440007F4F84E192E00E94C6288B818C3014F477
:1034500081E401C080E58D8741E0BE01635F7F4F5D
:1034600084E192E00E94C6288DE48E8741E0BE018F
:10347000625F7F4F84E192E00E94C62865960FB696
:10348000F894DEBF0FBECDBFDF91CF911F910F919A
:1034900008958F929F92AF92BF92EF92FF920F93F7
:1034A000CF93DF934B015C017A010E94FF15EC0181
:1034B000F70191818B8592FF02C0846001C08B7FF0
:1034C0008B87CE010E94562700E09701B501A40129
:1034D00080E00E94851A8B8580618B879701B501FA
:1034E000A40180E00E94851A8B858F7E8B8760E027
:1034F00070E0CE01DF91CF910F91FF90EF90BF90E0
:10350000AF909F908F900C9459284F925F926F923A
:103510007F929F92AF92BF92CF92DF92EF92FF92F3
:103520000F931F93CF93DF93182F2A013B01E901DB
:1035300081FF0AC0809179048F5F863018F48093F0
:10354000790402C0109279040E94FF157C010111D8
:103550000E94452660E0C7010E94FB2782E080931D
:103560001A02117080E0C82E81E0D82E912C92E3CF
:10357000A92EB12CB0921902A092180291E080916C
:103580007904891190E090931B02D601ED91FD9191
:103590006D01112311F0892F02C080E090E0BE017F
:1035A0000995939480911A028E5F80931A02B6E077
:1035B0009B12E0CF10921B024981C301B2010E940D
:1035C000B219002329F061E070E0C7010E946D2864
:1035D000112379F0CE010E94221610917904133044
:1035E00051F4C7010E945627AE01C301B2010E94E7
:1035F000491A11E004C01111FCCF0E940216812F5C
:10360000DF91CF911F910F91FF90EF90DF90CF90BE
:10361000BF90AF909F907F906F905F904F90089574
:103620000F9301E00E94851A0F910895CF92DF92C7
:10363000EF92FF92CF93DF936B017C01EA0110922E
:1036400079040E94FF15AC0167E47CE084E192E01C
:103650000E949F28AE01C701B601DF91CF91FF9074
:10366000EF90DF90CF900C94491A66E070E00E94D2
:10367000B82F892B11F080E0089583E008950F930F
:103680001F930FEB15E026E046E950E0BC018AE706
:1036900094E00E94722485E39BE1909382048093DE
:1036A000810425E834E040E366E970E081EB95E0D1
:1036B0000E94751D1F910F9108958091B3059091FF
:1036C000B405892B39F481E09091B505911103C0BF
:1036D00080E0089581E008956055734C8109910957
:1036E0002AE030E040E050E00E94E02FB90181EB99
:1036F00095E00C948B1D2091B9053091BA05AAE094
:10370000B0E00E942130605B7C438F4F9F4F089553
:103710002091B7053091B805AAE0B0E00E942130B1
:10372000605B7C438F4F9F4F08958091B3059091CC
:10373000B4059093800480937F044AE060E070E0D9
:103740008AE794E00C948324E9E6F0E080818160CC
:103750008083E89A0895E5E5F6E0918380831382FB
:1037600012821186128615BC16BC87EF87BDEEE665
:10377000F0E080818260808352985A980C94A41B58
:10378000E898E9E6F0E080818E7F8083E09AE5E5C5
:10379000F6E013821282118612860895E0915E0689
:1037A00020915F06E21771F0F0E0EB5AF94F2385A4
:1037B000FC01208380915E068F5F877080935E0698
:1037C00081E0089580E008951F920F920FB60F9246
:1037D00011242F933F934F935F936F937F938F9316
:1037E0009F93AF93BF93CF93EF93FF93C6B5809111
:1037F000570690915806009719F00197A9F062C0FA
:1038000016BC83E085BD10925B0610925C06109298
:103810005D0681E090E04A9B28C090935A06809311
:10382000590682E090E021C06C2F70E080915D0627
:10383000681B7109CB01770FAA0BBB0BBC01CD0133
:10384000635F7F4F8F4F9F4F2AE130E040E050E0B1
:103850000E940230322FC0935D0621110BC082E01E
:1038600090E090935A06809359069093580680935F
:10387000570628C080915B06820F80935B068A30D2
:1038800060F083E090E090935A068093590682E0BE
:1038900090E0909358068093570680915C064A9971
:1038A00002C090E007C090E002C0959587952A95E8
:1038B000E2F706C0931720F4869580689F5FFACFE1
:1038C00080935C06FF91EF91CF91BF91AF919F9153
:1038D0008F917F916F915F914F913F912F910F90B9
:1038E0000FBE0F901F9018951F920F920FB60F9258
:1038F00011242F933F934F935F936F937F938F93F5
:103900009F93AF93BF93EF93FF9315BC809157069E
:103910009091580610925806109257060197B1F5EB
:1039200080915F06482F50E0BA016F5F7F4F67704C
:10393000772720915E0630E06217730739F485E03F
:1039400090E090935A068093590620C04A9B1EC06F
:1039500020915B0630E090915C06293031052CF413
:10396000969590682F5F3F4FF8CF90935C06FA01D1
:10397000EB5AF94F93878F5F877080935F06E091D2
:103980005506F0915606309709F00995FF91EF9191
:10399000BF91AF919F918F917F916F915F914F9167
:1039A0003F912F910F900FBE0F901F9018954F923F
:1039B0005F926F927F92AF92BF92CF92DF92EF921F
:1039C000FF920F931F93CF93DF93EC018B015A016A
:1039D000488459848E819F818415950528F492012D
:1039E000281B390BC90102C081E090E0E12CF12CC9
:1039F0002C01612C712CEA14FB0441F12D81C801CA
:103A0000880F991FEA85FB85E80FF91FA081B18116
:103A10008E819F81A81BB90BCC84DD84C00ED11E82
:103A200030E00E942130A30192010E94E02FF601B4
:103A300020830F5F1F4F888199810817190711F4A0
:103A400000E010E0FFEFEF1AFF0AD5CFDF91CF9132
:103A50001F910F91FF90EF90DF90CF90BF90AF90AC
:103A60007F906F905F904F900895CF93DF93EC011C
:103A70008E819F816817790720F47F836E8381E0B0
:103A800001C080E0288539852617370718F4798723
:103A9000688781E0EA81FB81EE0FFF1F2A853B8565
:103AA000E20FF31F71836083442371F0882329F0B0
:103AB0004881598160E070E004C06A817B8141E007
:103AC00050E0CE010E94D71C8A819B8101969B8386
:103AD0008A83288139818217930721F41B821A82F5
:103AE00081E08C83DF91CF9108950F931F93FC01A8
:103AF0007183608313821282148245838FEF9FEF5C
:103B000097838683118610863387228715870487DB
:103B10001F910F9108950F931F93CF93DF93EC01A3
:103B20008C81882339F04E815F818885998548177B
:103B3000590741F441E0CE01DF91CF911F910F91E0
:103B40000C94351DEA81FB81EE0FFF1F2A853B8512
:103B5000E20FF31F208131814217530721F401E066
:103B60002617370708F000E08217930721F411E0C9
:103B70006817790708F010E0011104C0412F409543
:103B8000417001C040E0CE010E94351D002309F4C0
:103B900045C08FEF9FEF9F838E834881598120E03E
:103BA000822F90E08417950788F4880F991FEA8583
:103BB000FB85E80FF91F808191816E817F818617D7
:103BC000970710F49F838E832F5FEACF1123D9F0DC
:103BD000198618864881598120E0822F90E0841749
:103BE000950788F4880F991FEA85FB85E80FF91F70
:103BF00080819181688579856817790710F49987A4
:103C000088872F5FEACF4881598160E070E0CE015C
:103C1000DF91CF911F910F910C94D71C1111D8CF28
:103C2000DF91CF911F910F910895AF92BF92CF92E4
:103C3000DF92EF92FF920F931F93FC014115510504
:103C400011F58091B10081FF02C094E001C090E0C5
:103C50008091B10080FD92608091B1008091B100AF
:103C60008B7F8093B1008091B1008D7F8093B100F4
:103C70008091B1008E7F8093B10080916400806458
:103C80008093640001C090E06115710551F480914A
:103C90007A008F7780937A008091640081608093AE
:103CA00064002115310529F48091640088608093B7
:103CB00064000115110529F48091640080628093ED
:103CC0006400E114F10429F480916400846080931D
:103CD0006400C114D10429F480916400826080934F
:103CE0006400A114B10429F4809164008068809379
:103CF0006400EA30F105A9F0E3FD02C088E001C0EC
:103D000088E2E770E82B88E10FB6F894A8958093D5
:103D100060000FBEE093600080916000806480933B
:103D2000600083B7817F83BFF89483B7816083BFCE
:103D30007894889583B78E7F83BF7894672B51F4EE
:103D4000809164008E7F8093640080917A00806807
:103D500080937A00452B61F491FF05C08091B100FA
:103D600084608093B100809164008F7B80936400B5
:103D7000232B29F480916400877F80936400012BBA
:103D800029F4809164008F7D80936400EF2829F4EA
:103D9000809164008B7F80936400CD2829F480910A
:103DA00064008D7F80936400AB2829F480916400C7
:103DB0008F77809364001F910F91FF90EF90DF90B9
:103DC000CF90BF90AF9008951F920F920FB60F92B1
:103DD00011248F930FB6F894A895809160008861A4
:103DE00080936000109260000FBE8F910F900FBE05
:103DF0000F901F901895EF92FF920F931F93CF9300
:103E0000DF93DC01A95FBD4F2C91621730F41C9247
:103E1000FC01E85FFD4F11821082EC01C85FDD4FAD
:103E2000AC014E5F5D4F8C011E5F2C91261778F51B
:103E30002F5F2C9328813981FA01E080F1802E15C3
:103E40003F0560F4F801E080F180F701E20FF31F15
:103E5000F170E80FF91F70817D3061F4FC01EB5FB8
:103E6000FD4F21E030E0318320831C9219821882BB
:103E700080E00EC02F5F3F4F39832883FA01E08036
:103E8000F1802E153F0550F77C32A1F6CECF81E0B0
:103E9000DF91CF911F910F91FF90EF9008950F93B5
:103EA0001F93CF93DF93DB016D917C911197EC0110
:103EB000CE5FDD4F8C011E5F2D913C9111974881A3
:103EC00059812417350728F0621773070CF040C09A
:103ED00033C0F80140815181FA01E20FF31FF17004
:103EE000E80FF91F408150ED540F5A3058F14C3211
:103EF00071F02CF44D3059F04A3279F408C04D324B
:103F000019F04E3251F403C043E050E008C062178C
:103F1000730751F444E050E002C042E050E0FC017D
:103F2000EB5FFD4F51834083FC01E85FFD4F8081D3
:103F300091812817390761F0215031092D933C9365
:103F400081E007C02F5F3F4F11963C932E93B4CF73
:103F500080E0DF91CF911F910F9108952F923F92B2
:103F60004F925F926F927F928F929F92AF92BF9289
:103F7000CF92DF92EF92FF920F931F93CF93DF9335
:103F8000CDB7DEB729970FB6F894DEBF0FBECDBF11
:103F90001C017F836E83FA018901232B19F48E01A2
:103FA0000F5F1F4F41E050E060E070E0D8014D939B
:103FB0005D936D937C931397C12CD12C7601C10135
:103FC0009E5F998788878E819F81E817F9070CF497
:103FD00050C0A885B9858D919C91DC01AE0FBF1FA3
:103FE000B170A20DB31D8C9180538D83D8014D907B
:103FF0005D906D907C90A82F880FBB0BA301920160
:104000000E9442304B015C018C0C9D1CAE1CBF1CFD
:104010004114BAEC5B06BAE96B06BBE37B06C9F454
:104020008E819F818E179F071CF09D81953064F0D3
:10403000F101EB5FFD4F85E090E09183808360E0CC
:1040400070E080E090E017C08C149D04AE04BF04C3
:1040500078F33197AAE0B0E0A30192010E943730D3
:10406000D8016D937D938D939C9313977501640193
:10407000AACFB601C70129960FB6F894DEBF0FBECE
:10408000CDBFDF91CF911F910F91FF90EF90DF9007
:10409000CF90BF90AF909F908F907F906F905F90E8
:1040A0004F903F902F9008956F927F928F929F92A2
:1040B000AF92BF92CF92DF92EF92FF920F931F9336
:1040C000CF93DF9300D000D0CDB7DEB76C017C83F7
:1040D0006B834A015901D7011C92FA0110821182A7
:1040E00012821382F901108211821282138241E03E
:1040F00050E060E070E0F801408351836283738395
:104100003C01F2E06F0E7F1EF301208131818B8133
:104110009C818217930788F432970190F081E02DFB
:10412000E80FF91FF170EC0DFD1D20812D3229F4EF
:1041300021E02C9301969C838B83EB80FC80F30120
:1041400080819181E816F90620F5F601FE5F019065
:10415000F081E02DEE0DFF1DF170EC0DFD1D808155
:104160008E32B9F0BE016D5F7F4FC6010E944F1FB6
:10417000882309F447C04B815C8120E030E0B7011F
:10418000C6010E94AE1FF401608371838283938312
:1041900005C0F1E0EF1AF108FC82EB82EB80FC80B5
:1041A000C70101969A838983F301208131812150CF
:1041B00031098217930730F5F601FE5F0190F08117
:1041C000E02DE80FF91FF170EC0DFD1D80818E329E
:1041D000C9F4F2E0EF0EF11CFA82E982BE016F5FD2
:1041E0007F4FC6010E944F1F882361F049815A8189
:1041F0009801B701C6010E94AE1FF501608371836B
:10420000828393830F900F900F900F90DF91CF9147
:104210001F910F91FF90EF90DF90CF90BF90AF90E4
:104220009F908F907F906F900895FC01FE5F1182A8
:10423000108232961182108232961082319611824B
:104240001082329610823196118210820895CF9397
:10425000DF93DC01AE5FBD4F2D913C91119721158D
:10426000324090F5ED91FC911197EC01DE5F2881D1
:104270003981E20FF31FF170E80FF91F60836A3094
:10428000D1F42D913C91119722303105A0F02D9160
:104290003C911197E881F981E20FF31F3197F1709A
:1042A000E80FF91F20812D3031F4FC01EC5FFD4F48
:1042B00080818F5F80838D919C91119701961196DB
:1042C0009C938E9381E001C080E0DF91CF910895AF
:1042D0001F93CF93DF93EC01CE5FDD4F28813981AF
:1042E000FC012730310528F4EB5FFD4F29E030E079
:1042F0009DC0FE5FA081B181B170A80FB91F2C9144
:10430000243249F4A081B1811196B170A80FB91F70
:104310002C91273431F0FC01EB5FFD4F28E030E0B9
:1043200085C0A081B181208131812E5F3F4F3170E6
:10433000280F391F1196B170AD01480F591FD901CF
:104340003C91DA012C91232733E0432F50E0A881E0
:10435000B9814A175B07A8F4A081B181A40FB51FEA
:10436000B170A80FB91F1C91460F571F1A3231F4B4
:10437000DA0113974C91442321F05AC01C3231F4D6
:10438000F7CF0990D881C02D229719C0212743501B
:104390005109DA014C9141134BC03F5FD6CFA08148
:1043A000B181A60FB71FB170A80FB91F4C914D3046
:1043B000C1F14A30B1F14A3241F024273F5F632F07
:1043C00070E06C177D0758F32CC040815181DB01F0
:1043D0001196A40FB51FB170A80FB91F4C91322FC1
:1043E00032953F703A3010F4305D01C0395C4313B0
:1043F00012C040815181FB013296E40FF51FF1702C
:10440000E80FF91F30812F702A3010F4205D01C0B1
:10441000295C321779F0FC01EB5FFD4F26E030E0BC
:1044200005C0FC01EB5FFD4F27E030E031832083C6
:1044300080E001C081E0DF91CF911F910895CF937B
:10444000DF93EC01CC5FDD4F28812223C9F1DC0131
:10445000BE5FED91FC911197F170E80FF91F60813B
:10446000AC014E5F5D4FFA0120813181232BE1F0D9
:104470006A30D1F0F894ED91FC911197F170E80F4A
:10448000F91F6081FA012081318121503109318386
:1044900020832D913C9111972F5F3F4F31701196E2
:1044A0003C932E937894DFCFF89428812150288371
:1044B0007894FC01E95FFD4F1082319611821082E1
:1044C000DF91CF910895EF92FF920F931F93CF93B7
:1044D000DF9300D0CDB7DEB78C010E94FB1E8111A7
:1044E00004C060E070E0CB011CC0780188EFE81ADE
:1044F0008DEFF80AF701808191819A838983BE014B
:104500006F5F7F4FC8010E944F1F882351F349817D
:104510005A81F7016081718120E030E0C8010E947A
:10452000AE1F0F900F90DF91CF911F910F91FF90D1
:10453000EF9008958F929F92AF92BF92CF92DF92A9
:10454000EF92FF920F931F93CF93DF93CDB7DEB718
:104550002D970FB6F894DEBF0FBECDBF6C010E9441
:10456000FB1E882309F461C0F601E85FFD4F6081FE
:104570007181CE010D967C018E010F5F1F4F9E0150
:104580002B5F3F4FAE01475F5F4FC6010E94542033
:104590008D85882339F169857A858B859C850E9474
:1045A0003B326B017C01F7FAF094F7F8F0946D81DF
:1045B0007E818F8198850E943B324B015C0169812D
:1045C0007A818B819C810E943B329B01AC01C501A9
:1045D000B4010E9493319B01AC01C701B6010E9456
:1045E000263126C06D817E818F8198850E943B3265
:1045F0006B017C0169817A818B819C810E943B32B5
:104600009B01AC01C701B6010E9493316B017C0193
:1046100069857A858B859C850E943B329B01AC0124
:10462000C701B6010E94273103C060E070E0CB01F2
:104630002D960FB6F894DEBF0FBECDBFDF91CF91A0
:104640001F910F91FF90EF90DF90CF90BF90AF90B0
:104650009F908F900895CF93DF93EC010E94FB1EF3
:10466000882339F1FE01FE5F0190F081E02DDE012B
:10467000A85FBD4F8D919C91E80FF91FF170EC0F71
:10468000FD1F80819FEB980F9A31A0F0CB5FDD4F2B
:104690008D3041F01CF48A3041F404C08A3211F0AC
:1046A0008C3219F484E090E002C08BE090E09983B2
:1046B000888380E0DF91CF9108954F925F926F924F
:1046C0007F928F929F92AF92BF92DF92EF92FF9272
:1046D0000F931F93CF93DF93EC01D62E4A0159011C
:1046E0000E949A222B013C0161E06D0DCE010E94D7
:1046F0002B23F7018083CB5FDD4F88819981892B44
:10470000D9F520E030E048EC52E4C301B2010E9448
:1047100093312B013C010E940C32F401608370E064
:1047200080E090E00E943B329B01AC01C301B201EA
:104730000E94263120E030E048EC52E40E94C93269
:104740002B013C010E940C32F501608370E080E097
:1047500090E00E943B329B01AC01C301B2010E9478
:10476000263120E030E040E752E40E94C932F801EF
:104770006083718382839383DF91CF911F910F9127
:10478000FF90EF90DF90BF90AF909F908F907F90C1
:104790006F905F904F9008954F925F926F927F92CB
:1047A000AF92BF92CF92DF92EF92FF920F931F933F
:1047B000CF93DF93EB018A01590161E00E946322EC
:1047C0006B017C0184E6482E512C612C712CC701B1
:1047D000B601A30192010E94E02FF5016083CA0196
:1047E000B901A30192010E94E02FF8016083C70183
:1047F000B60120E137E240E050E00E94E02F28833C
:10480000DF91CF911F910F91FF90EF90DF90CF90AC
:10481000BF90AF907F906F905F904F900895EF9210
:10482000FF920F931F93780189019A01AB0163E016
:104830000E945D231F910F91FF90EF900895EF92DA
:10484000FF920F931F93780189019A01AB0165E0F4
:104850000E945D231F910F91FF90EF9008954F925A
:104860005F926F927F92AF92BF92CF92DF92EF9260
:10487000FF920F931F93CF93DF93EB018A015901AE
:1048800069E00E9463226B017C0184E6482E512C72
:10489000612C712CC701B601A30192010E94E02F87
:1048A000F5016083CA01B901A30192010E94E02FC2
:1048B000F8016083C701B60120E137E240E050E033
:1048C0000E94E02F2883DF91CF911F910F91FF90DD
:1048D000EF90DF90CF90BF90AF907F906F905F9000
:1048E0004F9008950F931F93FC017183608322837F
:1048F000548343831682158210861782128701879C
:104900001F910F9108952F923F924F925F926F9255
:104910007F928F929F92AF92BF92CF92DF92EF924F
:10492000FF920F931F93CF93DF937C01DC011296CC
:104930005C9012971396CD90DC9014970FEF050DB5
:10494000802F880F880F880F97E0792E780E040F3C
:10495000960121503109260F371F8D919C910E949D
:104960003927F701808191810E94DE27612C052D76
:1049700010E001501109D701651409F472C01596B1
:104980008D909C9016971996ED91FC911A97E80DD1
:10499000F91D8081781618F0C72DC81B01C0C0E032
:1049A000362C330C330C330C87E0282E230C412C8F
:1049B000A62CB12C842D90E08C159D0508F04FC0DD
:1049C000D7011996ED91FC911A97E80DF91D808198
:1049D000781618F0D72DD81B01C0D0E0D701179654
:1049E000ED91FC911897309769F0A016B10651F43B
:1049F000C401099590E060E0981729F06695606819
:104A00009F5FFACF60E0DC1710F4C15007C0CD17EC
:104A100020F491E09C0FCD2F02C0CD2F9D2FC31508
:104A200070F0291660F0832D21E0281640F08917D8
:104A300018F0C81720F0622B8F5F220FF6CFF70116
:104A4000808191810E94F027FFEF8F1A9F0AC8147E
:104A5000D90411F4812C912C4394CD2FABCF6394C6
:104A60008ACF8D919C91DF91CF911F910F91FF90F3
:104A7000EF90DF90CF90BF90AF909F908F907F90FE
:104A80006F905F904F903F902F900C949C28282F10
:104A900026952575880F8A7A282B822F86958695EC
:104AA000837394E0299F900111242C7C822B8295A2
:104AB0000895299A2A9808951F93CF93DF93EC01C4
:104AC000162F0E949528BE0182E20E9498280E941B
:104AD0005925111102C087EC01C08FE0BE010E9470
:104AE0009828CE010E949C28CE010E949528BE01E4
:104AF00080E20E949828CE01DF91CF911F910C9403
:104B00009C2820E030E04F9B0CC0EFE9FFE031979C
:104B1000F1F700C000002F5F3F4F203AFFE03F0752
:104B200091F7EFE7FEE33197F1F700C00000203A7C
:104B30003F4019F421E0FC0120830895EF92FF9299
:104B40000F931F93CF93DF93EC017B010E94952875
:104B5000BE0182E30E9498280E94592500E010E0DF
:104B6000F701E00FF11F8491BE010E9498280F5FAA
:104B70001F4F09391105A1F7CE010E949C28CE01D3
:104B8000DF91CF911F910F91FF90EF900C948125B1
:104B9000FC018CE0DF011D928A95E9F728E231E003
:104BA0003283218380E18383358324838683138644
:104BB000089528988FE39FE10197F1F700C0000066
:104BC000289A8FE39FE10197F1F700C00000089554
:104BD000CF93DF93EC016CE073E10E949E25CE0140
:104BE0000E949528BE018FE30E9498280E945925B3
:104BF000E5EAF3E18491BE010E949828CE010E946B
:104C00009C28CE010E949528BE0183E00E9498282E
:104C10000E945925E6EAF3E18491BE010E9498289A
:104C2000CE010E949C28CE010E949528BE0184E0FE
:104C30000E9498280E945925E7EAF3E18491BE0179
:104C40000E949828E8EAF3E18491BE010E94982826
:104C5000E9EAF3E18491BE010E949828CE010E9406
:104C60009C28CE010E949528BE018CE20E949828C3
:104C70000E945925EAEAF3E18491BE010E94982836
:104C8000CE01DF91CF910C949C280F931F93CF936B
:104C9000DF93EC010E94D9256BEA73E1CE010E94FB
:104CA0009E25CE010E949528BE0187E30E94982888
:104CB0000E94592502E013E1F8018491BE010E948F
:104CC00098280F5F1F4FF3E10C301F07A9F7CE01A3
:104CD0000E949C28CE010E949528BE018CE30E9470
:104CE00098280E945925BE0180E80E949828CE018C
:104CF0000E949C28CE010E949528BE0182E20E945B
:104D000098280E945925BE0180EC0E949828CE0167
:104D10000E949C28CE010E949528BE0180E20E943C
:104D20009828CE010E949C28CE01DF91CF911F913F
:104D30000F910C948125AF92BF92CF92DF92EF92A8
:104D4000FF920F931F93CF93DF93EC017B01142FFE
:104D500069010E949528BE0184E40E9498280E945F
:104D600059258B8583FF07C0BE01812F0E9498289B
:104D7000BE01802F0AC08FE0B82EBE018B2D811B93
:104D80000E949828BE018B2D801B0E949828CE017E
:104D90000E949C28CE010E949528BE0185E40E94B5
:104DA00098280E9459258B8583FF06C087E291E0F1
:104DB0005C01AE18BF0801C05701BE018A2D0E94D8
:104DC0009828BE018B2D0E9498288B8583FF06C0F2
:104DD00087E291E09C012C193D096901BE018C2DEF
:104DE0000E949828BE018D2D0E949828CE010E9415
:104DF0009C28CE010E949528BE018EE40E9498282E
:104E00000E9459258B8583FD03C08FE0811B01C063
:104E1000812FBE010E949828CE010E949C28CE01BD
:104E20000E949528BE018FE40E9498280E9459256F
:104E30008B8583FF06C087E291E09C012E193F0914
:104E40007901BE018E2D0E949828BE018F2D0E94EF
:104E50009828CE010E949C28CE01DF91CF911F910E
:104E60000F91FF90EF90DF90CF90BF90AF900C9498
:104E700081250F93CF93DF93F901DC011A963C91C2
:104E80001A9719965C911997350F17960D90BC914A
:104E9000A02D030FEA0FFB1F430F6A0F7B1F9F011B
:104EA0000E949B26DF91CF910F910895EF92FF9280
:104EB0000F931F93CF93DF93EC010E9481285798A3
:104EC0005F9883E0E82EF12CCE010E9481251881A5
:104ED000113041F481E0E81AF10809F468C00E9439
:104EE000D925F2CF111163C0CE010E949528BE01D1
:104EF00082E10E949828CE010E949C28CE010E9447
:104F00008125CE010E949528BE0181E00E9498284B
:104F10000E945925BE0187E20E949828BE0181E0C7
:104F20000E949828BE0180E00E949828CE010E942D
:104F30009C28CE010E949528BE0181E10E949828FC
:104F40000E9459258B8583FD02C086E001C085E063
:104F5000BE010E949828CE010E949C28CE010E948A
:104F60009528BE0181E20E9498280E9459258B85D0
:104F700082FF18E8BE01812F0E949828BE0180E8B8
:104F80000E949828CE010E949C280FE027E231E081
:104F900040E060E070E0CE010E949B26CE01DF91F0
:104FA000CF911F910F91FF90EF900C94E825DF9126
:104FB000CF911F910F91FF90EF900895CF93DF93C2
:104FC000EC010E9495288B8584FD02C084E201C01B
:104FD00086E2BE010E949828DF91CF910C9459255A
:104FE000CF93DF93EC01862F0E944725BE01DF910E
:104FF000CF910C949A28DF92EF92FF920F931F9318
:10500000CF93DF93EC01862F0E944725D82E0E8187
:1050100001502C813D812150310940E060E070E079
:10502000CE010E949B26CE010E94DE272E818C811C
:105030009D81289F7001299FF00C112400E010E051
:105040000E151F0539F0BE018D2D0E949A280F5FA5
:105050001F4FF6CFCE01DF91CF911F910F91FF909F
:10506000EF90DF900C949C2860E00C945C250F93EB
:105070001F93CF93DF9364307105B1F08B01EC0186
:105080000E949528BE0180E10E9498280E9459251F
:10509000BE01802F83700E949828CE01DF91CF91AE
:1050A0001F910F910C949C28DF91CF911F910F912C
:1050B00008950F931F93CF93DF93EC018B0160E072
:1050C0000E945C25CE010E948125B801CE01DF91AE
:1050D000CF911F910F910C9437280F931F93CF936B
:1050E000DF93EC018B0161E00E945C25CE010E9400
:1050F0008125B801CE01DF91CF911F910F910C94C2
:105100003728229A2A9A219A299A209A28988FE356
:105110009FE10197F1F700C00000289A40E856E9A6
:1051200068E970E081E00C947E2A29982A98089515
:105130000C94C02A0C94C02A2A9A299A0895FC013A
:10514000718360835383428316821582148217828F
:105150000895FC01A281B3812C91211116C0808198
:105160009181FC012491263571F43196E491E1346A
:1051700051F4FC013296E491E23529F4FC013396B6
:10518000E491E13311F080E28C9308952F923F92E5
:105190004F925F926F927F928F929F92AF92BF9247
:1051A000CF92DF92EF92FF920F931F93CF93DF93F3
:1051B00000D01F92CDB7DEB77C01162F7A834983CA
:1051C0000E94A9282981222309F4EEC0D701129652
:1051D000ED91FC91139780818111E6C0968116961E
:1051E0008C911697891708F0DFC0ED91FC913596E8
:1051F0003490A12EBA804501820E911CA814B904E6
:1052000009F4D2C0D70114966D917C91159712962E
:105210008D919C911397FC01C480D5806C157D0500
:1052200008F0BEC02D913C913B832A83F90134964E
:10523000549140E8541710F44695FCCFF501B08125
:10524000A0E02A813B812A5F3F4F442389F0A42BB1
:10525000A51748F4F90114E0A19FE00DF11D1124F8
:10526000E491BE171CF4E42FE095AE234695EDCFF4
:105270004A815B814A5F5F4F9A01E4E0AE9F200D57
:10528000311D1124F901A491BA138AC0319664909A
:105290003196A49131961491212F30E03A2B240FAE
:1052A000351F3B832A83232B09F47AC09B01260DEB
:1052B000311D2C153D0508F46901D70116964C9156
:1052C000FC012681732C740E271508F4722E0FEF43
:1052D000070D9601215031090E943927D7011296F6
:1052E0008D919C9113970E94DE27F7018781817031
:1052F00089832680412C271408F048C000E010E084
:10530000061508F041C0F701A281B3818C9181118B
:1053100025C0411014C0EA81FB8144903196FB8383
:10532000EA8347FE05C0F42DFF774F2E512C02C0B3
:1053300055245394411003C021E22C930FC0EA81FD
:10534000FB8164914A94552011F0411008C02A81D4
:105350003B812F5F3F4F3B832A8301C06FEFD70113
:1053600014968D919C911597800F911F8C159D051A
:1053700040F4B981B1116095F701828193810E9457
:10538000F0270F5F1F4FBCCF2394B5CFD7011296E4
:105390008D919C9113970E949C28F701D582C4821D
:1053A000FFEFAF1ABF0A2ACF0F900F900F90DF9137
:1053B000CF911F910F91FF90EF90DF90CF90BF9012
:1053C000AF909F908F907F906F905F904F903F90A5
:1053D0002F900895FB0101900020E9F73197AF016C
:1053E000461B570B0C94C6289B012D5F3F4F811124
:1053F00007C0FB01329680E3DB0113968C930AC051
:10540000F9014AE03197642F0E949E2F905D9183AD
:105410008111F8CF2E1B3F0B2083CF010895CF932E
:10542000DF939B012B5F3F4F009739F4FB013496CC
:1054300080E3DB0115968C930CC0F901CAE0D0E043
:105440003197BE010E94B82F805D8183CB01009708
:10545000B9F72E1B3F0B2083CF01DF91CF91089529
:10546000CF92DF92EF92FF920F931F93CF93DF9330
:105470008A01065F1F4F611571058105910531F4A1
:10548000EA01299680E3FA01828714C0E8012AE044
:10549000C22ED12CE12CF12C2197A70196010E945C
:1054A000E02F605D6983B901CA016115710581054D
:1054B000910591F70C1B1D0B0883CE01DF91CF9155
:1054C0001F910F91FF90EF90DF90CF90089590E59E
:1054D0009CBD84FF03C09CB590629CBD82FF03C04D
:1054E0009CB598609CBD83FF03C09CB594609CBD37
:1054F00080FD239A81FD2498259A0895CF92DF920A
:10550000EF92FF926A017B010E94672A80E040E0EF
:1055100052E16AE770E0C416D506E606F70640F4E5
:10552000863021F176956795579547958F5FF3CF34
:10553000823091F030F4882359F08130B9F41DBCE9
:1055400009C0843079F058F0853081F41DBC0CC05E
:1055500081E08DBD80E00CC081E08DBD09C01DBC27
:1055600081E006C081E08DBD82E002C01DBC83E009
:105570009CB5892B8CBDFF90EF90DF90CF90089564
:105580008EBD0DB407FEFDCF089584EA8093BC0064
:105590008091BC0087FFFCCF8091B900887F883064
:1055A00021F0803111F082E1089580E00895809328
:1055B000BB0084E88093BC008091BC0087FFFCCFD7
:1055C000089587B18F7C87B988B1806388B9E9EB8A
:1055D000F0E08081808380818E7F808388E4809367
:1055E000B800089580911C02811105C081E080936C
:1055F0001C020C94E12A0895FC018081811103C0F2
:1056000084E98093BC0008951F93CF93DF93FB013F
:10561000908191111AC0EB01182F0E94C52A88832E
:10562000811113C0812F880F0E94D72A8091B90061
:10563000887F803231F0883331F0883131F085E174
:1056400003C081E101C084E18883DF91CF911F9184
:1056500008951F93CF93DF93FB01108111110EC0AA
:10566000EB010E94D72A8091B900887F883229F007
:10567000803311F411E101C015E11883DF91CF915E
:105680001F910895EF92FF920F931F93CF93DF9393
:10569000F9019081911144C0E901042F7B01182F79
:1056A0000E94C52A888381113BC0812F880F8160A9
:1056B0000E94D72A8091B900887F803431F08834E5
:1056C00061F0883361F484E10BC0F70120E030E041
:1056D000602F70E0615071091DC081E101C085E15A
:1056E00088831EC026173707C4F048E584E88093F6
:1056F000BC008091BC0087FFFCCF8091B900887FFF
:1057000090E050E08417950751F78091BB0081939A
:105710002F5F3F4F201730F303C040E584ECE7CF05
:10572000DF91CF911F910F91FF90EF900895CF934C
:10573000DF93EB010E94292BCE01DF91CF910C94D6
:10574000FC2AFF920F931F93CF93DF9300D01F92F9
:10575000CDB7DEB7F82E8B0186E70E94042BB80187
:105760008F2D0E94972B45E6F42EF8018081882327
:1057700099F0980143E0BE016F5F7F4F86E70E947A
:10578000422BC8010E94FC2AF80180818823E1F0A5
:1057900060E070E0CB0127C0FA94FF2051F38FE95D
:1057A0009FE00197F1F700C00000B80186E70E9472
:1057B000042BB80180E00E94972BF8018081813191
:1057C000C1F6F8011082D1CF29816A81862F90E03D
:1057D000A0E0B0E0BA2FA92F982F8827A22B2B8109
:1057E000BC01CD01622B0F900F900F90DF91CF91F4
:1057F0001F910F91FF9008958F929F92BF92CF9229
:10580000DF92EF92FF920F931F93CF93DF93CDB769
:10581000DEB762970FB6F894DEBF0FBECDBF8C0126
:10582000FC01128A88E090E097878687918B808BB5
:105830000E94F22A7801F2E1EF0EF11CB70186E72F
:105840000E94042BB7018EE10E94972BB70180E4E0
:105850000E94042BB7018EEF0E94972B8FE59AEEE2
:105860000197F1F700C00000F8018289811168C03A
:10587000480160EAB62EF8018289811161C0FEEA12
:10588000BF16F9F0B70186E70E94042BB7018B2DF4
:105890000E94292B970142E0BE016F5E7F4F86E791
:1058A0000E94422BC7010E94FC2A89899A89982765
:1058B00089279827F401819391934F01B394B3946E
:1058C000DACFF80141818EE0DE01119601900D9250
:1058D0008A95E1F789819A819F709A838983188AD2
:1058E0001F8680E090E020E0322F3695FE01319651
:1058F000E30FF11DE30FF11D20FF04C0308183276A
:1059000038E008C0C180D12C8C259D25F9CFCB0172
:10591000315049F0BC01660F771F97FFF8CFCB01DC
:1059200050E39527F5CF2F5F2031F1F642954F7068
:10593000892F82958F70481719F080E3F801828BC8
:1059400062960FB6F894DEBF0FBECDBFDF91CF9148
:105950001F910F91FF90EF90DF90CF90BF909F909D
:105960008F9008952F923F924F925F926F927F9205
:105970008F929F92AF92BF92CF92DF92EF92FF925F
:105980000F931F93CF93DF93CDB7DEB7A4970FB6D6
:10599000F894DEBF0FBECDBF1C0179876887598F91
:1059A000488F3B8F2A8F8C010E5E1F4FDC011E96A5
:1059B0008C91B80180650E94A12B6B017C01E88D60
:1059C000F98DEF2B61F0D10150968C91B801806474
:1059D0000E94A12B6C877D878E879F8704C01C86C1
:1059E0001D861E861F86EA8DFB8DEF2B09F484C071
:1059F000B80180E40E94042BB80185EF0E94972B28
:105A000095E6B92EF1018289882339F0F101828966
:105A1000882301F1198A188A6AC0BA94BB20B1F3AD
:105A20008FE99FE00197F1F700C00000980143E083
:105A3000BE016F5F7F4F80E40E94422BC8010E942D
:105A4000FC2AD10152968C91813101F7D1015296F5
:105A50001C92D8CF89819A81182F092F198B088B16
:105A6000A80160E070E0762F652F542F4427E0E115
:105A7000F0E0812C00E8902EAA24AA94B12C00E03A
:105A800010E828E930E0412C512C80E8682E712C78
:105A9000D301C20184239523A623B723892B8A2B04
:105AA0008B2B51F0D901C80188219921AA21BB2152
:105AB000482759276A277B277694679457944794F9
:105AC000B694A7949794879436952795179507953C
:105AD0003197F1F60B8110E020E030E00417150754
