:100000000C94250A0C94191F0C94420A0C94420A71
:100010000C94420A0C94BB110C9452220C94420A88
:100020000C94420A0C94420A0C94420A0C947811E3
:100030000C94420A0C94420A0C94B91F0C94420A84
:100040000C94420A0C94420A0C94420A0C94420A00
:100050000C94420A0C94420A0C94420A0C94420AF0
:100060000C94420A0C94420A05A84CCDB2D44EB965
:100070003836A9020C50B9918688083CA6AAAA2A4B
:10008000BE000000803F072C7AA5BA6CC590DA3B11
:100090009365FC8BBC53F810FD3C5692834DBD8795
:1000A0009D3AB63DCBC9BF5BBE73DA0FC93F06644C
:1000B000EC1B3C04BC163E3BE5B93CC93C37C29E38
:1000C0005A3D660498083EEA69AAAA3E00000080EC
:1000D0003F00564152310C0A2028003030280038A9
:1000E000312800ED32280136332801CC3428027D36
:1000F000352802EE3628037F37280447382804A124
:10010000392805773A1006427F007F007F001300F0
:100110000A00818002C003E008F002E002C0818092
:1001200010008480F0F8FC04FF837F3F1F070F025C
:100130001F813F04FF84FEF8F0C00A0081FE05FF26
:10014000821F010F0082010705FF82FCF00600817B
:10015000E006FF1500813F05FF81C0050007FF078E
:100160000008FE070006FF050007FF0700083F071D
:100170000006FF050082017F05FF8180130082C019
:10018000FE05FF81010700821F7F04FF83FCC08002
:100190000D008380E0F005FF821F030A0083070F34
:1001A0001F027F03FF81FE02FC05F802FC02FE0332
:1001B000FF857F3F0F0301110003010203080702BF
:1001C0000381010D00130007E01800028002C084C3
:1001D000E0F0FCFE08FF120003FE03FF027F023F77
:1001E000851F0F07030107FF120003010C0007FF23
:1001F000210007FF210007FF210007FF210007FF63
:1002000012000FFC07FF0DFC0500230301000A008C
:10021000818002C003E008F003E002C081800F008B
:100220008480F0F8FC04FF837F3F1F070F021F82CA
:100230003F7F04FF84FEFCF8800900827E7F04FF7C
:10024000821F011000810106FF81FC1F008280C017
:1002500005FF823F071A008580C0F0F8FE03FF8487
:100260007F1F070315008480C0E0F002FC03FF023B
:100270003F830F070314008580C0F0F8FC03FF865E
:100280007F3F0F07030115008580E0F8FCFE02FFA9
:10029000857F3F1F03011B0081FC07FF19FC07003E
:1002A000210304000A00818002C003E008F003E09B
:1002B00002C081800F0084C0F8FCFE04FF817F0231
:1002C0001F080F831F3F7F04FF84FEFCF880090096
:1002D000023F047F821F011000810106FF81FC1E86
:1002E000008380C0E005FF821F03130006F803FCB3
:1002F00002FE02BF021F830F030116000707030F50
:10030000811F023F847FFFFEFC02F882E0800A002A
:100310000380140082010705FF81F80600810705AC
:10032000FF83FEF080110082E0F805FF810F0800D6
:1003300084030F1F3F05FF02FC08F802FC81FE0446
:10034000FF857F3F1F07010F000201030309070319
:100350000381010B001700818007E01C0084C0E0CE
:10036000FCFE08FF18008480F0FCFE02FF841F0FD3
:10037000030006FF140083C0F0F802FF847F3F0FE4
:1003800001050006FF100083C0E0FC02FF847F3FF0
:100390000703090006FF0C008380F0FC03FF831FA6
:1003A0000F010D0006FF0A0081FE05FF81FD11FC13
:1003B00006FF08FC0200180306FF08031A0006FFE8
:1003C00022000603090006001CE00C0006FF161FB1
:1003D0000B0081F805FF8107210006FF03008180E3
:1003E00003C007E003C081800F0081FC06FF83FE8D
:1003F000FF7F023F071F023F817F05FF84FCF8F06B
:10040000C00900070381010F008401031F7F05FF5E
:1004100081C0220006FF0600810C02FC03FE83F867
:10042000E0800F008380C0F805FF817F0800850110
:10043000071F3F7F04FF81FE02FC07F802FC81FEDC
:1004400003FF027F841F0F070110008101030309CE
:1004500007020303010B000D00818002C002E008C7
:10046000F002E081C0028010008480C0F8FC03FF2D
:10047000827F3F031F050F021F817F04FF84FEFC64
:10048000F8C00A0082C0FE04FF830F07010E00813E
:1004900001020F04078106080081FC04FF827F032C
:1004A0000300028003C007E002C081800F0005FF47
:1004B00086C0F0FCFEFF7F023F071F023F05FF02E0
:1004C000FC82F8C0090006FF833F03010F0083018F
:1004D0000F7F05FF81C00700817F05FF81C01400E9
:1004E00006FF080082077F04FF83F0E0C00E008251
:1004F000C0F805FF827F010A008501071F3F7F03C7
:10050000FF81FE02FC06F802FC04FF857F3F1F0FFF
:10051000011200020102030807020302010B00049A
:100520000020E00800191F81DF05FF817F1D008486
:1005300080F0FCFE02FF837F1F071B008380C0F05A
:1005400004FF837F0F031C0082E0F804FF837F0712
:10055000011C008380F0FC04FF823F031E0081F039
:1005600005FF820F011F0006FF810F200081FC059F
:10057000FF81032100060315000A00818002C003E9
:10058000E008F003E002C081800F008480F0FCFEF0
:1005900004FF817F021F080F021F817F04FF84FE7A
:1005A000FCF080090081FC06FF810110008101063A
:1005B000FF81FC080082031F05FF83E0C0800C0060
:1005C0008380C0E005FF821F030B008503070F9F98
:1005D000BF03FF81FE08FC02FE02FF029F830F079C
:1005E000030B0082C0F002FC81FE02FF833F1F0F5D
:1005F000020708030207810F021F02FF02FE83FCAD
:10060000F0C0070081FC05FF81071400810305FF8E
:1006100081FC0600810F05FF83FCE080110082E071
:10062000FC05FF810F07008501071F3F7F04FF8145
:10063000FE02FC08F802FC81FE04FF857F3F1F07D5
:10064000010F00810104030807040381010B000A64
:1006500000818002C003E008F002E081C002800F48
:10066000008580C0F8FCFE03FF027F021F060F0218
:100670001F823F7F03FF85FEFCF0E080090081E0E0
:1006800005FF827F0F100082030705FF82F08007BD
:100690000006FF8180140006FF070082017F05FF2E
:1006A00082FCE002800C008480C0E0FE06FF0900AE
:1006B0008401070F1F027F03FF02FE06FC02FE8378
:1006C000FF7F3F021F8203C105FF100002010703E5
:1006D0000301050081F005FF811F080004F002F806
:1006E00082F0800D008480E0F0FC03FF837F3F01F7
:1006F00009008501031F3F7F04FF81FE02FC05F80E
:1007000002FC81FE03FF857F3F1F0F011200810164
:1007100003030807020302010E00230009F8070083
:1007200009FF07000903270009F8070009FF070070
:1007300009030400564152310D03200C00342D0CE6
:1007400000362E0C003C300C0042310C0069320C9B
:100750000081330C00A1340C00C8350C00E2360CCB
:100760000101370C0129380C013F390C01642400C8
:100770000E0007300F001C0003070500840080C036
:10078000E0036083E0C080020003FF8100031C815E
:100790000002FF817F020083010307030683070332
:1007A000010200028002C003E00500020102000312
:1007B000FF050004060307040601008280C002E072
:1007C000036083E0C08002008A0181C1E070383C90
:1007D0001F0F070200030707060200818002C08185
:1007E000E0036002E083C08000038181000318867B
:1007F0003CFFE7E3000102038107030602078303CE
:100800000100050081C004E0020087E0F0F8DEC7C7
:10081000C3C103FF02C007000307020003E0076033
:100820000200039F8118030C861CFCF8F0000102F3
:100830000381070306810702030200840080C0E0F1
:10084000036002E084C080007E02FF8118030C84F4
:100850001CFDF9F10200830103070306810702036F
:10086000820100086002E08160040087E0F8FC1E5D
:100870000703010400030707008280C002E0036051
:1008800002E087C08000E3E7FF3C0318873CFFE7F6
:10089000E3000103020703060207830301008180CE
:1008A00002C081E0036083E0C0800200848F9FBFAC
:1008B000380330811802FF847F000103020703061A
:1008C00083070301020056415231110320090044FD
:1008D000251300462E06007D2F0800833A06009758
:1008E000410E00A1430F00BE460C00E5480C00F786
:1008F0004D0F0111500D013D540E0156550E01686A
:10090000680B0188690501A26E0B01B0720801C66F
:100910001B00830080C0024082C08005008380C02D
:10092000400500821F30022089301F80E0301C0605
:10093000E33002108230E0050084080C0701040057
:1009400082070C0208830C07000E00020C0200054F
:100950000082E06003008480F83F030300830C0FF3
:10096000010400080002060400020C020005000356
:10097000C0080089C0785F4340435F78C0030083AC
:10098000080F07070084030F08000300028081C0DE
:10099000044081C00280030083FCFF030700810143
:1009A00002030300840307060C0408850C040703F4
:1009B00000810002C00840020002FF08200200027D
:1009C0000F0900810002C0060002C0020002FF06FB
:1009D0001002FF0200020F0600020F010081000258
:1009E000C081800700818002C002008DFF00073EA9
:1009F000F0C00080F03C0700FF0200810F0400847B
:100A0000070C07010300820F00810002C00640822C
:100A1000C080030002FF062083301F0F0200020F78
:100A20000A008100054002C00540070002FF0C00DB
:100A3000020F0600810002C0080002C00200827F8F
:100A4000FF080082FF7F03008303070C0408830C68
:100A500007030200810002E0090002FF810C03028B
:100A60008306FCF80200020F0500020F010081005E
:100A70000260030002FE0300020F02000C0002FEEF
:100A8000810C03028306FCF80200020F0500020F2E
:100A90000100090002FE811803060200020F050092
:100AA000564152312801200500A02D0500A22E0537
:100AB00000A6300500AB310500B1320500B73305A3
:100AC00000BD340500C3350500C9360500D0370523
:100AD00000D7380500DD390500E43A0500EB410692
:100AE00000F0420600F7430600FF440501074505F4
:100AF000010E460501144705011A48050120490564
:100B000001274A05012D4B0601334C05013A4D05DD
:100B100001404E0501464F05014C5005015351055A
:100B2000015A52060161530501685406016F5505CB
:100B300001775606017E570601855806018C590635
:100B400001935A06019A05000320020082008003E7
:100B500000857C92827C00850084FE800085C4A292
:100B6000928C00854482926C0085302824FE20817E
:100B70004E028A827200817C028A8272008502E2C1
:100B80001A0600816C0292826C00818C0292827C37
:100B900000820088030086C03C223CC00081FE0227
:100BA00092816C0200817C02828144020081FE02FB
:100BB00082827C0081FE0392010081FE031201000B
:100BC000857C8292740081FE021082FE0085008284
:100BD000FE8200854080827E0084FE106C820200CE
:100BE00081FE0380010085FE0C300CFE85FE0C307A
:100BF000FE00817C0282827C0081FE0212820C0057
:100C0000817C0282827C0084FE1232CC0200814C04
:100C10000292826400020281FE02020100817E02D1
:100C200080827E0086067880780600861EE018E0C6
:100C30001E0086826C106C820086020CF00C020092
:100C400084C2B28A8602005641523128022009002D
:100C5000A02B0900A22D0900B02E0500B630090016
:100C6000BC310900D1320900E1330900F434090133
:100C7000083509011D3609012F37090142380901DC
:100C800052390901633A090176410A018043090199
:100C900098440901AD450901BF460901CD47090145
:100CA000DA480901EF490901FF4B09020F4C09021B
:100CB000234D0A022D4E0902454F09025B500902DD
:100CC000705209028053090292540902A555090283
:100CD000B15A0902C2610A02D5680902EA69090229
:100CE000FC6D09030C6E090322780903341200031A
:100CF0000002E004000303021F030301000B0004D1
:100D000003030006000230020083E0F038029887F7
:100D100038F0E0000F1F38023184381F0F000260E6
:100D2000813002F804000330023F0330010002303A
:100D300003188A98F07000383C36323331023001A3
:100D40000002308118039883F87000021881300384
:100D500031831F0E00020083C0E03802F8020083D6
:100D60000E0F0D020C023F820C0002F804D881988D
:100D70000200820919033084391F0F0083E0F03824
:100D8000039886383000071F390331831F0F000492
:100D9000188498D87838030084383E07010300820D
:100DA00070F8049885F870001E1F0431831F1E0020
:100DB00082E0F003188638F0E000183903338439F4
:100DC0001F070003000260070002300400020082D7
:100DD00080F0023882F080020084203C1F07020667
:100DE00084071F3C2083E0F03802188738706000C9
:100DF0000F1F38023084381C0C0002F803188438A6
:100E0000F0C000023F033084381F070002F8059845
:100E1000821800023F053182300002F805988218DE
:100E200000023F0501020083E0F0380218883870A4
:100E30006000071F38300233021F010002F80480EF
:100E400002F88100023F0401023F0100031802F88A
:100E5000031881000330023F0330010002F887804D
:100E6000C06030180800023F020385070E383020AA
:100E700002F80700023F0630010002F88578E00022
:100E8000E07802F88100023F850003060700023F78
:100E9000010002F88478E0800002F88100023F84BB
:100EA00000030F3C023F010083E0F038021887384E
:100EB000F0E0000F1F38023084381F0F0002F804E2
:100EC0001883F0E000023F04038101020002F804ED
:100ED0001802F08100023F020385070D393020021D
:100EE000F003988118023083000818033184331FFF
:100EF0001E00031802F803180400023F040002F861
:100F0000040002F883000F1F033084381F0F008194
:100F10000003188AD8F8781800303C3E3731033087
:100F200001008280C0046082E0C00200821E3E0395
:100F300033851B1F3F300002FC81C0036083E0C08B
:100F400000023F0400023F01008100026002EC0445
:100F5000000330023F0330010002E08760E0C06020
:100F6000E0C000023F8100023F8100023F01000219
:100F7000E081C0036083E0C000023F0400023F0143
:100F800000832060E0028087E060200020381D029E
:100F900007841D38200056415231090300180024EF
:100FA0000118005F02180087031800AF041800DB67
:100FB0000518010506180129071801530818017FB3
:100FC0008300206002C082E6FC03F802FF03F8827F
:100FD000FCE602C08260200300020C818C10FF81BD
:100FE0008C020C03000201020082190F0307023F6A
:100FF0000307820F19020002010300040084C0608D
:101000003010060884103060C00900833FC0800A99
:10101000008380C03F0A00830103020604830203A9
:10102000010700040082C020021006088410F0E0CE
:10103000C00900833FC080090003FF813F0A00818F
:101040000102020604830203010700040084C06059
:101050003010030803F802F082E0C00900833FC0AB
:1010600080050007FF813F0A008301030203040398
:1010700007020381010700040085C0603010D80515
:10108000F802F082E0C00900833FC08002000AFF3E
:10109000813F0A008401030206050702038101075C
:1010A00000040082C0E002F006F802F082E0C0090D
:1010B00000813F0EFF813F0A008101020306070203
:1010C0000381010700040082C0E002F005F885D822
:1010D000103060C00900813F0AFF02008380C03FDA
:1010E0000A008101020305078406020301070004C8
:1010F0000082C0E002F003F8030884103060C009E9
:1011000000813F07FF05008380C03F0A0081010284
:101110000303070304830203010700040082C0E005
:101120000210060884103060C00900813F02FF8170
:101130000C09008380E03F0A008301030205048458
:10114000060203010700564152310903001800242A
:10115000011800690218008D031800B6041800E297
:101160000518010F061801370718016408180190C7
:101170008300206002C083663C180208020F020848
:1011800083183C6602C08260200300020C848CFF3E
:10119000C0800A008480C0FF8C020C0300020102A0
:1011A0000083190F060204023C020483060F190291
:1011B0000002010300040082C0E002F006F802F021
:1011C00082E0C00900813F0EFF813F0A00810102D9
:1011D00003060702038101070003008380C0E002C9
:1011E000F006F884F03060C00800820C7F0BFF84AA
:1011F0000080C03F0A00810102030607020381014B
:101200000700040082C0E002F004F80208841030F5
:1012100060C00900813F08FF04008380C03F0A00CE
:101220008101020304070204830203010700040092
:1012300082C0E002F082F838040884103060C009EF
:1012400000813F05FF07008380C03F0A0081010243
:101250000302070404830203010700040084C06042
:101260003010060884103060C00900833FC0800A37
:10127000008380C03F0A0083010302060483020347
:10128000010700040084C060301004088238F802AE
:10129000F082E0C00900833FC080070005FF813F66
:1012A0000A0083010302040402070203810107000C
:1012B000040084C0603010020804F802F082E0C02C
:1012C0000900833FC080040008FF813F0A008301BA
:1012D000030202040407020381010700040082C024
:1012E0006002F006F802F082E0C00900833FC0808F
:1012F0000CFF813F0A0081010203060702038101FE
:1013000007000000000000400000000080660000B0
:101310000000000040000000106600000000000017
:101320002000000080660000000000004000000077
:101330001066000000000000200000000000000017
:101340000000000000000000140800000000010A76
:101350000A000A0A0001000000000000000000006E
:10136000000000000000000000000000000000007D
:10137000000000000000000000000000000000006D
:10138000140800010000010000000000000100003E
:10139000000000000000000000000000444444443D
:1013A0004444000000221741003236004000000093
:1013B000000000000000008080000000000000002D
:1013C000000000404000000000000000000000009D
:1013D000800000000000000000000000000000008D
:1013E000000000000000000A0000000000020100F0
:1013F00000000000000100000000000000000000EC
:1014000000000000000000000000000000000000DC
:1014100000000000000000000000000000000000CC
:1014200000000000000000000000000000000000BC
:101430000000000000000000000000222222222202
:1014400022000000221741B0323611241FBECFEF18
:10145000D8E0DEBFCDBF12E0A0E0B1E0E0EBF1E705
:1014600002C005900D92AC30B107D9F726E0ACE090
:10147000B2E001C01D92A638B207E1F70E94481001
:101480000C94D6380C940000A4E0B0E0EAE4FAE052
:101490000C94A9386C017B01E0911402F0911502C3
:1014A0000FEF1FEF309721F060E172E009958C019A
:1014B000F60180819181A281B38140911002509107
:1014C00011026091120270911302840F951FA61FE2
:1014D000B71F1016110684F089839A83AB83BC83EF
:1014E000B701CE0101960E944E0DF70113870287C6
:1014F0002496E8E00C94C538A801012E000C660B78
:10150000770B840F951FA61FB71FE6CF8F929F9270
:10151000AF92BF92CF92DF92EF92FF92CF93DF9381
:10152000CDB7DEB72A970FB6F894DEBF0FBECDBF9A
:1015300089879A87A985BA851696ED91FC917F01D6
:10154000B4E6EB1AF10850E040E0A9F0CF0185566F
:1015500091099C0197FF02C02D5F3F4F359527955C
:10156000359527956CE97FEF0E949733260F371F3B
:10157000A9014F5F5F4F2DE631E0D7010E94FB3399
:1015800069837A838B839C83052E000C660B770B13
:1015900089809A80AB80BC80840E951EA61EB71EE3
:1015A000A985BA8513968C91082E000C990B6C01B5
:1015B000B1E0CB1AD108A985BA8515962C912230B5
:1015C0000CF059C0222321F06C01BEE1CB0ED11CDE
:1015D0000D2C000CEE08FF08C80CD91CEA1CFB1CE3
:1015E000E985FA85A2810A2E000CBB0B20E13EE0C2
:1015F0000E94FB3369837A838B839C83A1810A2EAB
:10160000000CBB0B2CE330E00E94FB33DC01CB0170
:1016100029813A814B815C81820F931FA41FB51FE2
:101620008080082C000C9908AA08BB08880E991E17
:10163000AA1EBB1EA701960160E871E581E090E05B
:101640000E945933DC01CB01880D991DAA1DBB1DD9
:10165000BC01CD012A960FB6F894DEBF0FBECDBFF8
:10166000DF91CF91FF90EF90DF90CF90BF90AF9040
:101670009F908F900895CF018459984F0E94260E15
:10168000282F30E0255C3F4F2C0D3D1DE985FA8564
:101690008581082E000C990B02978530910514F076
:1016A00027563F4F65E070E00E949733AC0197FFEB
:1016B00002C04F5F5F4F559547959DE3949F600132
:1016C000959FD00C1124C20ED31E80FF81CFFFE165
:1016D000CF0ED11C7DCFAAE0B0E0E1E7FBE00C9497
:1016E000A938FC0180819181A281B3819C01AD0167
:1016F000205A3F494A41510929833A834B835C83ED
:10170000CA01B90123E93EEE46E250E00E94AB3344
:10171000DC01CB0189549747A341B1098D839E8396
:10172000AF83B887BC01CD010E94063628E43AEBAE
:101730004BE959E469837A838B839C8369817A813D
:101740008B819C810E945C352BED3FE049E450E4A5
:1017500069837A838B839C8369817A818B819C8165
:101760000E9492368B018A87998769831A838B83BB
:101770009C8369817A818B819C810E94FF366B01F9
:101780007C0169817A818B819C810E9443379B0116
:10179000AC01C982DA82EB82FC8269817A818B8119
:1017A0009C810E9492366B017C016D817E818F81CC
:1017B000988525ED31E340E050E00E94CD33298348
:1017C0003A834B835C83CA01B9010E9406368B01C0
:1017D00089879D8320E030E048E451E4C982DA82C1
:1017E000EB82FC8269817A818B819C810E94923696
:1017F0009B01AC0109831A83B985BB83ED81EC831E
:1018000069817A818B819C810E94EF3469837A831C
:101810008B839C8369817A818B819C810E94CE35E8
:10182000862F2A96E8E00C94C53860931A027093CC
:101830001B0280931C0290931D022093160230938A
:10184000170240931802509319020895462F572FFC
:10185000BC010FB6F89440930C0250930D026093B4
:101860000E0270930F020FBE0895609310027093E2
:10187000110280931202909313020895CF92DF9287
:10188000EF92FF92CF93DF9300D000D00F92CDB7AD
:10189000DEB78D8399830E94E00E6B017C018D8100
:1018A00099810E949C0C22E030E040E050E00E94D0
:1018B000CD33D701C601821B930BA40BB50BBC0122
:1018C000CD010F900F900F900F900F90DF91CF915F
:1018D000FF90EF90DF90CF900895CF92DF92EF923C
:1018E000FF92CF93DF9300D000D00F92CDB7DEB739
:1018F0008D8399830E94E00E6B017C018D8199811B
:101900000E949C0C22E030E040E050E00E94CD3389
:10191000DA01C9018C0D9D1DAE1DBF1DBC01CD019D
:101920000F900F900F900F900F90DF91CF91FF903D
:10193000EF90DF90CF900895A6E0B0E0E2EAFCE0FF
:101940000C94A9387C0160911A0270911B0280915D
:101950001C0290911D020E94063624E33EE649E4F3
:1019600058E469837A838B839C8369817A818B8134
:101970009C810E945C358B018E839D83C7010E94F0
:101980003C0E6B017C0109831A838E818B839D81C0
:101990009C8369817A818B819C810E9439388B017B
:1019A0008E839D83D701C601B05889839A83AB8308
:1019B000BC83BC01CD010E9439389B01AC01098375
:1019C0001A839E819B83AD81AC8369817A818B81EF
:1019D0009C810E9492368B018E839D8320E030E0B3
:1019E00040E85FE369831A838B839C8369817A81F2
:1019F0008B819C810E94EE3718160CF448C020E0C1
:101A000030E040E85FEB69817A818B819C810E94A4
:101A10005C3787FF06C000E010E090E89E83AFEBE4
:101A2000AD8309831A839E819B83AD81AC836981D9
:101A30007A818B819C810E944B3728E433E347E411
:101A400050E469837A838B839C8369817A818B815B
:101A50009C810E945C3520E030EC48EA57E46983C1
:101A60007A838B839C8369817A818B819C810E949C
:101A7000923669837A838B839C8369817A818B8197
:101A80009C810E94CE352696E8E00C94C53800E093
:101A900010E0B0E8BE838FE38D83C3CFA0E1B0E058
:101AA000E4E5FDE00C94A9387B01DC012D913D912A
:101AB0004D915C91CA01B90120E831E541E050E067
:101AC0000E94AB3329873A874B875C876D877E8777
:101AD0008F87988B2CE330E040E050E00E94CD33BC
:101AE00029833A834B835C83F70160836CE370E066
:101AF00089819A810E949733D70111968C9311970F
:101B000012966C9389859A85069667E070E00E942C
:101B10008333F70184832DEA3EE840E050E0698595
:101B20007A858B859C850E94CD3329833A836D838A
:101B30007E838F83988789819A8124E6289F8001FC
:101B4000299F100D11242D813E814F8158852987B1
:101B50003A874B875C8725EB35E040E050E06985AC
:101B60007A858B859C850E94CD3329833A836D834A
:101B70007E83C980DA80CC0CDD1CCC0CDD1CC00E51
:101B8000D11E8D819E8135E6C316D104D8F1019610
:101B900021E030E04CE651E02115310511F04DE631
:101BA00051E04817590750F46DE671E0821B930B22
:101BB0000E949733C60ED71E30E020E0A4E6CA0E7E
:101BC000D11CF701D782C68291878087255C3F4F61
:101BD0008217930700F56FE170E00E9497338B0145
:101BE000282F862F922FD70115968C9315971B9629
:101BF0001C921E921A979F5F13969C936096E8E042
:101C00000C94C53841E054E6C516D10409F440E00F
:101C1000242F30E0BFCF69E970E0821B930B0E9454
:101C20009733D62EDD0CDD0CD60E6DE370E00E94EE
:101C30009733C62ECC0C6FE170E00E9497338B0176
:101C4000282F82E0800F8D0D8C0DCCCF9C0123704E
:101C50003327232B69F464E670E00E949733462F04
:101C6000572F892B39F44370552781E0452B19F004
:101C700080E0089581E00895A9E0B0E0E2E4FEE0AC
:101C80000C94A938DC012D913D914D915C912D83EF
:101C90003E834F835887CA01B90121E23BE841EEF8
:101CA00051E00E94AB339B01AC01205536424242C9
:101CB0005E4F29833A834B835C83CA01B9010E943A
:101CC000043621EB37E449E95AE469837A838B834C
:101CD0009C8369817A818B819C810E945C356983B8
:101CE0007A838B839C8369817A818B819C810E941A
:101CF00043376B017C016D817E818F8198852DE357
:101D000035E841EE51E00E94AB33DC01CB01885451
:101D1000974AA24FBF4F89839A83AB83BC83BC0190
:101D2000CD010E94043621ED35E449E95AE4698386
:101D30007A838B839C8369817A818B819C810E94C9
:101D40005C358B0189879D832FED33EE48E05DE3A1
:101D5000C982DA82EB82FC8269817A818B819C81E3
:101D60000E949236980149855D8169837A838B83CD
:101D70009C8369817A818B819C810E94F034698384
:101D80007A838B839C8369817A818B819C810E9479
:101D9000FF362CE336E741ED5EE369837A838B837C
:101DA0009C8369817A818B819C810E9492369B0100
:101DB000AC015058CA01B9012996E8E00C94C53825
:101DC000CF92DF92EF92FF92CF93DF93CDB7DEB742
:101DD0002A970FB6F894DEBF0FBECDBFFC0120815D
:101DE00031814281538129833A834B835C830E94F2
:101DF000420F9A8789878091160290911702A091CD
:101E00001802B0911902BC01CD012FE030E040E092
:101E100050E00E94CD33C980DA80EB80FC80C21A8A
:101E2000D30AE40AF50A90ECC90E98EAD91EE11C1F
:101E3000F11C69817A818B819C8120E831E541E048
:101E400050E00E94AB33C61AD70AE80AF90A29857E
:101E50003A85C901330FAA0BBB0BA7019601281BBA
:101E6000390B4A0B5B0BCA01B9012A960FB6F894DD
:101E7000DEBF0FBECDBFDF91CF91FF90EF90DF901F
:101E8000CF900895AAE0B0E0E8E4FFE00C94A93810
:101E9000DC012D913D914D915C912D833E834F83CB
:101EA0005887CA01B90121E23BE841EE51E00E94A6
:101EB000AB339B01AC012055364242425E4F298331
:101EC0003A834B835C83CA01B9010E94063621EB39
:101ED00037E449E95AE469837A838B839C83698177
:101EE0007A818B819C810E945C3569837A838B83A4
:101EF0009C8369817A818B819C810E9443378B010D
:101F00008A8799876D817E818F8198852DE335E859
:101F100041EE51E00E94AB33DC01CB01805C9D437C
:101F2000A34FBF4F9C01AD01220F331F441F551F0C
:101F300029833A834B835C83CA01B9010E94063628
:101F400021ED35E449E95AE469837A838B839C83E4
:101F500069817A818B819C810E945C356B017C0157
:101F60002FED33EE48E05DE309831A838A858B8386
:101F700099859C8369817A818B819C810E949236AC
:101F80009601A70169837A838B839C8369817A8117
:101F90008B819C810E94F03469837A838B839C833C
:101FA00069817A818B819C810E9443372DEC3CE0D2
:101FB00044E154E469837A838B839C8369817A81C9
:101FC0008B819C810E9492366B017C012DEC3CEC54
:101FD00045EE53E409831A83AA85AB83B985BC8394
:101FE00069817A818B819C810E9492369B01AC0130
:101FF000C982DA82EB82FC8269817A818B819C8141
:102000000E94F03469837A838B839C8369817A810F
:102010008B819C810E94CE35CB0191958195910950
:102020002A96E8E00C94C538809184009091850050
:10203000892F0895AF92BF92CF92DF92EF92FF92D5
:102040000F931F935D9A8FE99FE00197F1F700C00E
:1020500000005D98B12CA12CD12CC12CF12CE12CCD
:1020600001E010E021E030E050E040E070E060E0AE
:102070008AE090E00E947E2183E292E01F910F911E
:10208000FF90EF90DF90CF90BF90AF900C94A1198C
:10209000CDB7DEB761970FB6F894DEBF0FBECDBFE8
:1020A00010921E0280E096E5A2E6B9E28093230238
:1020B00090932402A0932502B093260280912302DC
:1020C00090912402A0912502B0912602BC01CD017D
:1020D0000E94260C10921F0280E292E00E94551886
:1020E000A09120020A2E000CBB0B20E13EE00E94D2
:1020F000FB336E877F87888B998B0E94350C88B164
:102100008F6088B98BB186608BB984E190E10E94C1
:102110009B110E942A2C0E946B15559A9FEFA3ECED
:10212000B9E09150A040B040E1F700C00000C0907D
:102130002302D0902402E0902502F09026020E9413
:10214000AE11982F81E0911180E0B701A6010E94A5
:102150004B1987E292E00E94CB2F84E294EF909398
:1021600089008093880082E080936F008CE08093E8
:10217000810078940E944E15F894C0902302D0906C
:102180002402E0902502F0902602789433243394C0
:102190000E941A10F8948090230290902402A0903C
:1021A0002502B09026027894C814D904EA04FB04EE
:1021B00008F087C0240135014C185D086E087F08BF
:1021C0000E94CA1B082F0E94B511182FECE34E166F
:1021D00051046104710458F48C149D04AE04BF04CE
:1021E00030F480911F02081302C0112389F20E946B
:1021F000B81180911E02882309F46AC020E232E0FF
:10220000B501A401812F0E940F1E80931E0210E0D1
:1022100080911E02811130C00E94D91B7C018986E9
:102220009A86AB86BC860E94CA1B8D87113059F4F2
:10223000D7015E968D919C91019709F457C081E07A
:1022400090E00E94DC1B0E946B159E012F5F3F4FA8
:10225000AE014D5F5F4FBE01695F7F4F87E292E045
:102260000E947E304AE150E160E272E0CE010196C8
:102270000E9471150E94601575016401BCE3CB0ECC
:10228000D11CE11CF11CC701B6012CE330E040E099
:1022900050E00E94AB336E877F87888B998B8E8549
:1022A00081508A3340F48E859F85A889B989C81AE0
:1022B000D90AEA0AFB0A002309F46ACF00931F0235
:1022C00067CF26013701481859086A087B0878CF7C
:1022D000123009F09DCF30921E020E946B1540E231
:1022E00052E0C501B4010E94151E92CF82E0A8CF32
:1022F0001F921FB61F9211248F939F93AF93BF938A
:102300008091230290912402A0912502B09126028F
:102310000196A11DB11D8093230290932402A093E6
:102320002502B0932602BF91AF919F918F911F908C
:102330001FBE1F90189590933B0280933A02109213
:102340003E0210923D0210923C025B9A5C9A84E03D
:102350008093680088E180936D00089589B183FBC4
:10236000882780F991E08927089580913C0208959B
:1023700010923C0208951F920F920FB60F921124F3
:102380002F933F934F935F936F937F938F939F937D
:10239000AF93BF93EF93FF93E0913A02F0913B022A
:1023A000099590E020913D0230913E0282179307FB
:1023B00048F020913D0230913E02275E3F4F2817A2
:1023C0003907F8F490933E0280933D024B9905C083
:1023D00080913C02816080933C024C9905C08091C1
:1023E0003C02826080933C0280913C02882349F049
:1023F00080913D0290913E02992790933E028093F6
:102400003D02FF91EF91BF91AF919F918F917F918D
:102410006F915F914F913F912F910F900FBE0F9051
:102420001F9018950F93CF93DF93792FD62FC42F3A
:10243000042F282F392F462F682F8CE492E00E941A
:10244000E12A8CE492E00E947B2BCF5FDC1307C073
:102450008CE492E0DF91CF910F910C94452C6FEFBB
:102460008CE492E00E948D2BDF5FF0CFCF93DF935F
:102470000F92CDB7DEB7898341E0BE016F5F7F4F1A
:1024800084E492E00E946F2C0F90DF91CF91089529
:10249000FC014191BF0184E492E00C946F2C2F92D7
:1024A0003F924F925F926F927F928F929F92AF92E4
:1024B000BF92CF92DF92EF92FF920F931F93CF9331
:1024C000DF93CDB7DEB728970FB6F894DEBF0FBE07
:1024D000CDBF4B015C01D42E58872F830E83B7FEEE
:1024E00081C0822F81508F8388279927DC0188192A
:1024F0009909AA09BB0989839A83AB83BC83698143
:102500007A818B819C8124E630E040E050E00E949B
:10251000CD331901C42E052F6D8329833A824B8355
:102520005C838AE0482E512C612C712C9F81915044
:102530009F8389819A81AB81BC810A97A105B105EE
:1025400008F055C0E0924402F0924502AF81A130FC
:1025500009F45AC0A3300CF057C0BE81B0934402B6
:1025600010934502B7FE03C08DE20E94361249E780
:1025700056E0B1018C2D902F0E94D62D0E9448125A
:102580008F81823069F48EE20E9436128D816AE07A
:102590000E94693369E776E00E94902D0E944812FC
:1025A000E0924402F09245026D2D788584E492E039
:1025B00028960FB6F894DEBF0FBECDBFDF91CF9146
:1025C0001F910F91FF90EF90DF90CF90BF90AF9051
:1025D0009F908F907F906F905F904F903F902F9043
:1025E0000C94862D89829A82AB82BC8288CF6981C5
:1025F0007A818B819C81A30192010E94AB33298354
:102600003A834B835C8392CF80E20E9436129F8193
:1026100091509F839BCFCF93C82F8A3018F480E3CB
:102620000E94361269E776E08C2F0E94902DCF91A0
:102630000C944812CF93C82F8D3070F0CC50CA3014
:1026400018F480E20E94361269E776E08C2F0E942F
:10265000902DCF910C9448128111F1CFCCE0F4CFA2
:102660000F93CF93DF93D62FC22F21ED30E030931D
:1026700049022093480224E337E030934502209337
:102680004402442351F10E940B1386EC98E090938E
:102690004502809344028AE30E94361284E397E065
:1026A00090934502809344028D2F0E940B138EE07D
:1026B00091E0909349028093480286E491E10023DF
:1026C00011F086E99FE090934502809344028C2F9D
:1026D000DF91CF910F910C9436120E941A13D5CF2F
:1026E000CF92DF92EF92FF920F931F93CF93DF93DE
:1026F00000D000D000D0CDB7DEB76B017C010E94C6
:10270000D91B8D839E83AD81BE815E968D919C91F8
:102710005F970097C9F418968D919D910D90BC918B
:10272000A02D892B8A2B8B2B89F026960FB6F89437
:10273000DEBF0FBECDBFDF91CF911F910F91FF90F4
:10274000EF90DF90CF900895019779F380EA9AE0B7
:1027500090934502809344028AE080934A0210924B
:10276000490210924802ED81FE8180819181A2810F
:10277000B381C816D906EA06FB0608F465C18601CE
:10278000081B190B6CE071E084E492E00E94862D36
:10279000980150E040E029833A834B835C8349E70A
:1027A00056E069817A818B819C810E94D62D0E949E
:1027B000481280914A028F5F80934A021092490228
:1027C00010924802ED81FE8184819581A681B781B6
:1027D000892B8A2B8B2B01F164E271E084E492E077
:1027E0000E94862DED81FE8184819581A681B7812D
:1027F000A7019601281B390B4A0B5B0B29833A83EF
:102800004B835C8349E756E069817A818B819C81A7
:102810000E94D62D0E944812ED81FE81808591850F
:10282000A285B385892B8A2B8B2B09F430C16EE2EC
:1028300071E084E492E00E94862DED81FE81808526
:102840009185A285B385A7019601281B390B4A0BF8
:102850005B0B29833A834B835C8349E756E06981AC
:102860007A818B819C810E94D62D0E944812809192
:102870004A028F5F80934A021092490210924802E6
:1028800067E471E084E492E00E94862D69E776E0D7
:10289000AD81BE815A968D919C910E94AF2D0E9470
:1028A000481262E571E084E492E00E94862D69E7B7
:1028B00076E0ED81FE81848D958D0E94AF2D0E9482
:1028C000481280914A028F5F80934A021092490217
:1028D000109248026DE571E084E492E00E94862D3A
:1028E000F12CE12CED81FE8184859585A685B78547
:1028F000A7019801280F391F4A1F5B1F29833A83BC
:102900004B835C8349E756E069817A818B819C81A6
:102910000E94D62D0E94481268E671E084E492E09D
:102920000E94862DAD81BE8158968D919C9169E75C
:1029300076E0800F911F0E94AF2D0E944812ED811A
:10294000FE81828D938D892B81F180914A028F5F68
:1029500080934A02109249021092480260E771E0A7
:1029600084E492E00E94862DED81FE818485958528
:10297000A685B785A7019801280F391F4A1F5B1F3D
:1029800029833A834B835C83228D338D50E040E072
:1029900069817A818B819C810E94AB3369E776E003
:1029A000C9010E94AF2D0E94481280914A028F5F98
:1029B00080934A0210924902109248026BE771E03C
:1029C00084E492E00E94862DAD81BE8150968D9167
:1029D0009D910D90BC91A02D89839A83AB83BC837C
:1029E00049E756E0BC01CD010E94D62D0E94481255
:1029F00066E871E084E492E00E94862DF894AD814F
:102A0000BE8154962D913D914D915C9157972983AC
:102A10003A834B835C83789449E756E069817A81F5
:102A20008B819C810E94D62D26960FB6F894DEBF2E
:102A30000FBECDBFDF91CF911F910F91FF90EF900F
:102A4000DF90CF900C94481269E171E084E492E049
:102A50000E94862DED81FE8180819181A281B381CA
:102A60009C01AD012C193D094E095F0929833A8368
:102A70004B835C8349E756E069817A818B819C8135
:102A80000E94D62D0E94481210E000E092CE6BE327
:102A900071E084E492E00E94862DE9CE1092430218
:102AA0008CE492E00E944D294CE452E062ED70E02B
:102AB00084E492E00E94482C8CE492E00C94401E46
:102AC000239825982298219820982B982D982A9819
:102AD000299828980895239A259A229A219A209A2B
:102AE00008952F923F924F925F926F927F928F92B2
:102AF0009F92AF92BF92CF92DF92EF92FF920F938D
:102B00001F93CF93DF93CDB7DEB7E7970FB6F89457
:102B1000DEBF0FBECDBF1C017B014DA75EA780911C
:102B20005702DB0111969C9192FF8FC284608093C3
:102B300057028CE492E00E94F32A60E08CE492E079
:102B40000E949A2BD10112962D913D914D915C914D
:102B500015972DA33EA34FA358A71C96DC901C9756
:102B600018968D919D910D90BC91A02D89A39AA34B
:102B7000ABA3BCA3BE01635F7F4FCE0181960E94D1
:102B8000440A0E945E1E811162C206E910E06DA136
:102B90007EA18FA198A50E946D1E01501109B9F761
:102BA000F70111811170DD2009F464C080914302A6
:102BB000882339F08F8581115DC08E85813009F0C1
:102BC00059C089A19AA1ABA1BCA18D8F9E8FAF8F57
:102BD000B8A3CE014D960E943E0C698F7A8F8B8FE1
:102BE0009C8FBE016F5F7F4FCE0149960E94440AC1
:102BF0008B81809343028A8180934202CE014D965D
:102C00000E946D0C698F7A8F8B8F9C8FBE016F5FD6
:102C10007F4FCE0149960E94440A8B8180934102E6
:102C20008A818093400289A19AA1ABA1BCA189832A
:102C30009A83AB83BC83CE0101960E946B0B8A3AC8
:102C40000CF41EC2823C0CF40FC28B3D0CF40EC27D
:102C5000843F0CF40DC28E300CF40CC287320CF49D
:102C60000BC281340CF40AC288350CF009C284E02E
:102C700080933F0282ED90E090934502809344025E
:102C800010924A0290E080E0112311F08CE090E075
:102C900090934902809348028F85112309F4F2C171
:102CA0000E940B138AE30E9436128E850E940B133A
:102CB000111119C086EC98E090934502809344026C
:102CC00087E080934A028DEA90E0909349028093D6
:102CD00048028F858C300CF0D8C181E40E943612F6
:102CE0008DE40E94361249E060E08DEC90E00E9495
:102CF000121210924A0281ED90E090934902809363
:102D00004802D70111962C918B899C8964E670E06A
:102D10000E949733082F1A891F5F44E357E05093AE
:102D2000450240934402B22FB270DB2E21FF812F67
:102D30000E940B1386EC98E0909345028093440226
:102D40008FE20E94361284E397E0909345028093CD
:102D50004402D11001C01889812F0E940B1386EC08
:102D600098E090934502809344028FE20E943612CD
:102D700084E397E09093450280934402D110088940
:102D8000802F0E940B13F1018485882309F1D7015C
:102D900011961C91B12FB170DB2E147083E08093DB
:102DA0004A02012F30E020E04B2F609142028091D7
:102DB00043020E94301386E080934A0220913F0232
:102DC00030E04D2D60914002809141020E9430130D
:102DD000F101C680D78082809380A480B580208155
:102DE000318139AB28ABD70111968C9182708FA7B6
:102DF0000E94AD1E6DA37EA38FA398A70E94901E74
:102E00002B013C012DA13EA14FA158A5821693068E
:102E1000A406B50608F43BC1481459046A047B04AF
:102E200010F424013501D301C2012DA13EA14FA10F
:102E300058A5821B930BA40BB50B8CAB9DABAEAB13
:102E4000BFAB3FA531113EC029E030E0D6010E9462
:102E5000FB3325E030E040E050E00E94AB336901F5
:102E600080E8C81A83EFD80AA8EEB3E02DA13EA1EE
:102E70004FA158A50E94023418E4E12E14E8F12E67
:102E800000E010E0A80197010E94AB332DA33EA300
:102E90004FA358A7A8EEB3E0A30192010E94023409
:102EA000A80197010E94AB3329013A01A8EEB3E0D3
:102EB000A50194010E940234A80197010E94AB333E
:102EC00049015A018AE080934A0289EE90E090938A
:102ED0004902809348029FA549EA51E0911102C03E
:102EE0004EE851E0C601DD0CAA0BBB0B89A79AA7DF
:102EF000ABA7BCA726ECE22E28E0F22E04E317E0F5
:102F000024E0BC01CD010E944F128DE080934A0263
:102F100089EE90E0909349028093480248A959A90C
:102F20009A0150E040E028AB39AB4AAB5BAB22E002
:102F300049E951E068A979A98AA99BA90E944F1281
:102F40004FE06AE086EE90E00E9412128CE08093DF
:102F50004A028AE990E090934902809348025FA573
:102F6000552309F499C044E951E087E4E82E8CE048
:102F7000F82E870124E0C501B4010E944F128AE0B7
:102F800080934A029AE9C92ED12CD0924902C0926C
:102F9000480224E04DE951E0C301B2010E944F1202
:102FA0008EE080934A02D0924902C092480224E007
:102FB00042EA51E06DA17EA18FA198A50E944F1217
:102FC0008CA99DA9AEA9BFA98897A105B10510F04C
:102FD0000E94CA1ED10118962D913D914D915C9190
:102FE0001B972DA33EA34FA358A7CA01B9010E9466
:102FF00070138CE492E00E94D32BEDA5FEA50995F9
:10300000EDA5FEA509958CE492E00E94022963E0FB
:1030100070E08CE492E0E7960FB6F894DEBF0FBE46
:10302000CDBFDF91CF911F910F91FF90EF90DF9077
:10303000CF90BF90AF909F908F907F906F905F9058
:103040004F903F902F900C94D62B8B7F70CD8E8518
:103050006AE00E9475339111A3CD6DA17EA18FA16D
:1030600098A50E946D1E9CCD88E002CE87E000CE20
:1030700086E0FECD81E0FCCD82E0FACD83E0F8CDA4
:1030800085E0F6CD0E941A130DCE80E527CE8DA2E5
:103090009EA2AFA2B8A6C7CE40E951E066CF8CE4AD
:1030A00092E00895109243020895CF93DF93EC01CC
:1030B00043E050E070E060E00E946D3888819981C3
:1030C00040E1949F9001112428273A81321305C0D2
:1030D000845F8B3110F4983010F018821982DF91E0
:1030E000CF910895FC01218180E1289F9001112456
:1030F00080818227828343E050E070E060E0CF016E
:103100000C947D38CF93DF930F92CDB7DEB7198241
:10311000CE0101960E94031F811104C00F90DF9120
:10312000CF91089580916C0290916D02A0916E02F2
:10313000B0916F020196A11DB11D80936C02909316
:103140006D02A0936E02B0936F02698188E792E0EE
:103150000E94E323DDCF8BB186FB882780F9089599
:103160000F931F93CF93DF938B01D82FC92F0E940A
:10317000AB18811122C088E792E00E94CE2382E83A
:1031800098E10E94E01E5E9A009358021093590243
:10319000D0935A02C0935B028091720290917302A5
:1031A0000196909373028093720200935C021093D5
:1031B0005D02D0935E02C0935F02DF91CF911F91B9
:1031C0000F910895CF92DF92EF92FF92CF93DF930A
:1031D00000D000D0CDB7DEB76B017C010E94AB18E8
:1031E0008823C9F10E94F51E8091580290915902DE
:1031F0009601281B390BC90130937102209370028C
:10320000409164025091650260916602709167027C
:10321000420F531F611D711D40936402509365025C
:10322000609366027093670220917202309173027C
:1032300022303105D8F430E8C30E31E5D31E31E039
:10324000E31EF11CC0925802D0925902E0925A0239
:10325000F0925B025E980F900F900F900F90DF91AD
:10326000CF91FF90EF90DF90CF90089560EB74E0E6
:103270000E948333DB01119620E831E541E050E004
:103280000E94023469837A838B839C83C60ED71E87
:10329000E81EF91ED7CFCF93DF9300D000D00F9256
:1032A000CDB7DEB78D8349835A836B837C831092BD
:1032B000600210926102109262021092630288E72B
:1032C00092E00E94CE2382E898E10E94E01E5E9880
:1032D000569A8D818823B9F089819A81AB81BC810E
:1032E00080935C0290935D02A0935E02B0935F02B4
:1032F000BC01CD010F900F900F900F900F90DF91B8
:10330000CF910C94B01869817A818B819C810E9445
:10331000E21889819A81AB81BC818C579C4FAF4F59
:10332000BF4F8093580290935902A0935A02B093D2
:103330005B020F900F900F900F900F90DF91CF9145
:1033400008952F923F924F925F926F927F928F9249
:103350009F92AF92BF92CF92DF92EF92FF920F9324
:103360001F93CF93DF93CDB7DEB7A8970FB6F8942E
:10337000DEBF0FBECDBF8F8F98A3F894AF8DB8A1DD
:103380002D913D914D915C912B8F3C8F4D8F5E8F98
:1033900078940E94AB18882309F4CFC1FE013D96B2
:1033A000FE8BED8B1E01F3E12F0E311C4E012FE041
:1033B000820E911C5E013EE0A30EB11C80917C0444
:1033C000811151C0C0905802D0905902E0905A0229
:1033D000F0905B02D701C601885A9D4FAF4FBF4F97
:1033E0002B8D3C8D4D8D5E8D82179307A407B507FD
:1033F00008F08AC10E94AB18882309F485C1809126
:1034000074029091750201969093750280937402F4
:103410008091600290916102A0916202B09163027A
:10342000892B8A2B8B2B09F447C16B8D7C8D8D8D5D
:103430009E8DA8960FB6F894DEBF0FBECDBFDF916C
:10344000CF911F910F91FF90EF90DF90CF90BF90A1
:10345000AF909F908F907F906F905F904F903F9034
:103460002F900C94E2188091680290916902A091CB
:103470006A02B0916B020196A11DB11D8093680292
:1034800090936902A0936A02B0936B0267EA71E0BD
:1034900088E792E00E942424882309F403C11C8653
:1034A0001B8610927E0410927D049E012F5F3F4F79
:1034B000AE014E5F5F4FBE016D5F7F4F88E792E0C8
:1034C0000E9469279E012C5E3F4FAE014A5F5F4F0D
:1034D000BE016C5F7F4F88E792E00E94CD278E810E
:1034E00081508E838C8990E08C599F4F98878F8371
:1034F00080917D0490917E04892B09F0D3C0F894CB
:10350000AF8DB8A14D905D906D907C907894CE0178
:1035100001960E94860A6B017C014C145D046E04C6
:103520007F0408F0C4C0AC019B0124193509460989
:10353000570929013A013DE343165104610471041E
:1035400040F0C0925802D0925902E0925A02F09292
:103550005B02F894AF8DB8A1CD92DD92ED92FC9212
:103560001397789481019401A501BE01635F7F4F99
:1035700088E792E00E94B6272D8530E0A0E1BEE00A
:103580000E94EC336F8B788F898F9A8F2E8530E075
:10359000ACE3B0E00E94EC3369A37AA38BA39CA3B5
:1035A0004F88588C698C7A8C460E571E681E791E7F
:1035B0006F85788989899A890E94CE359B01AC01F3
:1035C000240D351D461D571D2F8B388F498F5A8F5F
:1035D0008B898B7F6D897E899401A501833579F470
:1035E0008F89988DA98DBA8DB095A095909581956C
:1035F0009F4FAF4FBF4F8F8B988FA98FBA8F88E7A0
:1036000092E00E94BD272D8530E0A0E1BEE00E943F
:10361000EC3369A37AA38BA39CA32E8530E0ACE3A3
:10362000B0E00E94EC336DA37EA38FA398A749A0BE
:103630005AA06BA07CA0460E571E681E791E6F858F
:10364000788989899A890E94CE3569A37AA38BA348
:103650009CA39B01AC01240D351D461D571D8B8974
:103660008B7F833539F450954095309521953F4FA8
:103670004F4F5F4F80917D0490917E04892B91F490
:103680006F89788D898D9A8D0E94150CC092600289
:10369000D0926102E0926202F0926302C701B60129
:1036A0000E94E21888E792E00E94D82487CE4C1846
:1036B0005D086E087F083FCF2B8D3C8D2C193D098E
:1036C00030937102209370028091640290916502A0
:1036D000A0916602B0916702820F931FA11DB11DD8
:1036E0008093640290936502A0936602B093670290
:1036F0008B8D9C8DAD8DBE8D809358029093590219
:10370000A0935A02B0935B02A8960FB6F894DEBF5E
:103710000FBECDBFDF91CF911F910F91FF90EF9022
:10372000DF90CF90BF90AF909F908F907F906F90E1
:103730005F904F903F902F90089580915802909104
:103740005902A0915A02B0915B022B8D3C8D4D8D98
:103750005E8D281739074A075B07B0F2CA01B90125
:10376000A8960FB6F894DEBF0FBECDBFDF91CF9104
:103770001F910F91FF90EF90DF90CF90BF90AF908F
:103780009F908F907F906F905F904F903F902F9081
:103790000C94B01881E040916002509161026091F8
:1037A000620270916302452B462B472B09F480E09F
:1037B000089588E592E008959093770280937602C9
:1037C0000895FB01882321F0818192E0892781837C
:1037D000818168EB71E081FF02C06BEA71E082E8F1
:1037E00094E00C94862DFB01882321F0818191E0E7
:1037F0008927818381816FEC71E080FF02C066ECD4
:1038000071E082E894E00C94862D68ED71E082E826
:1038100094E00C94862DCF93DF93EB01998188235C
:10382000C9F084E0982799830E944F18FC01998180
:10383000838592FF05C08460838761EE71E004C0D8
:103840008B7F83876BEE71E082E894E0DF91CF910C
:103850000C94862D92FDF1CFF5CFCF93DF9300D05E
:1038600000D0CDB7DEB7FB01882391F0A081A53F42
:10387000DCF0A150A0830A2E000CBB0B20E13EE03F
:103880000E94FB3369837A838B839C830E94350C6F
:1038900066EF71E082E894E00F900F900F900F9028
:1038A000DF91CF910C94862DAEE0E4CFCF93DF93E0
:1038B00000D000D0CDB7DEB7FB01882391F0A08106
:1038C000AE30DCF4AF5FA0830A2E000CBB0B20E10E
:1038D0003EE00E94FB3369837A838B839C830E9442
:1038E000350C61E072E082E894E00F900F900F9049
:1038F0000F90DF91CF910C94862DA4EFE4CF1F930E
:10390000CF93DF930F92CDB7DEB7182F8A3050F4E4
:1039100080E3898341E0BE016F5F7F4F82E894E0DE
:103920000E946F2C69E776E0812F0E94902DFC01A8
:103930004191BF0182E894E00F90DF91CF911F91F8
:103940000C946F2C0F931F93CF93DF93CDB7DEB7FB
:1039500061970FB6F894DEBF0FBECDBF6E877F872D
:10396000888B998B142FBE016F5F7F4FCE010E960F
:103970000E94440A10928804012F017010FD53C068
:1039800018E00E944F18FC0181819281F9E01F9F8D
:1039900080199109112496958795909387048093B7
:1039A0008604002309F441C08B810E947F1C8AE3B6
:1039B0008D8741E0BE01635F7F4F82E894E00E9403
:1039C0006F2C8A810E947F1C011122C080E28D87AA
:1039D00041E0BE01635F7F4F82E894E00E946F2C5C
:1039E0008B818C300CF042C081E48D8741E0BE01B8
:1039F000635F7F4F82E894E00E946F2C8DE48D8797
:103A000041E0BE01635F7F4F82E894E00E946F2C2B
:103A100061960FB6F894DEBF0FBECDBFDF91CF9198
:103A20001F910F91089515E0ACCF1B811D30D0F090
:103A30001C501A3050F480E28D8741E0BE01635F74
:103A40007F4F82E894E00E946F2C69E776E0812F37
:103A50000E94902DFC014191BF0182E894E00E94F8
:103A60006F2CA5CF1111E5CF1CE0EFCF80E5BDCFC6
:103A7000BF92CF92DF92EF92FF920F931F93CF935B
:103A8000DF93B62EC72ED82E192F7A010E944F1819
:103A9000EC01F70181812B8582FF2AC024602B87EE
:103AA000CE010E94F32A00E097014B2D5C2D6D2D75
:103AB000712F80E00E947A1D8B8580618B87970132
:103AC0004B2D5C2D6D2D712F80E00E947A1D8B8512
:103AD0008F7E8B8770E060E0CE01DF91CF911F91E8
:103AE0000F91FF90EF90DF90CF90BF900C94FC2B44
:103AF0002B7FD5CF5F926F927F928F929F92AF92E2
:103B0000BF92CF92DF92EF92FF920F931F93CF93CA
:103B1000DF93C82F542E652E762E872E790181FFD4
:103B200008C080918A048F5F863008F05CC0809363
:103B30008A040E944F18982E192F01110E94DC2927
:103B400060E0892D912F0E949A2B82E08093880457
:103B5000C17080E0C82E81E0D82ED0E092E3A92E7B
:103B6000B12CB0928704A092860481E090918A04DF
:103B70009D1380E080938904D601ED91FD916D0144
:103B8000C11101C080E0B7010995DF5F8091880411
:103B90008E5F80938804D63021F710928904F70154
:103BA0004181652D762D872D982D0E94A21C002322
:103BB00031F061E070E0892D912F0E94132CC1112A
:103BC00015C0D1E08D2FDF91CF911F910F91FF9004
:103BD000EF90DF90CF90BF90AF909F908F907F90AD
:103BE0006F905F90089510928A04A3CFC7010E943E
:103BF0007218D0918A04D33069F4892D912F0E94D4
:103C0000F32AA701652D762D872D982D0E94381D4A
:103C1000DC2FD8CFD111D5CF0E945218D3CF0F931C
:103C200001E00E947A1D0F910895EF92FF920F9389
:103C30001F93CF93DF938B01D82FC92F7A01109256
:103C40008A040E944F18AC0167E47CE082E894E0AB
:103C50000E94482CA701B8018D2F9C2FDF91CF9196
:103C60001F910F91FF90EF900C94381D66E070E06B
:103C70000E948333892B11F080E0089583E008953A
:103C80000F931F93BC0107EB15E026E046E950E0D7
:103C90008BE596E00E940A2886E39EE190936306F6
:103CA000809362062BE834E040E366E970E08DE43F
:103CB00096E00E94D9201F910F91089580914F06A0
:103CC00090915006892B39F481E090915106911121
:103CD00003C080E0089581E00895CF93DF9300D082
:103CE00000D0CDB7DEB7DC01CB018055934CA109E4
:103CF000B10989839A83AB83BC83BC01CD012AE0DF
:103D000030E040E050E00E94AB33B9018DE496E032
:103D10000F900F900F900F90DF91CF910C94EF20A8
:103D2000CF93DF9300D000D0CDB7DEB720915506FA
:103D300030915606AAE0B0E00E94EC33DC01CB01E2
:103D4000805B9C43AF4FBF4FBC01CD010F900F90E4
:103D50000F900F90DF91CF910895CF93DF9300D014
:103D600000D0CDB7DEB72091530630915406AAE0BB
:103D7000B0E00E94EC33DC01CB01805B9C43AF4F91
:103D8000BF4FBC01CD010F900F900F900F90DF91AE
:103D9000CF91089580914F069091500690936106BF
:103DA000809360064AE070E060E08BE596E00C945A
:103DB0001B28E9E6F0E0808181608083E89A08951D
:103DC000E6E6F6E0918380831382128211861286E2
:103DD00015BC16BC87EF87BDEEE6F0E080818260FF
:103DE000808352985A980C94D91EE898E9E6F0E03E
:103DF00080818E7F8083E09AE6E6F6E0138212826D
:103E0000118612860895DC01E0916F06809170069C
:103E1000E81769F0F0E0EA59F94F83858C938091B7
:103E20006F068F5F877080936F0681E0089580E052
:103E300008950F920FB60F921F9211242F933F9364
:103E40004F935F936F937F938F939F93AF93BF93A2
:103E5000EF93FF93CF93DF93CDB7DEB72597DEBF08
:103E6000CDBF26B52D838091680690916906009795
:103E7000D1F0019781F10F900F900F900F900F905C
:103E8000DF91CF91FF91EF91BF91AF919F918F9172
:103E90007F916F915F914F913F912F911F900F9064
:103EA0000FBE0F90189516BC83E085BD10926C066E
:103EB00010926D0610926E0681E090E04A9B06C05B
:103EC00090936B0680936A0682E090E09093690677
:103ED00080936806D0CF80916E064D81481B550BAC
:103EE000CA010D969C01990F440B550B29833A8307
:103EF0004B835C83CA01B9012AE130E040E050E025
:103F00000E94CD33322F4D8140936E06211107C0A0
:103F100082E090E090936B0680936A06D7CF809101
:103F20006C06820F80936C068A3060F083E090E02C
:103F300090936B0680936A0682E090E09093690606
:103F40008093680649B180916D06942F947042FF6A
:103F50000AC090E0022E02C0959587950A94E2F778
:103F600080936D0688CF869580689F5F3913FBCF5D
:103F7000F7CF1F920F920FB60F9211242F933F93FA
:103F80004F935F936F937F938F939F93AF93BF9361
:103F9000EF93FF9315BC809168069091690610928B
:103FA000690610926806019789F0FF91EF91BF9121
:103FB000AF919F918F917F916F915F914F913F91C1
:103FC0002F910F900FBE0F901F9018958091700643
:103FD000482F50E09A012F5F3F4F27703327909171
:103FE0006F069217130639F485E090E090936B0604
:103FF00080936A06DACF4A9BD8CF20916C0630E0D6
:1040000090916D06293031059CF090936D064A59C8
:10401000594FFA0193878F5F877080937006E09104
:104020006606F0916706309709F4BFCF0995BDCFBA
:10403000969590682F5F3F4FE5CF4F925F926F92BA
:104040007F92AF92BF92CF92DF92EF92FF920F9347
:104050001F93CF93DF9300D000D000D0CDB7DEB751
:104060008D839E838B017A01AD81BE8118964D9020
:104070005C90199716968D919C9184159505F0F496
:10408000481A590AD12CC12C712C612CCE14DF0492
:10409000C9F426960FB6F894DEBF0FBECDBFDF91F0
:1040A000CF911F910F91FF90EF90DF90CF90BF9035
:1040B000AF907F906F905F904F9008954424439409
:1040C000512CE0CFED81FE81A484B584A00EB11EF9
:1040D000C801880F991F0284F385E02DE80FF91FAE
:1040E00020813181AD81BE8116968D919C9117976B
:1040F000281B390B1596AC91B0E00E94EC33698314
:104100007A838B839C83A30192010E94AB33F501D8
:1041100020830F5F1F4FAD81BE818D919C918017D1
:10412000910711F410E000E0BFEFCB1ADB0AAECF2D
:10413000CF93DF93EC01CB012E813F816217730790
:1041400088F57F836E8321E0688579856817790714
:1041500018F49987888721E06A817B81660F771F31
:10416000EA85FB85E60FF71F91838083442349F09E
:104170002223D1F04881598170E060E0CE010E9495
:104180001D208A819B8101969B838A8328813981A6
:104190008217930721F41B821A8281E08C83DF91BE
:1041A000CF91089520E0D0CF6A817B8141E050E03B
:1041B000E5CF0F931F93FC017183608313821282FA
:1041C000148245838FEF9FEF978386831186108635
:1041D00033872287158704871F910F9108950F93C6
:1041E0001F93CF93DF93EC018C81882339F04E81AC
:1041F0005F81888599854817590741F441E0CE01D0
:10420000DF91CF911F910F910C9498202A813B81CF
:10421000220F331FEA85FB85E20FF31F20813181D6
:104220004217530721F411E02617370708F010E072
:1042300082179307B9F521E06817790708F020E0A5
:10424000822F90E0082F41E050E0481B590B1111DC
:1042500040E0CE010E949820112309F448C08FEF5E
:104260009FEF9F838E834881598120E0822F90E0C9
:1042700084179507D0F0002351F0198618864881DD
:10428000598120E0822F90E084179507F8F048814B
:10429000598170E060E0CE01DF91CF911F910F91C5
:1042A0000C941D2090E080E0CDCF880F991FEA8507
:1042B000FB85E80FF91F808191816E817F818617D0
:1042C000970710F49F838E832F5FD0CF880F991F9D
:1042D000EA85FB85E80FF91F8081918168857985E2
:1042E0006817790710F4998788872F5FCBCF011162
:1042F000C4CFDF91CF911F910F910895AF92BF92DC
:10430000CF92DF92EF92FF920F931F93CF93DF93A1
:10431000FC01DB01BA01A901E801870196017501E1
:1043200080E06115710501F58091B100869581707D
:10433000880F880F9091B10090FD82609091B1003C
:104340009091B1009B7F9093B1009091B1009D7FBF
:104350009093B1009091B1009E7F9093B1009091A5
:104360006400906490936400109751F490917A00E7
:104370009F7790937A00909164009160909364008D
:104380004115510529F49091640098609093640060
:10439000209729F490916400906290936400011535
:1043A000110529F4909164009460909364002115A4
:1043B000310529F490916400926090936400E114B7
:1043C000F10429F490916400906890936400EA30BD
:1043D000F10599F098E0E3FD98E2E770E92B98E1A8
:1043E0000FB6F894A895909360000FBEE09360001C
:1043F0009091600090649093600093B7917F93BF19
:10440000F89493B7916093BF7894889593B79E7F03
:1044100093BF7894AB2B51F4909164009E7F90935E
:10442000640090917A00906890937A00672B61F411
:1044300081FF05C08091B10084608093B1008091BC
:1044400064008F7B80936400452B29F48091640085
:10445000877F80936400CD2B29F4809164008F7D49
:1044600080936400012B29F4809164008B7F8093FA
:104470006400232B29F4809164008D7F8093640075
:10448000EF2829F4809164008F7780936400DF9196
:10449000CF911F910F91FF90EF90DF90CF90BF9041
:1044A000AF9008950F920FB60F921F9211248F9321
:1044B0000FB6F894A89580916000886180936000A1
:1044C000109260000FBE8F911F900F900FBE0F9043
:1044D0001895AF92BF92CF92DF92EF92FF920F9317
:1044E0001F93CF93DF939C01DC01A95FBD4F8C919B
:1044F000681730F41C92F901E85FFD4F11821082B9
:10450000E901C85FDD4F89010E5F1D4F7C2FDD2E55
:104510007901FEEFFF1A3CC08F5F8C93472F5D2D12
:1045200088819981F801A080B1808A159B0568F483
:10453000F701A080B180F501E80FF91FF170E20FDB
:10454000F31FC080FDE0CF1217C02B5F3D4F81E00D
:1045500090E0F901918380831C92FA01118210820C
:1045600080E0DF91CF911F910F91FF90EF90DF904E
:10457000CF90BF90AF900895019699838883F801FA
:10458000A080B1808A159B0500F7FCE2CF12C8CF4E
:104590008C91861708F281E0E4CF0F931F93CF939D
:1045A000DF939C01FB0160817181EC01CE5FDD4FE7
:1045B0008C011E5F80819181488159818417950704
:1045C00060F068177907E4F501979183808381E0B3
:1045D000DF91CF911F910F910895D8014D915C917A
:1045E000DA01A80FB91FB170A20FB31F4C9150EDA3
:1045F000540F5A3038F14D3291F064F44A3221F0C0
:104600004C3211F04D3041F48617970779F484E06D
:1046100090E007C04E32C1F382E090E002C083E038
:1046200090E0D901AB5FBD4F8D939C9380819181C8
:10463000285F3D4FD9012D913C918217930721F6B8
:1046400080E0C6CF019691838083B4CF2F923F92B2
:104650004F925F926F927F928F929F92AF92BF9292
:10466000CF92DF92EF92FF920F931F93CF93DF933E
:10467000CDB7DEB72D970FB6F894DEBF0FBECDBF16
:104680007C016B018A01F901309711F4FE0131962A
:10469000812C912C540183941D821E821F821886C6
:1046A00017018EEF381A0C151D052CF480829182AB
:1046B000A282B3823BC0D1018D919C91DC01A00FFD
:1046C000B11FB170AE0DBF1D8C9180538987A82F8B
:1046D000880FBB0BA50194010E940D346A877B876C
:1046E0008C879D872B013C018D819E81AF81B88590
:1046F000480E591E6A1E7B1E81149AEC99069AE98F
:10470000A9069BE3B906D9F5C016D10664F58082E7
:104710009182A282B382F701EB5FFD4F85E090E0CA
:10472000918380831D821E821F8218866D817E8107
:104730008F8198852D960FB6F894DEBF0FBECDBF42
:10474000DF91CF911F910F91FF90EF90DF90CF906D
:10475000BF90AF909F908F907F906F905F904F90A1
:104760003F902F900895A985A5308CF68D819E816C
:10477000AF81B885481659066A067B0640F201509B
:104780001109AAE0B0E0A50194010E9402344B0196
:104790005C014D825E826F82788685CF9C01FC0130
:1047A000FE5F118210823296118210823296108240
:1047B00031961182108232961082285F3D4FF901A6
:1047C000118210820895CF93DF939C01DC01AE5FCC
:1047D000BD4F8D919C9111978115924098F5ED9167
:1047E000FC911197E901DE5F88819981E80FF91F3B
:1047F000F170E20FF31F60836A30C9F48D919C91D0
:1048000011970297A0F0ED91FC9111978881998101
:10481000E80FF91F3197F170E20FF31F80818D309F
:1048200031F4F901EC5FFD4F80818F5F80838D91C2
:104830009C911197019611969C938E9381E0DF9144
:10484000CF91089580E0FBCF0F931F93CF93DF9319
:104850009C018B01EC01CE5FDD4F88819981079728
:1048600040F42B5F3D4F89E090E0D9018D939C93FC
:1048700056C0F901FE5FA081B181B170A20FB31FD4
:104880008C91843249F4A081B1811196B170A20F4C
:10489000B31F8C91873441F02B5F3D4F88E090E04F
:1048A000F901918380833BC0A081B1818081918196
:1048B00002969170820F931F1196B170AD01420F55
:1048C000531FDC018C91DA019C91892793E0492FD9
:1048D00050E0688179814617570770F00990D881B8
:1048E000C02D2297492F50E04C175D0718F12B5F20
:1048F0003D4F87E090E0B9CFA081B181A40FB51FF3
:10490000B170A20FB31F6C91400F511FDA011397C2
:104910004C916A3211F06C3241F44423F9F280E098
:10492000DF91CF911F910F91089586274613F7CFFE
:104930009F5FCDCFA081B181A40FB51FB170A20F31
:10494000B31F6C916D3099F26A3089F26A3259F571
:1049500060817181DA011196A60FB71FB170A20FA5
:10496000B31F6C91982F92959F70803AC0F4905D20
:10497000691310C060817181FA013296E60FF71F4A
:10498000F170E20FF31F90818F708A3050F4805DD8
:10499000981761F02B5F3D4F86E090E081CF995CE6
:1049A000E7CF895CF5CF86279F5F9CCF81E0B8CFAA
:1049B000CF93DF939C01EC01CC5FDD4F888188238E
:1049C00009F1D901BE5FED91FC911197F170E20FF1
:1049D000F31F6081A9014E5F5D4FFA0180819181D3
:1049E000892B11F06A3089F4F8948881815088838A
:1049F0007894F901E95FFD4F1082285F3D4FF9017E
:104A000011821082DF91CF910895F894ED91FC917D
:104A10001197F170E20FF31F6081FA01808191819B
:104A20000197918380838D919C911197019691704C
:104A300011969C938E937894D0CFEF92FF920F9320
:104A40001F93CF93DF9300D0CDB7DEB78C010E94C8
:104A500069228823F9F0F801E85FFD4FE080F180DA
:104A6000FA82E982BE016F5F7F4FC8010E94CD22AA
:104A7000882381F049815A8130E020E0B701C801E4
:104A80000F900F90DF91CF911F910F91FF90EF90BA
:104A90000C94262360E070E0CB010F900F90DF9123
:104AA000CF911F910F91FF90EF9008958F929F9259
:104AB000BF92CF92DF92EF92FF920F931F93CF930B
:104AC000DF93CDB7DEB72C970FB6F894DEBF0FBEDD
:104AD000CDBF8C010E946922882309F4FAC0F80135
:104AE000E85FFD4F8081918198878F8341E050E09E
:104AF00060E070E049835A836B837C83480122E045
:104B0000820E921EF401208131818217930708F0F2
:104B100097C032970190F081E02DE80FF91FF170F6
:104B2000E00FF11F20812D3209F08AC0019698878D
:104B30008F83BB24B394EF80F884F401808191814A
:104B4000E816F90608F07EC0F801FE5F0190F081DA
:104B5000E02DEE0DFF1DF170E00FF11F80818E3210
:104B600009F470C0BE01695F7F4FC8010E94CD2269
:104B7000882309F49AC04F81588530E020E0B701BE
:104B8000C8010E9426236B017C016F817885F401A6
:104B9000808191819B012F5F3F4F01972817390733
:104BA00008F45AC0812C912C00E010E0B601C70136
:104BB0000E9404366B017C01B401C8010E940436D6
:104BC0004B018C0169817A818B819C810E94043622
:104BD0009B01AC0189869A860B871C8769857A853B
:104BE0008B859C850E945C35A7019601BB2009F44A
:104BF00065C0505829873A874B875C879B01AC0179
:104C000069857A858B859C850E94EF3469877A87D0
:104C10008B879C8769857A858B859C852C960FB6BA
:104C2000F894DEBF0FBECDBFDF91CF911F910F91E2
:104C3000FF90EF90DF90CF90BF909F908F9008955E
:104C4000B12C79CFF1E0EF1AF108F886EF82C12C90
:104C5000D12CE12CF12C99CFF801FE5F0190F0816D
:104C6000E02DE20FF31FF170E00FF11F80818E3213
:104C700009F098CF4B01F2E08F0E911C9E828D823D
:104C8000BE016B5F7F4FC8010E94CD22882309F4CB
:104C900089CF4D815E819E012F5F3F4FB401C801D6
:104CA0000E9426234B018C0181CF812C912C00E0A6
:104CB00010E0C12CD12CE12CF12C78CF69877A87B8
:104CC0008B879C8769857A858B859C850E94F034CB
:104CD0009DCF60E070E080E090E098CFCF93DF93CD
:104CE000EC010E946922882331F1FE01FE5F0190F0
:104CF000F081E02DDE01A85FBD4F8D919C91E80F02
:104D0000F91FF170EC0FFD1F80819FEB980F9A3116
:104D100098F0CB5FDD4F8A3251F03CF48A3039F0A5
:104D20008D3029F08BE090E004C08C32D9F784E01C
:104D300090E09983888380E0DF91CF9108955F921E
:104D40006F927F928F929F92AF92BF92CF92DF929B
:104D5000EF92FF920F931F93CF93DF9300D000D079
:104D600000D0CDB7DEB789839A83762E5A016901C8
:104D70004801870189819A810E945625562E672E07
:104D80007C0161E0670D89819A810E946E26D801BD
:104D90008C93E981FA81EB5FFD4F80819181892BB2
:104DA00009F081C020E030E048EC52E459826A8288
:104DB000EB82FC8269817A818B819C810E945C35C7
:104DC0008B018E839D8369831A838B839C83698186
:104DD0007A818B819C810E94D535D5016C93862F79
:104DE00090E0B0E0A0E089839A83AB83BC83BC01F0
:104DF000CD010E9404369B01AC0109831A839E8178
:104E00009B83AD81AC8369817A818B819C810E9477
:104E1000EF3420E030E048EC52E469837A838B83FE
:104E20009C8369817A818B819C810E9492368B015F
:104E30008E839D8369831A838B839C8369817A81A6
:104E40008B819C810E94D535F6016083862F90E08E
:104E5000B0E0A0E089839A83AB83BC83BC01CD0121
:104E60000E9404369B01AC0109831A839E819B83B7
:104E7000AD81AC8369817A818B819C810E94EF3402
:104E800020E030E040E752E469837A838B839C839F
:104E900069817A818B819C810E949236F4016083C2
:104EA00071838283938326960FB6F894DEBF0FBE7C
:104EB000CDBFDF91CF911F910F91FF90EF90DF90C9
:104EC000CF90BF90AF909F908F907F906F905F90AA
:104ED00008958F929F92AF92BF92EF92FF920F939D
:104EE0001F93CF93DF9300D000D000D0CDB7DEB7B3
:104EF0006D837E838A01790161E00E941D2524E68D
:104F0000822E912CA12CB12CA50194010E94AB33CF
:104F1000F7016083CA01B901A50194010E94AB3376
:104F2000F8016083ED81FE81208326960FB6F89408
:104F3000DEBF0FBECDBFDF91CF911F910F91FF90CC
:104F4000EF90BF90AF909F908F900895EF92FF9257
:104F50000F931F93780189019A01AB0163E00E94CE
:104F60009F261F910F91FF90EF9008950F931F932D
:104F70000E94A6271F910F910895EF92FF920F9321
:104F80001F93780189019A01AB0165E00E949F2679
:104F90001F910F91FF90EF9008958F929F92AF9283
:104FA000BF92EF92FF920F931F93CF93DF9300D0A6
:104FB00000D000D0CDB7DEB76D837E838A01790142
:104FC00069E00E941D2524E6822E912CA12CB12C93
:104FD000A50194010E94AB33F7016083CA01B901B6
:104FE000A50194010E94AB33F8016083ED81FE813D
:104FF000208326960FB6F894DEBF0FBECDBFDF919B
:10500000CF911F910F91FF90EF90BF90AF909F9025
:105010008F9008950F931F93FC0171836083228307
:105020005483438316821582108617821287018764
:105030001F910F9108953F924F925F926F927F92CE
:105040008F929F92AF92BF92CF92DF92EF92FF9298
:105050000F931F93CF93DF93EC015A80CB80DC80BA
:10506000752C770C770C770C7A940FEF040F050DE5
:105070009B01215031092C0D3D1D888199810E9491
:10508000E12A888199810E947B2B612CF12CE12CF3
:10509000852D8150990B5C01E514A8F088819981D8
:1050A000DF91CF911F910F91FF90EF90DF90CF9004
:1050B000BF90AF909F908F907F906F905F904F9038
:1050C0003F900C94452C8D809E80E985FA85E80DF3
:1050D000F91D8081172D181B781608F410E0412C5B
:1050E00087E0382E360C4C141D0430F08FEFE81A90
:1050F000F80A98E0690ED0CFE985FA85E80DF91D28
:105100008081072D081B781608F400E0EF81F885F0
:105110003097E1F0AE14BF04C9F4C401099590E0E2
:1051200060E098130FC09FEF910F011790F01017D8
:1051300078F41F5F902F9615B8F03116A8F0862DE1
:1051400021E010C0669560689F5FEBCF60E0EBCF19
:10515000902F102FF0CF811718F0981728F0622B9E
:105160008F5F220F3816B8F7888199810E948D2BA6
:105170009FEF891A990AC814D90411F4912C812C33
:105180004394102FB0CF282F26952575880F8A7A43
:10519000282B822F86958695837394E0299F900112
:1051A00011242C7C822B82950895299A2A9808959F
:1051B0001F93CF93DF93D82FC92F162F0E943E2C19
:1051C0006D2F7C2F82E20E94412C0E94D52887EC13
:1051D00011118FE06D2F7C2F0E94412C8D2F9C2F61
:1051E0000E94452C8D2F9C2F0E943E2C6D2F7C2FD2
:1051F00080E20E94412C8D2F9C2FDF91CF911F9137
:105200000C94452CFC0190E080E04F9B0BC0AFE973
:10521000BFE01197F1F700C000000196803ABFE0AF
:105220009B0799F7AFE7BEE31197F1F700C00000C5
:10523000803A9F4011F481E080830895EF92FF92BD
:105240000F931F93CF93DF93D82FC92F7B010E9419
:105250003E2C6D2F7C2F82E30E94412C0E94D5288A
:1052600010E000E0F701E00FF11F84916D2F7C2F1B
:105270000E94412C0F5F1F4F0939110599F78D2F9F
:105280009C2F0E94452C8D2F9C2FDF91CF911F9139
:105290000F91FF90EF900C940229FC018CE0DF014C
:1052A0001D928A95E9F728E231E03283218380E17B
:1052B0008383358324838683089528988FE39FE131
:1052C0000197F1F700C00000289A8FE39FE1019752
:1052D000F1F700C000000895CF93DF93D82FC92FB6
:1052E0006CE073E10E941E298D2F9C2F0E943E2CA2
:1052F0006D2F7C2F8FE30E94412C0E94D528E5EA78
:10530000F3E184916D2F7C2F0E94412C8D2F9C2FD7
:105310000E94452C8D2F9C2F0E943E2C6D2F7C2FA0
:1053200083E00E94412C0E94D528E6EAF3E18491B3
:105330006D2F7C2F0E94412C8D2F9C2F0E94452C7D
:105340008D2F9C2F0E943E2C6D2F7C2F84E00E947D
:10535000412C0E94D528E7EAF3E184916D2F7C2F40
:105360000E94412CE8EAF3E184916D2F7C2F0E948A
:10537000412CE9EAF3E184916D2F7C2F0E94412CAE
:105380008D2F9C2F0E94452C8D2F9C2F0E943E2CF0
:105390006D2F7C2F8CE20E94412C0E94D528EAEAD6
:1053A000F3E184916D2F7C2F0E94412C8D2F9C2F37
:1053B000DF91CF910C94452C0F931F93CF93DF93E4
:1053C000D82FC92F0E945D296BEA73E18D2F9C2F86
:1053D0000E941E298D2F9C2F0E943E2C6D2F7C2F0A
:1053E00087E30E94412C0E94D52802E013E1F801D6
:1053F00084916D2F7C2F0E94412C0F5F1F4FF3E192
:105400000C301F07A1F78D2F9C2F0E94452C8D2F4C
:105410009C2F0E943E2C6D2F7C2F8CE30E94412CF0
:105420000E94D5286D2F7C2F80E80E94412C8D2F63
:105430009C2F0E94452C8D2F9C2F0E943E2C6D2F5F
:105440007C2F82E20E94412C0E94D5286D2F7C2F58
:1054500080EC0E94412C8D2F9C2F0E94452C8D2F7B
:105460009C2F0E943E2C6D2F7C2F80E20E94412CAD
:105470008D2F9C2F0E94452C8D2F9C2FDF91CF913B
:105480001F910F910C940229AF92BF92CF92DF929D
:10549000EF92FF920F931F93CF93DF93EC017B0169
:1054A000142F69010E943E2CBE0184E40E94412C0D
:1054B0000E94D5288B8583FF79C0BE01812F0E9471
:1054C000412CBE01802F0E94412CCE010E94452C10
:1054D000CE010E943E2CBE0185E40E94412C0E9418
:1054E000D5288B85570183FF05C087E291E05C01D9
:1054F000AE18BF08BE018A2D0E94412CBE018B2D23
:105500000E94412C8B8583FF06C087E291E09C01BD
:105510002C193D096901BE018C2D0E94412CBE0150
:105520008D2D0E94412CCE010E94452CCE010E945F
:105530003E2CBE018EE40E94412C0E94D5288B8512
:1055400083FD03C08FE0811B182FBE01812F0E94B5
:10555000412CCE010E94452CCE010E943E2CBE0162
:105560008FE40E94412C0E94D5288B8583FF06C0C2
:1055700087E291E09C012E193F097901BE018E2D31
:105580000E94412CBE018F2D0E94412CCE010E9411
:10559000452CCE01DF91CF911F910F91FF90EF909D
:1055A000DF90CF90BF90AF900C9402298FE0B82E7F
:1055B000BE018B2D811B0E94412CBE018B2D801BB7
:1055C00082CF0F93FC0182859185890FA781B085D9
:1055D000080F2A0F3B1F480F6A0F7B1FCF010E9445
:1055E000442A0F910895EF92FF920F931F93CF9348
:1055F000DF93EC010E942A2C57985F9883E0E82EF5
:10560000F12CCE010E9402291881113041F481E071
:10561000E81AF10809F468C00E945D29F2CF11115F
:1056200063C0CE010E943E2CBE0182E10E94412C4B
:10563000CE010E94452CCE010E940229CE010E947B
:105640003E2CBE0181E00E94412C0E94D528BE0163
:1056500087E20E94412CBE0181E00E94412CBE01E4
:1056600080E00E94412CCE010E94452CCE010E9478
:105670003E2CBE0181E10E94412C0E94D5288B85E1
:1056800083FD30C086E0BE010E94412CCE010E9405
:10569000452CCE010E943E2CBE0181E20E94412C8D
:1056A0000E94D5288B8582FF18E8BE01812F0E94B9
:1056B000412CBE0180E80E94412CCE010E94452C65
:1056C0000FE027E231E040E070E060E0CE010E94B0
:1056D000442ACE01DF91CF911F910F91FF90EF905F
:1056E0000C946C2985E0CFCFDF91CF911F910F9162
:1056F000FF90EF900895CF93DF93EC010E943E2C32
:105700008B8584FD08C084E2BE010E94412CDF919C
:10571000CF910C94D52886E2F7CFCF93DF93D82F83
:10572000C92F862F0E94C3286D2F7C2FDF91CF9128
:105730000C94432CCF92DF92FF920F931F93CF9341
:10574000DF93EC01862F0E94C328F82E0E810150B2
:105750002C813D812150310940E070E060E0CE01B4
:105760000E94442ACE010E947B2B2E818C819D8138
:10577000289F6001299FD00C112410E000E00C1537
:105780001D0551F4CE01DF91CF911F910F91FF9034
:10579000DF90CF900C94452CBE018F2D0E94432C9E
:1057A0000F5F1F4FECCF60E00C94D8280F931F932E
:1057B000CF93DF93D82FC92F8B0164307105B9F0D7
:1057C0000E943E2C6D2F7C2F80E10E94412C0E9474
:1057D000D5286D2F7C2F802F83700E94412C8D2F18
:1057E0009C2FDF91CF911F910F910C94452CDF914D
:1057F000CF911F910F9108950F931F93CF93DF9334
:10580000D82FC92F8B0160E00E94D8288D2F9C2FA4
:105810000E940229B8018D2F9C2FDF91CF911F91FB
:105820000F910C94D62B0F931F93CF93DF93D82F08
:10583000C92F8B0161E00E94D8288D2F9C2F0E94D8
:105840000229B8018D2F9C2FDF91CF911F910F91CD
:105850000C94D62B229A2A9A219A299A209A28982F
:105860008FE39FE10197F1F700C00000289A40E81C
:1058700056E968E970E081E00C94482E29982A984E
:1058800008950C948B2E0C948B2E2A9A299A0895A5
:10589000FC017183608353834283168215821482D4
:1058A00017820895FC01A281B3818C91811116C0E9
:1058B00080819181FC012491263571F43196E49127
:1058C000E13451F4FC013296E491E23529F4FC0113
:1058D0003396E491E13311F080E28C9308952F9296
:1058E0003F924F925F926F927F928F929F92AF9270
:1058F000BF92CF92DF92EF92FF920F931F93CF93BD
:10590000DF9300D00F92CDB7DEB77C016B83798334
:10591000442E0E94522C442009F484C0D7011296D0
:10592000ED91FC911397808181117CC016969C911A
:1059300016978681981708F075C0ED91FC91359601
:105940002490AB80B980F701648175818281938155
:10595000DC0114964D915C916417750708F059C0ED
:10596000C080D180F60134963491B0E8BA83FA81D0
:105970003F1708F46DC0F501A08120E0F6E0CF0EDE
:10598000D11CFA81F11168C0B4E02B9F9001112461
:105990002C0D3D1DF901B491AB133BC031966490C1
:1059A0003196A4913196E491FA2FCE0EDF1EC114E8
:1059B000D10479F14B01860C911C4815590508F466
:1059C0004A01D70116964C91FC012681722C740E67
:1059D000271508F4722E0FEF070D9401215031099D
:1059E0000E94E12AD70112968D919C910E947B2BF7
:1059F000F7018781817089833680371408F483C06A
:105A0000D70112968D919C910E94452CF7019582A9
:105A10008482FFEFAF1ABF0A8A2D2B81821B841567
:105A200008F491CF0F900F900F90DF91CF911F91BD
:105A30000F91FF90EF90DF90CF90BF90AF909F902D
:105A40008F907F906F905F904F903F902F90089530
:105A5000EA81E695EA838BCFBA812B2BEB2F2317B4
:105A600050F4B4E02B9FF0011124EC0DFD1DE491E6
:105A7000AE171CF4EA81E0952E23EA81E695EA83CD
:105A800080CF8C91811116C0FA81F11115C0F601F9
:105A9000F491FA832FEFC21AD20A55245394F7FFD8
:105AA00003C0FF77FA83512C8A81811105C091E2EE
:105AB0009C931A826FEF0CC0F6016491FA81F15049
:105AC000FA83552011F0F11103C02FEFC21AD20A48
:105AD000D70114968D919C91800F911F881599057F
