:100000000C94250A0C94420A0C94420A0C94420A5D
:100010000C94420A0C94C9110C94EF210C94420ADE
:100020000C94420A0C947E110C94420A0C94420ADD
:100030000C94420A0C94420A0C94420A0C94420A10
:100040000C94420A0C94420A0C9490180C94420AA4
:100050000C94420A0C94420A0C94420A0C94420AF0
:100060000C94420A0C94420A05A84CCDB2D44EB965
:100070003836A9020C50B9918688083CA6AAAA2A4B
:10008000BE000000803F072C7AA5BA6CC590DA3B11
:100090009365FC8BBC53F810FD3C5692834DBD8795
:1000A0009D3AB63DCBC9BF5BBE73DA0FC93F06644C
:1000B000EC1B3C04BC163E3BE5B93CC93C37C29E38
:1000C0005A3D660498083EEA69AAAA3E00000080EC
:1000D0003F00564152310C0A2028003030280038A9
:1000E000312800ED32280136332801CC3428027D36
:1000F000352802EE3628037F37280447382804A124
:10010000392805773A1006427F007F007F001300F0
:100110000A00818002C003E008F002E002C0818092
:1001200010008480F0F8FC04FF837F3F1F070F025C
:100130001F813F04FF84FEF8F0C00A0081FE05FF26
:10014000821F010F0082010705FF82FCF00600817B
:10015000E006FF1500813F05FF81C0050007FF078E
:100160000008FE070006FF050007FF0700083F071D
:100170000006FF050082017F05FF8180130082C019
:10018000FE05FF81010700821F7F04FF83FCC08002
:100190000D008380E0F005FF821F030A0083070F34
:1001A0001F027F03FF81FE02FC05F802FC02FE0332
:1001B000FF857F3F0F0301110003010203080702BF
:1001C0000381010D00130007E01800028002C084C3
:1001D000E0F0FCFE08FF120003FE03FF027F023F77
:1001E000851F0F07030107FF120003010C0007FF23
:1001F000210007FF210007FF210007FF210007FF63
:1002000012000FFC07FF0DFC0500230301000A008C
:10021000818002C003E008F003E002C081800F008B
:100220008480F0F8FC04FF837F3F1F070F021F82CA
:100230003F7F04FF84FEFCF8800900827E7F04FF7C
:10024000821F011000810106FF81FC1F008280C017
:1002500005FF823F071A008580C0F0F8FE03FF8487
:100260007F1F070315008480C0E0F002FC03FF023B
:100270003F830F070314008580C0F0F8FC03FF865E
:100280007F3F0F07030115008580E0F8FCFE02FFA9
:10029000857F3F1F03011B0081FC07FF19FC07003E
:1002A000210304000A00818002C003E008F003E09B
:1002B00002C081800F0084C0F8FCFE04FF817F0231
:1002C0001F080F831F3F7F04FF84FEFCF880090096
:1002D000023F047F821F011000810106FF81FC1E86
:1002E000008380C0E005FF821F03130006F803FCB3
:1002F00002FE02BF021F830F030116000707030F50
:10030000811F023F847FFFFEFC02F882E0800A002A
:100310000380140082010705FF81F80600810705AC
:10032000FF83FEF080110082E0F805FF810F0800D6
:1003300084030F1F3F05FF02FC08F802FC81FE0446
:10034000FF857F3F1F07010F000201030309070319
:100350000381010B001700818007E01C0084C0E0CE
:10036000FCFE08FF18008480F0FCFE02FF841F0FD3
:10037000030006FF140083C0F0F802FF847F3F0FE4
:1003800001050006FF100083C0E0FC02FF847F3FF0
:100390000703090006FF0C008380F0FC03FF831FA6
:1003A0000F010D0006FF0A0081FE05FF81FD11FC13
:1003B00006FF08FC0200180306FF08031A0006FFE8
:1003C00022000603090006001CE00C0006FF161FB1
:1003D0000B0081F805FF8107210006FF03008180E3
:1003E00003C007E003C081800F0081FC06FF83FE8D
:1003F000FF7F023F071F023F817F05FF84FCF8F06B
:10040000C00900070381010F008401031F7F05FF5E
:1004100081C0220006FF0600810C02FC03FE83F867
:10042000E0800F008380C0F805FF817F0800850110
:10043000071F3F7F04FF81FE02FC07F802FC81FEDC
:1004400003FF027F841F0F070110008101030309CE
:1004500007020303010B000D00818002C002E008C7
:10046000F002E081C0028010008480C0F8FC03FF2D
:10047000827F3F031F050F021F817F04FF84FEFC64
:10048000F8C00A0082C0FE04FF830F07010E00813E
:1004900001020F04078106080081FC04FF827F032C
:1004A0000300028003C007E002C081800F0005FF47
:1004B00086C0F0FCFEFF7F023F071F023F05FF02E0
:1004C000FC82F8C0090006FF833F03010F0083018F
:1004D0000F7F05FF81C00700817F05FF81C01400E9
:1004E00006FF080082077F04FF83F0E0C00E008251
:1004F000C0F805FF827F010A008501071F3F7F03C7
:10050000FF81FE02FC06F802FC04FF857F3F1F0FFF
:10051000011200020102030807020302010B00049A
:100520000020E00800191F81DF05FF817F1D008486
:1005300080F0FCFE02FF837F1F071B008380C0F05A
:1005400004FF837F0F031C0082E0F804FF837F0712
:10055000011C008380F0FC04FF823F031E0081F039
:1005600005FF820F011F0006FF810F200081FC059F
:10057000FF81032100060315000A00818002C003E9
:10058000E008F003E002C081800F008480F0FCFEF0
:1005900004FF817F021F080F021F817F04FF84FE7A
:1005A000FCF080090081FC06FF810110008101063A
:1005B000FF81FC080082031F05FF83E0C0800C0060
:1005C0008380C0E005FF821F030B008503070F9F98
:1005D000BF03FF81FE08FC02FE02FF029F830F079C
:1005E000030B0082C0F002FC81FE02FF833F1F0F5D
:1005F000020708030207810F021F02FF02FE83FCAD
:10060000F0C0070081FC05FF81071400810305FF8E
:1006100081FC0600810F05FF83FCE080110082E071
:10062000FC05FF810F07008501071F3F7F04FF8145
:10063000FE02FC08F802FC81FE04FF857F3F1F07D5
:10064000010F00810104030807040381010B000A64
:1006500000818002C003E008F002E081C002800F48
:10066000008580C0F8FCFE03FF027F021F060F0218
:100670001F823F7F03FF85FEFCF0E080090081E0E0
:1006800005FF827F0F100082030705FF82F08007BD
:100690000006FF8180140006FF070082017F05FF2E
:1006A00082FCE002800C008480C0E0FE06FF0900AE
:1006B0008401070F1F027F03FF02FE06FC02FE8378
:1006C000FF7F3F021F8203C105FF100002010703E5
:1006D0000301050081F005FF811F080004F002F806
:1006E00082F0800D008480E0F0FC03FF837F3F01F7
:1006F00009008501031F3F7F04FF81FE02FC05F80E
:1007000002FC81FE03FF857F3F1F0F011200810164
:1007100003030807020302010E00230009F8070083
:1007200009FF07000903270009F8070009FF070070
:1007300009030400564152310D03200C00342D0CE6
:1007400000362E0C003C300C0042310C0069320C9B
:100750000081330C00A1340C00C8350C00E2360CCB
:100760000101370C0129380C013F390C01642400C8
:100770000E0007300F001C0003070500840080C036
:10078000E0036083E0C080020003FF8100031C815E
:100790000002FF817F020083010307030683070332
:1007A000010200028002C003E00500020102000312
:1007B000FF050004060307040601008280C002E072
:1007C000036083E0C08002008A0181C1E070383C90
:1007D0001F0F070200030707060200818002C08185
:1007E000E0036002E083C08000038181000318867B
:1007F0003CFFE7E3000102038107030602078303CE
:100800000100050081C004E0020087E0F0F8DEC7C7
:10081000C3C103FF02C007000307020003E0076033
:100820000200039F8118030C861CFCF8F0000102F3
:100830000381070306810702030200840080C0E0F1
:10084000036002E084C080007E02FF8118030C84F4
:100850001CFDF9F10200830103070306810702036F
:10086000820100086002E08160040087E0F8FC1E5D
:100870000703010400030707008280C002E0036051
:1008800002E087C08000E3E7FF3C0318873CFFE7F6
:10089000E3000103020703060207830301008180CE
:1008A00002C081E0036083E0C0800200848F9FBFAC
:1008B000380330811802FF847F000103020703061A
:1008C00083070301020056415231110320090044FD
:1008D000251300462E06007D2F0800833A06009758
:1008E000410E00A1430F00BE460C00E5480C00F786
:1008F0004D0F0111500D013D540E0156550E01686A
:10090000680B0188690501A26E0B01B0720801C66F
:100910001B00830080C0024082C08005008380C02D
:10092000400500821F30022089301F80E0301C0605
:10093000E33002108230E0050084080C0701040057
:1009400082070C0208830C07000E00020C0200054F
:100950000082E06003008480F83F030300830C0FF3
:10096000010400080002060400020C020005000356
:10097000C0080089C0785F4340435F78C0030083AC
:10098000080F07070084030F08000300028081C0DE
:10099000044081C00280030083FCFF030700810143
:1009A00002030300840307060C0408850C040703F4
:1009B00000810002C00840020002FF08200200027D
:1009C0000F0900810002C0060002C0020002FF06FB
:1009D0001002FF0200020F0600020F010081000258
:1009E000C081800700818002C002008DFF00073EA9
:1009F000F0C00080F03C0700FF0200810F0400847B
:100A0000070C07010300820F00810002C00640822C
:100A1000C080030002FF062083301F0F0200020F78
:100A20000A008100054002C00540070002FF0C00DB
:100A3000020F0600810002C0080002C00200827F8F
:100A4000FF080082FF7F03008303070C0408830C68
:100A500007030200810002E0090002FF810C03028B
:100A60008306FCF80200020F0500020F010081005E
:100A70000260030002FE0300020F02000C0002FEEF
:100A8000810C03028306FCF80200020F0500020F2E
:100A90000100090002FE811803060200020F050092
:100AA000564152312801200500A02D0500A22E0537
:100AB00000A6300500AB310500B1320500B73305A3
:100AC00000BD340500C3350500C9360500D0370523
:100AD00000D7380500DD390500E43A0500EB410692
:100AE00000F0420600F7430600FF440501074505F4
:100AF000010E460501144705011A48050120490564
:100B000001274A05012D4B0601334C05013A4D05DD
:100B100001404E0501464F05014C5005015351055A
:100B2000015A52060161530501685406016F5505CB
:100B300001775606017E570601855806018C590635
:100B400001935A06019A05000320020082008003E7
:100B500000857C92827C00850084FE800085C4A292
:100B6000928C00854482926C0085302824FE20817E
:100B70004E028A827200817C028A8272008502E2C1
:100B80001A0600816C0292826C00818C0292827C37
:100B900000820088030086C03C223CC00081FE0227
:100BA00092816C0200817C02828144020081FE02FB
:100BB00082827C0081FE0392010081FE031201000B
:100BC000857C8292740081FE021082FE0085008284
:100BD000FE8200854080827E0084FE106C820200CE
:100BE00081FE0380010085FE0C300CFE85FE0C307A
:100BF000FE00817C0282827C0081FE0212820C0057
:100C0000817C0282827C0084FE1232CC0200814C04
:100C10000292826400020281FE02020100817E02D1
:100C200080827E0086067880780600861EE018E0C6
:100C30001E0086826C106C820086020CF00C020092
:100C400084C2B28A8602005641523128022009002D
:100C5000A02B0900A22D0900B02E0500B630090016
:100C6000BC310900D1320900E1330900F434090133
:100C7000083509011D3609012F37090142380901DC
:100C800052390901633A090176410A018043090199
:100C900098440901AD450901BF460901CD47090145
:100CA000DA480901EF490901FF4B09020F4C09021B
:100CB000234D0A022D4E0902454F09025B500902DD
:100CC000705209028053090292540902A555090283
:100CD000B15A0902C2610A02D5680902EA69090229
:100CE000FC6D09030C6E090322780903341200031A
:100CF0000002E004000303021F030301000B0004D1
:100D000003030006000230020083E0F038029887F7
:100D100038F0E0000F1F38023184381F0F000260E6
:100D2000813002F804000330023F0330010002303A
:100D300003188A98F07000383C36323331023001A3
:100D40000002308118039883F87000021881300384
:100D500031831F0E00020083C0E03802F8020083D6
:100D60000E0F0D020C023F820C0002F804D881988D
:100D70000200820919033084391F0F0083E0F03824
:100D8000039886383000071F390331831F0F000492
:100D9000188498D87838030084383E07010300820D
:100DA00070F8049885F870001E1F0431831F1E0020
:100DB00082E0F003188638F0E000183903338439F4
:100DC0001F070003000260070002300400020082D7
:100DD00080F0023882F080020084203C1F07020667
:100DE00084071F3C2083E0F03802188738706000C9
:100DF0000F1F38023084381C0C0002F803188438A6
:100E0000F0C000023F033084381F070002F8059845
:100E1000821800023F053182300002F805988218DE
:100E200000023F0501020083E0F0380218883870A4
:100E30006000071F38300233021F010002F80480EF
:100E400002F88100023F0401023F0100031802F88A
:100E5000031881000330023F0330010002F887804D
:100E6000C06030180800023F020385070E383020AA
:100E700002F80700023F0630010002F88578E00022
:100E8000E07802F88100023F850003060700023F78
:100E9000010002F88478E0800002F88100023F84BB
:100EA00000030F3C023F010083E0F038021887384E
:100EB000F0E0000F1F38023084381F0F0002F804E2
:100EC0001883F0E000023F04038101020002F804ED
:100ED0001802F08100023F020385070D393020021D
:100EE000F003988118023083000818033184331FFF
:100EF0001E00031802F803180400023F040002F861
:100F0000040002F883000F1F033084381F0F008194
:100F10000003188AD8F8781800303C3E3731033087
:100F200001008280C0046082E0C00200821E3E0395
:100F300033851B1F3F300002FC81C0036083E0C08B
:100F400000023F0400023F01008100026002EC0445
:100F5000000330023F0330010002E08760E0C06020
:100F6000E0C000023F8100023F8100023F01000219
:100F7000E081C0036083E0C000023F0400023F0143
:100F800000832060E0028087E060200020381D029E
:100F900007841D38200056415231090300180024EF
:100FA0000118005F02180087031800AF041800DB67
:100FB0000518010506180129071801530818017FB3
:100FC0008300206002C082E6FC03F802FF03F8827F
:100FD000FCE602C08260200300020C818C10FF81BD
:100FE0008C020C03000201020082190F0307023F6A
:100FF0000307820F19020002010300040084C0608D
:101000003010060884103060C00900833FC0800A99
:10101000008380C03F0A00830103020604830203A9
:10102000010700040082C020021006088410F0E0CE
:10103000C00900833FC080090003FF813F0A00818F
:101040000102020604830203010700040084C06059
:101050003010030803F802F082E0C00900833FC0AB
:1010600080050007FF813F0A008301030203040398
:1010700007020381010700040085C0603010D80515
:10108000F802F082E0C00900833FC08002000AFF3E
:10109000813F0A008401030206050702038101075C
:1010A00000040082C0E002F006F802F082E0C0090D
:1010B00000813F0EFF813F0A008101020306070203
:1010C0000381010700040082C0E002F005F885D822
:1010D000103060C00900813F0AFF02008380C03FDA
:1010E0000A008101020305078406020301070004C8
:1010F0000082C0E002F003F8030884103060C009E9
:1011000000813F07FF05008380C03F0A0081010284
:101110000303070304830203010700040082C0E005
:101120000210060884103060C00900813F02FF8170
:101130000C09008380E03F0A008301030205048458
:10114000060203010700564152310903001800242A
:10115000011800690218008D031800B6041800E297
:101160000518010F061801370718016408180190C7
:101170008300206002C083663C180208020F020848
:1011800083183C6602C08260200300020C848CFF3E
:10119000C0800A008480C0FF8C020C0300020102A0
:1011A0000083190F060204023C020483060F190291
:1011B0000002010300040082C0E002F006F802F021
:1011C00082E0C00900813F0EFF813F0A00810102D9
:1011D00003060702038101070003008380C0E002C9
:1011E000F006F884F03060C00800820C7F0BFF84AA
:1011F0000080C03F0A00810102030607020381014B
:101200000700040082C0E002F004F80208841030F5
:1012100060C00900813F08FF04008380C03F0A00CE
:101220008101020304070204830203010700040092
:1012300082C0E002F082F838040884103060C009EF
:1012400000813F05FF07008380C03F0A0081010243
:101250000302070404830203010700040084C06042
:101260003010060884103060C00900833FC0800A37
:10127000008380C03F0A0083010302060483020347
:10128000010700040084C060301004088238F802AE
:10129000F082E0C00900833FC080070005FF813F66
:1012A0000A0083010302040402070203810107000C
:1012B000040084C0603010020804F802F082E0C02C
:1012C0000900833FC080040008FF813F0A008301BA
:1012D000030202040407020381010700040082C024
:1012E0006002F006F802F082E0C00900833FC0808F
:1012F0000CFF813F0A0081010203060702038101FE
:1013000007000000000000400000000080660000B0
:101310000000000040000000106600000000000017
:101320002000000080660000000000004000000077
:101330001066000000000000200000000000000017
:101340000000000000000000140800000000010A76
:101350000A000A0A0001000000000000000000006E
:10136000000000000000000000000000000000007D
:10137000000000000000000000000000000000006D
:10138000140800010000010000000000000100003E
:10139000000000000000000000000000444444443D
:1013A0004444000000221741003236004000000093
:1013B000000000000000008080000000000000002D
:1013C000000000404000000000000000000000009D
:1013D000800000000000000000000000000000008D
:1013E000000000000000000A0000000000020100F0
:1013F00000000000000100000000000000000000EC
:1014000000000000000000000000000000000000DC
:1014100000000000000000000000000000000000CC
:1014200000000000000000000000000000000000BC
:101430000000000000000000000000222222222202
:1014400022000000221741B0323611241FBECFEF18
:10145000D8E0DEBFCDBF12E0A0E0B1E0EAEEF0E7F9
:1014600002C005900D92AC30B107D9F726E0ACE090
:10147000B2E001C01D92A337B207E1F70E945110FC
:101480000C9473380C940000A4E0B0E0EAE4FAE0B5
:101490000C9446386C017B01E0911402F091150226
:1014A0000FEF1FEF309721F060E172E009958C019A
:1014B000F60180819181A281B38140911002509107
:1014C00011026091120270911302840F951FA61FE2
:1014D000B71F1016110684F089839A83AB83BC83EF
:1014E000B701CE0101960E944E0DF70113870287C6
:1014F0002496E8E00C946238A801012E000C660BDB
:10150000770B840F951FA61FB71FE6CF8F929F9270
:10151000AF92BF92CF92DF92EF92FF92CF93DF9381
:10152000CDB7DEB72A970FB6F894DEBF0FBECDBF9A
:1015300089879A87A985BA851696ED91FC917F01D6
:10154000B4E6EB1AF10850E040E0A9F0CF0185566F
:1015500091099C0197FF02C02D5F3F4F359527955C
:10156000359527956CE97FEF0E943433260F371F9E
:10157000A9014F5F5F4F2DE631E0D7010E949833FC
:1015800069837A838B839C83052E000C660B770B13
:1015900089809A80AB80BC80840E951EA61EB71EE3
:1015A000A985BA8513968C91082E000C990B6C01B5
:1015B000B1E0CB1AD108A985BA8515962C912230B5
:1015C0000CF059C0222321F06C01BEE1CB0ED11CDE
:1015D0000D2C000CEE08FF08C80CD91CEA1CFB1CE3
:1015E000E985FA85A2810A2E000CBB0B20E13EE0C2
:1015F0000E94983369837A838B839C83A1810A2E0E
:10160000000CBB0B2CE330E00E949833DC01CB01D3
:1016100029813A814B815C81820F931FA41FB51FE2
:101620008080082C000C9908AA08BB08880E991E17
:10163000AA1EBB1EA701960160E871E581E090E05B
:101640000E94F632DC01CB01880D991DAA1DBB1D3D
:10165000BC01CD012A960FB6F894DEBF0FBECDBFF8
:10166000DF91CF91FF90EF90DF90CF90BF90AF9040
:101670009F908F900895CF018459984F0E94260E15
:10168000282F30E0255C3F4F2C0D3D1DE985FA8564
:101690008581082E000C990B02978530910514F076
:1016A00027563F4F65E070E00E943433AC0197FF4E
:1016B00002C04F5F5F4F559547959DE3949F600132
:1016C000959FD00C1124C20ED31E80FF81CFFFE165
:1016D000CF0ED11C7DCFAAE0B0E0E1E7FBE00C9497
:1016E0004638FC0180819181A281B3819C01AD01CA
:1016F000205A3F494A41510929833A834B835C83ED
:10170000CA01B90123E93EEE46E250E00E944833A7
:10171000DC01CB0189549747A341B1098D839E8396
:10172000AF83B887BC01CD010E94A33528E43AEB12
:101730004BE959E469837A838B839C8369817A813D
:101740008B819C810E94F9342BED3FE049E450E409
:1017500069837A838B839C8369817A818B819C8165
:101760000E942F368B018A87998769831A838B831E
:101770009C8369817A818B819C810E949C366B015C
:101780007C0169817A818B819C810E94E0369B017A
:10179000AC01C982DA82EB82FC8269817A818B8119
:1017A0009C810E942F366B017C016D817E818F812F
:1017B000988525ED31E340E050E00E946A332983AB
:1017C0003A834B835C83CA01B9010E94A3358B0124
:1017D00089879D8320E030E048E451E4C982DA82C1
:1017E000EB82FC8269817A818B819C810E942F36F9
:1017F0009B01AC0109831A83B985BB83ED81EC831E
:1018000069817A818B819C810E948C3469837A837F
:101810008B839C8369817A818B819C810E946B354B
:10182000862F2A96E8E00C94623860931A0270932F
:101830001B0280931C0290931D022093160230938A
:10184000170240931802509319020895462F572FFC
:10185000BC010FB6F89440930C0250930D026093B4
:101860000E0270930F020FBE0895609310027093E2
:10187000110280931202909313020895CF92DF9287
:10188000EF92FF92CF93DF9300D000D00F92CDB7AD
:10189000DEB78D8399830E94E00E6B017C018D8100
:1018A00099810E949C0C22E030E040E050E00E94D0
:1018B0006A33D701C601821B930BA40BB50BBC0185
:1018C000CD010F900F900F900F900F90DF91CF915F
:1018D000FF90EF90DF90CF900895CF92DF92EF923C
:1018E000FF92CF93DF9300D000D00F92CDB7DEB739
:1018F0008D8399830E94E00E6B017C018D8199811B
:101900000E949C0C22E030E040E050E00E946A33EC
:10191000DA01C9018C0D9D1DAE1DBF1DBC01CD019D
:101920000F900F900F900F900F90DF91CF91FF903D
:10193000EF90DF90CF900895A6E0B0E0E2EAFCE0FF
:101940000C9446387C0160911A0270911B028091C0
:101950001C0290911D020E94A33524E33EE649E457
:1019600058E469837A838B839C8369817A818B8134
:101970009C810E94F9348B018E839D83C7010E9454
:101980003C0E6B017C0109831A838E818B839D81C0
:101990009C8369817A818B819C810E94D6378B01DF
:1019A0008E839D83D701C601B05889839A83AB8308
:1019B000BC83BC01CD010E94D6379B01AC010983D9
:1019C0001A839E819B83AD81AC8369817A818B81EF
:1019D0009C810E942F368B018E839D8320E030E016
:1019E00040E85FE369831A838B839C8369817A81F2
:1019F0008B819C810E948B3718160CF448C020E024
:101A000030E040E85FEB69817A818B819C810E94A4
:101A1000F93687FF06C000E010E090E89E83AFEB48
:101A2000AD8309831A839E819B83AD81AC836981D9
:101A30007A818B819C810E94E83628E433E347E475
:101A400050E469837A838B839C8369817A818B815B
:101A50009C810E94F93420E030EC48EA57E4698325
:101A60007A838B839C8369817A818B819C810E949C
:101A70002F3669837A838B839C8369817A818B81FA
:101A80009C810E946B352696E8E00C94623800E059
:101A900010E0B0E8BE838FE38D83C3CFA0E1B0E058
:101AA000E4E5FDE00C9446387B01DC012D913D918D
:101AB0004D915C91CA01B90120E831E541E050E067
:101AC0000E94483329873A874B875C876D877E87DA
:101AD0008F87988B2CE330E040E050E00E946A331F
:101AE00029833A834B835C83F70160836CE370E066
:101AF00089819A810E943433D70111968C93119772
:101B000012966C9389859A85069667E070E00E942C
:101B10002033F70184832DEA3EE840E050E06985F8
:101B20007A858B859C850E946A3329833A836D83ED
:101B30007E838F83988789819A8124E6289F8001FC
:101B4000299F100D11242D813E814F8158852987B1
:101B50003A874B875C8725EB35E040E050E06985AC
:101B60007A858B859C850E946A3329833A836D83AD
:101B70007E83C980DA80CC0CDD1CCC0CDD1CC00E51
:101B8000D11E8D819E8135E6C316D104D8F1019610
:101B900021E030E04CE651E02115310511F04DE631
:101BA00051E04817590750F46DE671E0821B930B22
:101BB0000E943433C60ED71E30E020E0A4E6CA0EE1
:101BC000D11CF701D782C68291878087255C3F4F61
:101BD0008217930700F56FE170E00E9434338B01A8
:101BE000282F862F922FD70115968C9315971B9629
:101BF0001C921E921A979F5F13969C936096E8E042
:101C00000C94623841E054E6C516D10409F440E072
:101C1000242F30E0BFCF69E970E0821B930B0E9454
:101C20003433D62EDD0CDD0CD60E6DE370E00E9451
:101C30003433C62ECC0C6FE170E00E9434338B013C
:101C4000282F82E0800F8D0D8C0DCCCF9C0123704E
:101C50003327232B69F464E670E00E943433462F67
:101C6000572F892B39F44370552781E0452B19F004
:101C700080E0089581E00895A9E0B0E0E2E4FEE0AC
:101C80000C944638DC012D913D914D915C912D8352
:101C90003E834F835887CA01B90121E23BE841EEF8
:101CA00051E00E9448339B01AC012055364242422C
:101CB0005E4F29833A834B835C83CA01B9010E943A
:101CC000A13521EB37E449E95AE469837A838B83B0
:101CD0009C8369817A818B819C810E94F93469831C
:101CE0007A838B839C8369817A818B819C810E941A
:101CF000E0366B017C016D817E818F8198852DE3BB
:101D000035E841EE51E00E944833DC01CB018854B4
:101D1000974AA24FBF4F89839A83AB83BC83BC0190
:101D2000CD010E94A13521ED35E449E95AE46983EA
:101D30007A838B839C8369817A818B819C810E94C9
:101D4000F9348B0189879D832FED33EE48E05DE305
:101D5000C982DA82EB82FC8269817A818B819C81E3
:101D60000E942F36980149855D8169837A838B8330
:101D70009C8369817A818B819C810E948D346983E7
:101D80007A838B839C8369817A818B819C810E9479
:101D90009C362CE336E741ED5EE369837A838B83DF
:101DA0009C8369817A818B819C810E942F369B0163
:101DB000AC015058CA01B9012996E8E00C94623888
:101DC000CF92DF92EF92FF92CF93DF93CDB7DEB742
:101DD0002A970FB6F894DEBF0FBECDBFFC0120815D
:101DE00031814281538129833A834B835C830E94F2
:101DF000420F9A8789878091160290911702A091CD
:101E00001802B0911902BC01CD012FE030E040E092
:101E100050E00E946A33C980DA80EB80FC80C21AED
:101E2000D30AE40AF50A90ECC90E98EAD91EE11C1F
:101E3000F11C69817A818B819C8120E831E541E048
:101E400050E00E944833C61AD70AE80AF90A2985E1
:101E50003A85C901330FAA0BBB0BA7019601281BBA
:101E6000390B4A0B5B0BCA01B9012A960FB6F894DD
:101E7000DEBF0FBECDBFDF91CF91FF90EF90DF901F
:101E8000CF900895AAE0B0E0E8E4FFE00C94463873
:101E9000DC012D913D914D915C912D833E834F83CB
:101EA0005887CA01B90121E23BE841EE51E00E94A6
:101EB00048339B01AC012055364242425E4F298394
:101EC0003A834B835C83CA01B9010E94A33521EB9D
:101ED00037E449E95AE469837A838B839C83698177
:101EE0007A818B819C810E94F93469837A838B8308
:101EF0009C8369817A818B819C810E94E0368B0171
:101F00008A8799876D817E818F8198852DE335E859
:101F100041EE51E00E944833DC01CB01805C9D43DF
:101F2000A34FBF4F9C01AD01220F331F441F551F0C
:101F300029833A834B835C83CA01B9010E94A3358C
:101F400021ED35E449E95AE469837A838B839C83E4
:101F500069817A818B819C810E94F9346B017C01BB
:101F60002FED33EE48E05DE309831A838A858B8386
:101F700099859C8369817A818B819C810E942F360F
:101F80009601A70169837A838B839C8369817A8117
:101F90008B819C810E948D3469837A838B839C839F
:101FA00069817A818B819C810E94E0362DEC3CE036
:101FB00044E154E469837A838B839C8369817A81C9
:101FC0008B819C810E942F366B017C012DEC3CECB7
:101FD00045EE53E409831A83AA85AB83B985BC8394
:101FE00069817A818B819C810E942F369B01AC0193
:101FF000C982DA82EB82FC8269817A818B819C8141
:102000000E948D3469837A838B839C8369817A8172
:102010008B819C810E946B35CB01919581959109B3
:102020002A96E8E00C9462388091B2000895AF924D
:10203000BF92CF92DF92EF92FF920F931F93809106
:102040001E028823F9F0B12CA12CCC24C394D12CEE
:10205000F12CE12C10E000E030E020E041E050E025
:1020600070E060E08AE090E00E94B12083E292E0BC
:102070001F910F91FF90EF90DF90CF90BF90AF90A6
:102080000C94C5190E94D0188111DDCF21E030E0F9
:1020900050E040E070E060E08AE090E00E9485213E
:1020A000E5CFCDB7DEB761970FB6F894DEBF0FBEB0
:1020B000CDBF10921E0280E096E5A2E6B9E28093C1
:1020C000230290932402A0932502B09326028091CC
:1020D000230290912402A0912502B0912602BC0116
:1020E000CD010E94260C10921F0280E292E00E9415
:1020F0006318A09120020A2E000CBB0B20E13EE0E9
:102100000E9498336E877F87888B998B0E94350C4D
:1021100088B18F6088B98BB186608BB984E190E11A
:102120000E94A9110E94C72B0E947915559A9FEF12
:10213000A1EEB4E09150A040B040E1F700C0000033
:10214000C0902302D0902402E0902502F090260255
:102150000E94BC11982F81E0911180E0B701A60187
:102160000E946A1987E292E00E94682F80E28093C1
:10217000B60085E08093B10081E080937000789490
:102180000E945C15F894C0902302D0902402E09045
:102190002502F09026027894332433940E9417107D
:1021A000F8948090230290902402A0902502B09091
:1021B00026027894C814D904EA04FB0408F087C006
:1021C000240135014C185D086E087F080E94EE1B43
:1021D000082F0E94C311182FECE34E16510461041E
:1021E000710458F48C149D04AE04BF0430F4809143
:1021F0001F02081302C0112389F20E94C6118091A8
:102200001E02882309F46AC020E232E0B501A4016D
:10221000812F0E94331E80931E0210E080911E02C7
:10222000811130C00E94FD1B7C0189869A86AB8695
:10223000BC860E94EE1B8D87113059F4D7015E9643
:102240008D919C91019709F457C081E090E00E9424
:10225000001C0E9479159E012F5F3F4FAE014D5F1C
:102260005F4FBE01695F7F4F87E292E00E941B30A3
:1022700047E150E160E272E0CE0101960E947F15D5
:102280000E946E1575016401BCE3CB0ED11CE11CEC
:10229000F11CC701B6012CE330E040E050E00E94A1
:1022A00048336E877F87888B998B8E8581508A33E0
:1022B00040F48E859F85A889B989C81AD90AEA0A87
:1022C000FB0A002309F46ACF00931F0267CF26019F
:1022D0003701481859086A087B0878CF123009F08E
:1022E0009DCF30921E020E94791540E252E0C50156
:1022F000B4010E94391E92CF82E0A8CF1F921FB670
:102300001F9211248F939F93AF93BF935D9A8FEC8D
:1023100097E00197F1F700C000005D9880912302DB
:1023200090912402A0912502B09126020196A11D50
:10233000B11D8093230290932402A0932502B093B1
:102340002602BF91AF919F918F911F901FBE1F904A
:10235000189590933B0280933A0210923E0210929D
:102360003D0210923C025B9A5C9A84E08093680084
:1023700088E180936D00089589B183FB882780F9F7
:1023800091E08927089580913C02089510923C02C3
:1023900008951F920F920FB60F9211242F933F931F
:1023A0004F935F936F937F938F939F93AF93BF935D
:1023B000EF93FF93E0913A02F0913B02099590E090
:1023C00020913D0230913E028217930748F0209100
:1023D0003D0230913E02275E3F4F28173907F8F43F
:1023E00090933E0280933D024B9905C080913C0240
:1023F000816080933C024C9905C080913C028260D0
:1024000080933C0280913C02882349F080913D02F8
:1024100090913E02992790933E0280933D02FF9156
:10242000EF91BF91AF919F918F917F916F915F914C
:102430004F913F912F910F900FBE0F901F901895C5
:102440000F93CF93DF93792FD62FC42F042F282FEC
:10245000392F462F682F8CE492E00E947E2A8CE46C
:1024600092E00E94182BCF5FDC1307C08CE492E04F
:10247000DF91CF910F910C94E22B6FEF8CE492E0FF
:102480000E942A2BDF5FF0CFCF93DF930F92CDB75F
:10249000DEB7898341E0BE016F5F7F4F84E492E045
:1024A0000E940C2C0F90DF91CF910895FC01419177
:1024B000BF0184E492E00C940C2C2F923F924F9237
:1024C0005F926F927F928F929F92AF92BF92CF92C4
:1024D000DF92EF92FF920F931F93CF93DF93CDB7CD
:1024E000DEB728970FB6F894DEBF0FBECDBF4B0105
:1024F0005C01D42E58872F830E83B7FE81C0822FB4
:1025000081508F8388279927DC0188199909AA09A6
:10251000BB0989839A83AB83BC8369817A818B8170
:102520009C8124E630E040E050E00E946A331901CB
:10253000C42E052F6D8329833A824B835C838AE006
:10254000482E512C612C712C9F8191509F83898141
:102550009A81AB81BC810A97A105B10508F055C0ED
:10256000E0924402F0924502AF81A13009F45AC0D2
:10257000A3300CF057C0BE81B093440210934502C3
:10258000B7FE03C08DE20E94441246E656E0B10158
:102590008C2D902F0E94732D0E9456128F818230B5
:1025A00069F48EE20E9444128D816AE00E94063333
:1025B00066E676E00E942D2D0E945612E0924402BB
:1025C000F09245026D2D788584E492E028960FB64E
:1025D000F894DEBF0FBECDBFDF91CF911F910F9159
:1025E000FF90EF90DF90CF90BF90AF909F908F9033
:1025F0007F906F905F904F903F902F900C94232D81
:1026000089829A82AB82BC8288CF69817A818B81F0
:102610009C81A30192010E94483329833A834B8312
:102620005C8392CF80E20E9444129F8191509F83ED
:102630009BCFCF93C82F8A3018F480E30E944412B6
:1026400066E676E08C2F0E942D2DCF910C945612C9
:10265000CF93C82F8D3070F0CC50CA3018F480E280
:102660000E94441266E676E08C2F0E942D2DCF91B9
:102670000C9456128111F1CFCCE0F4CF0F93CF938D
:10268000DF93D62FC22F21ED30E030934902209303
:10269000480224E337E03093450220934402442368
:1026A00051F10E94191386EC98E0909345028093B3
:1026B00044028AE30E94441284E397E09093450227
:1026C000809344028D2F0E9419138EE091E0909325
:1026D00049028093480286E491E1002311F086E9E3
:1026E0009FE090934502809344028C2FDF91CF911D
:1026F0000F910C9444120E942813D5CFCF92DF92F1
:10270000EF92FF920F931F93CF93DF9300D000D0EF
:1027100000D0CDB7DEB76B017C010E94FD1B8D831D
:102720009E83AD81BE815E968D919C915F9700974F
:10273000C9F418968D919D910D90BC91A02D892B77
:102740008A2B8B2B89F026960FB6F894DEBF0FBE2E
:10275000CDBFDF91CF911F910F91FF90EF90DF9050
:10276000CF900895019779F380EA9AE0909345021B
:10277000809344028AE080934A02109249021092A8
:102780004802ED81FE8180819181A281B381C816CA
:10279000D906EA06FB0608F465C18601081B190B79
:1027A0006CE071E084E492E00E94232D980150E0F7
:1027B00040E029833A834B835C8346E656E0698197
:1027C0007A818B819C810E94732D0E945612809188
:1027D0004A028F5F80934A02109249021092480287
:1027E000ED81FE8184819581A681B781892B8A2B19
:1027F0008B2B01F164E271E084E492E00E94232DCE
:10280000ED81FE8184819581A681B781A701960122
:10281000281B390B4A0B5B0B29833A834B835C8360
:1028200046E656E069817A818B819C810E94732DF6
:102830000E945612ED81FE8180859185A285B38527
:10284000892B8A2B8B2B09F430C16EE271E084E472
:1028500092E00E94232DED81FE8180859185A285E5
:10286000B385A7019601281B390B4A0B5B0B298303
:102870003A834B835C8346E656E069817A818B819B
:102880009C810E94732D0E94561280914A028F5F94
:1028900080934A02109249021092480267E471E064
:1028A00084E492E00E94232D66E676E0AD81BE814D
:1028B0005A968D919C910E944C2D0E94561262E571
:1028C00071E084E492E00E94232D66E676E0ED81DB
:1028D000FE81848D958D0E944C2D0E945612809110
:1028E0004A028F5F80934A02109249021092480276
:1028F0006DE571E084E492E00E94232DF12CE12C3F
:10290000ED81FE8184859585A685B785A70198010F
:10291000280F391F4A1F5B1F29833A834B835C832F
:1029200046E656E069817A818B819C810E94732DF5
:102930000E94561268E671E084E492E00E94232D22
:10294000AD81BE8158968D919C9166E676E0800FB0
:10295000911F0E944C2D0E945612ED81FE81828DA6
:10296000938D892B81F180914A028F5F80934A0277
:10297000109249021092480260E771E084E492E00C
:102980000E94232DED81FE8184859585A685B785DE
:10299000A7019801280F391F4A1F5B1F29833A831B
:1029A0004B835C83228D338D50E040E069817A81D6
:1029B0008B819C810E94483366E676E0C9010E94C3
:1029C0004C2D0E94561280914A028F5F80934A02DA
:1029D00010924902109248026BE771E084E492E0A1
:1029E0000E94232DAD81BE8150968D919D910D90B9
:1029F000BC91A02D89839A83AB83BC8346E656E0C5
:102A0000BC01CD010E94732D0E94561266E871E050
:102A100084E492E00E94232DF894AD81BE81549607
:102A20002D913D914D915C91579729833A834B832A
:102A30005C83789446E656E069817A818B819C813B
:102A40000E94732D26960FB6F894DEBF0FBECDBF41
:102A5000DF91CF911F910F91FF90EF90DF90CF907A
:102A60000C94561269E171E084E492E00E94232DF7
:102A7000ED81FE8180819181A281B3819C01AD01B4
:102A80002C193D094E095F0929833A834B835C83E6
:102A900046E656E069817A818B819C810E94732D84
:102AA0000E94561210E000E092CE6BE371E084E4E5
:102AB00092E00E94232DE9CE109243028CE492E032
:102AC0000E94EA284CE452E062ED70E084E492E077
:102AD0000E94E52B8CE492E00C94641E23982598C8
:102AE0002298219820982B982D982A9829982898F0
:102AF0000895239A259A229A219A209A08952F922E
:102B00003F924F925F926F927F928F929F92AF927D
:102B1000BF92CF92DF92EF92FF920F931F93CF93CA
:102B2000DF93CDB7DEB7E7970FB6F894DEBF0FBEE1
:102B3000CDBF1C017B014DA75EA780915702DB0131
:102B400011969C9192FF8FC28460809357028CE40F
:102B500092E00E94902A60E08CE492E00E94372B81
:102B6000D10112962D913D914D915C9115972DA318
:102B70003EA34FA358A71C96DC901C9718968D91E6
:102B80009D910D90BC91A02D89A39AA3ABA3BCA34A
:102B9000BE01635F7F4FCE0181960E94440A0E946E
:102BA000821E811162C206E910E06DA17EA18FA193
:102BB00098A50E94911E01501109B9F7F7011181E2
:102BC0001170DD2009F464C080914302882339F03C
:102BD0008F8581115DC08E85813009F059C089A132
:102BE0009AA1ABA1BCA18D8F9E8FAF8FB8A3CE0150
:102BF0004D960E943E0C698F7A8F8B8F9C8FBE0101
:102C00006F5F7F4FCE0149960E94440A8B8180936B
:102C100043028A8180934202CE014D960E946D0C40
:102C2000698F7A8F8B8F9C8FBE016F5F7F4FCE0134
:102C300049960E94440A8B81809341028A81809345
:102C4000400289A19AA1ABA1BCA189839A83AB83DD
:102C5000BC83CE0101960E946B0B8A3A0CF41EC213
:102C6000823C0CF40FC28B3D0CF40EC2843F0CF47A
:102C70000DC28E300CF40CC287320CF40BC28134BE
:102C80000CF40AC288350CF009C284E080933F023C
:102C900082ED90E0909345028093440210924A02A4
:102CA00090E080E0112311F08CE090E090934902D5
:102CB000809348028F85112309F4F2C10E941913F1
:102CC0008AE30E9444128E850E941913111119C0C3
:102CD00086EC98E0909345028093440287E08093CD
:102CE0004A028DEA90E090934902809348028F85D2
:102CF0008C300CF0D8C181E40E9444128DE40E9413
:102D0000441249E060E08DEC90E00E9420121092A5
:102D10004A0281ED90E09093490280934802D701E6
:102D200011962C918B899C8964E670E00E94343363
:102D3000082F1A891F5F44E357E0509345024093E0
:102D40004402B22FB270DB2E21FF812F0E94191393
:102D500086EC98E090934502809344028FE20E94B3
:102D6000441284E397E09093450280934402D1108B
:102D700001C01889812F0E94191386EC98E0909366
:102D80004502809344028FE20E94441284E397E05C
:102D90009093450280934402D1100889802F0E94AD
:102DA0001913F1018485882309F1D70111961C912B
:102DB000B12FB170DB2E147083E080934A02012F93
:102DC00030E020E04B2F60914202809143020E944C
:102DD0003E1386E080934A0220913F0230E04D2D61
:102DE00060914002809141020E943E13F101C68031
:102DF000D78082809380A480B5802081318139ABD7
:102E000028ABD70111968C9182708FA70E94D11E9A
:102E10006DA37EA38FA398A70E94B41E2B013C0133
:102E20002DA13EA14FA158A582169306A406B50672
:102E300008F43BC1481459046A047B0410F42401CB
:102E40003501D301C2012DA13EA14FA158A5821B7E
:102E5000930BA40BB50B8CAB9DABAEABBFAB3FA53F
:102E600031113EC029E030E0D6010E94983325E0C0
:102E700030E040E050E00E944833690180E8C81A21
:102E800083EFD80AA8EEB3E02DA13EA14FA158A52B
:102E90000E949F3318E4E12E14E8F12E00E010E0C8
:102EA000A80197010E9448332DA33EA34FA358A722
:102EB000A8EEB3E0A30192010E949F33A8019701FD
:102EC0000E94483329013A01A8EEB3E0A50194011C
:102ED0000E949F33A80197010E94483349015A017B
:102EE0008AE080934A0289EE90E0909349028093B1
:102EF00048029FA549EA51E0911102C04EE851E015
:102F0000C601DD0CAA0BBB0B89A79AA7ABA7BCA770
:102F100026ECE22E28E0F22E04E317E024E0BC01C8
:102F2000CD010E945D128DE080934A0289EE90E00F
:102F3000909349028093480248A959A99A0150E008
:102F400040E028AB39AB4AAB5BAB22E049E951E04A
:102F500068A979A98AA99BA90E945D124FE06AE03D
:102F600086EE90E00E9420128CE080934A028AE96B
:102F700090E090934902809348025FA5552309F49D
:102F800099C044E951E087E4E82E8CE0F82E8701EF
:102F900024E0C501B4010E945D128AE080934A02D8
:102FA0009AE9C92ED12CD0924902C092480224E05D
:102FB0004DE951E0C301B2010E945D128EE08093A1
:102FC0004A02D0924902C092480224E042EA51E00B
:102FD0006DA17EA18FA198A50E945D128CA99DA9CB
:102FE000AEA9BFA98897A105B10510F00E94EE1EF9
:102FF000D10118962D913D914D915C911B972DA378
:103000003EA34FA358A7CA01B9010E947E138CE4C6
:1030100092E00E94702BEDA5FEA50995EDA5FEA5F9
:1030200009958CE492E00E949F2863E070E08CE4B4
:1030300092E0E7960FB6F894DEBF0FBECDBFDF91EA
:10304000CF911F910F91FF90EF90DF90CF90BF90A5
:10305000AF909F908F907F906F905F904F903F9038
:103060002F900C94732B8B7F70CD8E856AE00E941D
:1030700012339111A3CD6DA17EA18FA198A50E94BD
:10308000911E9CCD88E002CE87E000CE86E0FECD8A
:1030900081E0FCCD82E0FACD83E0F8CD85E0F6CD8D
:1030A0000E9428130DCE80E527CE8DA29EA2AFA24E
:1030B000B8A6C7CE40E951E066CF8CE492E008950F
:1030C000109243020895CF93DF93EC0143E050E068
:1030D00070E060E00E940A388881998140E1949F05
:1030E0009001112428273A81321305C0845F8B3167
:1030F00010F4983010F018821982DF91CF91089562
:10310000FC01218180E1289F900111248081822788
:10311000828343E050E070E060E0CF010C941A3805
:103120001F920F920FB60F9211242F933F934F933C
:103130005F936F937F938F939F93AF93BF93EF931F
:10314000FF938091C00087FF1AC06091C6008091F4
:103150006C0290916D02A0916E02B0916F02019687
:10316000A11DB11D80936C0290936D02A0936E021D
:10317000B0936F0288E792E00E948023E2CFFF9134
:10318000EF91BF91AF919F918F917F916F915F91DF
:103190004F913F912F910F900FBE0F901F90189558
:1031A0008BB186FB882780F908950F931F93CF93E7
:1031B000DF938B01D82FC92F0E94D01881111EC018
:1031C00088E792E00E946B235E9A00935802109366
:1031D0005902D0935A02C0935B028091720290917F
:1031E00073020196909373028093720200935C02C3
:1031F00010935D02D0935E02C0935F02DF91CF9186
:103200001F910F910895CF92DF92EF92FF92CF938B
:10321000DF9300D000D0CDB7DEB76B017C010E94F8
:10322000D0188823B9F180915802909159029601E3
:10323000281B390BC9013093710220937002409111
:103240006402509165026091660270916702420FBC
:10325000531F611D711D409364025093650260937A
:1032600066027093670220917202309173022230DD
:103270003105D8F430E8C30E31E5D31E31E0E31E4A
:10328000F11CC0925802D0925902E0925A02F09278
:103290005B025E980F900F900F900F90DF91CF918F
:1032A000FF90EF90DF90CF9008956CE370E00E9464
:1032B0002033DB01119620E831E541E050E00E9427
:1032C0009F3369837A838B839C83C60ED71EE81E47
:1032D000F91ED7CFCF93DF9300D000D00F92CDB798
:1032E000DEB78D8349835A836B837C83109260029F
:1032F00010926102109262021092630288E792E0DB
:103300000E946B23589845E050E060E875E280E049
:1033100090E00E94FD1E5E98569A8D818823B9F038
:1033200089819A81AB81BC8180935C0290935D021C
:10333000A0935E02B0935F02BC01CD010F900F908D
:103340000F900F900F90DF91CF910C94D518698159
:103350007A818B819C810E94031989819A81AB813A
:10336000BC818C579C4FAF4FBF4F809358029093B6
:103370005902A0935A02B0935B020F900F900F90E6
:103380000F900F90DF91CF9108952F923F924F921F
:103390005F926F927F928F929F92AF92BF92CF92E5
:1033A000DF92EF92FF920F931F93CF93DF93CDB7EE
:1033B000DEB7A8970FB6F894DEBF0FBECDBF8F8FD4
:1033C00098A3F894AF8DB8A12D913D914D915C914A
:1033D0002B8F3C8F4D8F5E8F78940E94D01888235E
:1033E00009F4CFC1FE013D96FE8BED8B1E01F3E18A
:1033F0002F0E311C4E012FE0820E911C5E013EE02B
:10340000A30EB11C80917C04811151C0C090580260
:10341000D0905902E0905A02F0905B02D701C601A9
:10342000885A9D4FAF4FBF4F2B8D3C8D4D8D5E8D7C
:1034300082179307A407B50708F08AC10E94D01825
:10344000882309F485C180917402909175020196D8
:103450009093750280937402809160029091610252
:10346000A0916202B0916302892B8A2B8B2B09F405
:1034700047C16B8D7C8D8D8D9E8DA8960FB6F8946F
:10348000DEBF0FBECDBFDF91CF911F910F91FF9097
:10349000EF90DF90CF90BF90AF909F908F907F90F4
:1034A0006F905F904F903F902F900C9403198091F4
:1034B000680290916902A0916A02B0916B02019634
:1034C000A11DB11D8093680290936902A0936A02C6
:1034D000B0936B0267EA71E088E792E00E94C12333
:1034E000882309F403C11C861B8610927E04109267
:1034F0007D049E012F5F3F4FAE014E5F5F4FBE01C7
:103500006D5F7F4F88E792E00E9406279E012C5E48
:103510003F4FAE014A5F5F4FBE016C5F7F4F88E750
:1035200092E00E946A278E8181508E838C8990E080
:103530008C599F4F98878F8380917D0490917E0452
:10354000892B09F0D3C0F894AF8DB8A14D905D9050
:103550006D907C907894CE0101960E94860A6B0152
:103560007C014C145D046E047F0408F0C4C0AC01FF
:103570009B01241935094609570929013A013DE300
:10358000431651046104710440F0C0925802D09275
:103590005902E0925A02F0925B02F894AF8DB8A102
:1035A000CD92DD92ED92FC92139778948101940173
:1035B000A501BE01635F7F4F88E792E00E94532719
:1035C0002D8530E0A0E1BEE00E9489336F8B788FBB
:1035D000898F9A8F2E8530E0ACE3B0E00E9489336A
:1035E00069A37AA38BA39CA34F88588C698C7A8C8F
:1035F000460E571E681E791E6F85788989899A89BB
:103600000E946B359B01AC01240D351D461D571DD5
:103610002F8B388F498F5A8F8B898B7F6D897E894D
:103620009401A501833579F48F89988DA98DBA8D80
:10363000B095A095909581959F4FAF4FBF4F8F8BC1
:10364000988FA98FBA8F88E792E00E945A272D851C
:1036500030E0A0E1BEE00E94893369A37AA38BA386
:103660009CA32E8530E0ACE3B0E00E9489336DA3CB
:103670007EA38FA398A749A05AA06BA07CA0460E5A
:10368000571E681E791E6F85788989899A890E94DC
:103690006B3569A37AA38BA39CA39B01AC01240D7A
:1036A000351D461D571D8B898B7F833539F4509509
:1036B0004095309521953F4F4F4F5F4F80917D044E
:1036C00090917E04892B91F46F89788D898D9A8DE4
:1036D0000E94150CC0926002D0926102E0926202D8
:1036E000F0926302C701B6010E94031988E792E0D5
:1036F0000E94752487CE4C185D086E087F083FCF66
:103700002B8D3C8D2C193D09309371022093700252
:103710008091640290916502A0916602B091670267
:10372000820F931FA11DB11D8093640290936502C7
:10373000A0936602B09367028B8D9C8DAD8DBE8D7C
:103740008093580290935902A0935A02B0935B025F
:10375000A8960FB6F894DEBF0FBECDBFDF91CF9114
:103760001F910F91FF90EF90DF90CF90BF90AF909F
:103770009F908F907F906F905F904F903F902F9091
:1037800008958091580290915902A0915A02B091E7
:103790005B022B8D3C8D4D8D5E8D281739074A07B6
:1037A0005B07B0F2CA01B901A8960FB6F894DEBF64
:1037B0000FBECDBFDF91CF911F910F91FF90EF9082
:1037C000DF90CF90BF90AF909F908F907F906F9041
:1037D0005F904F903F902F900C94D51881E04091CE
:1037E0006002509161026091620270916302452B08
:1037F000462B472B09F480E0089588E592E0089570
:1038000090937702809376020895FB01882321F03C
:10381000818192E089278183818168EB71E081FF5A
:1038200002C06BEA71E082E894E00C94232DFB0166
:10383000882321F0818191E08927818381816FEC48
:1038400071E080FF02C066EC71E082E894E00C94C5
:10385000232D68ED71E082E894E00C94232DCF9342
:10386000DF93EB0199818823C9F084E0982799833D
:103870000E945D18FC019981838592FF05C08460D8
:10388000838761EE71E004C08B7F83876BEE71E00C
:1038900082E894E0DF91CF910C94232D92FDF1CF3B
:1038A000F5CFCF93DF9300D000D0CDB7DEB7FB01CB
:1038B000882391F0A081A53FDCF0A150A0830A2EBF
:1038C000000CBB0B20E13EE00E94983369837A83B1
:1038D0008B839C830E94350C66EF71E082E894E054
:1038E0000F900F900F900F90DF91CF910C94232D9C
:1038F000AEE0E4CFCF93DF9300D000D0CDB7DEB7FA
:10390000FB01882391F0A081AE30DCF4AF5FA0838F
:103910000A2E000CBB0B20E13EE00E949833698325
:103920007A838B839C830E94350C61E072E082E88D
:1039300094E00F900F900F900F90DF91CF910C9427
:10394000232DA4EFE4CF1F93CF93DF930F92CDB736
:10395000DEB7182F8A3050F480E3898341E0BE013E
:103960006F5F7F4F82E894E00E940C2C66E676E061
:10397000812F0E942D2DFC014191BF0182E894E02E
:103980000F90DF91CF911F910C940C2C0F931F93EC
:10399000CF93DF93CDB7DEB761970FB6F894DEBF54
:1039A0000FBECDBF6E877F87888B998B142FBE018A
:1039B0006F5F7F4FCE010E960E94440A10928804DA
:1039C000012F017010FD53C018E00E945D18FC012A
:1039D00081819281F9E01F9F8019910911249695A8
:1039E00087959093870480938604002309F441C04F
:1039F0008B810E94A31C8AE38D8741E0BE01635F37
:103A00007F4F82E894E00E940C2C8A810E94A31CC4
:103A1000011122C080E28D8741E0BE01635F7F4FCC
:103A200082E894E00E940C2C8B818C300CF042C018
:103A300081E48D8741E0BE01635F7F4F82E894E0BF
:103A40000E940C2C8DE48D8741E0BE01635F7F4FA7
:103A500082E894E00E940C2C61960FB6F894DEBFC9
:103A60000FBECDBFDF91CF911F910F91089515E04B
:103A7000ACCF1B811D30D0F01C501A3050F480E2C6
:103A80008D8741E0BE01635F7F4F82E894E00E9432
:103A90000C2C66E676E0812F0E942D2DFC014191D1
:103AA000BF0182E894E00E940C2CA5CF1111E5CF54
:103AB0001CE0EFCF80E5BDCFBF92CF92DF92EF92B7
:103AC000FF920F931F93CF93DF93B62EC72ED82E5E
:103AD000192F7A010E945D18EC01F70181812B8575
:103AE00082FF2AC024602B87CE010E94902A00E02A
:103AF00097014B2D5C2D6D2D712F80E00E949E1D36
:103B00008B8580618B8797014B2D5C2D6D2D712FDF
:103B100080E00E949E1D8B858F7E8B8770E060E029
:103B2000CE01DF91CF911F910F91FF90EF90DF9029
:103B3000CF90BF900C94992B2B7FD5CF5F926F9233
:103B40007F928F929F92AF92BF92CF92DF92EF922D
:103B5000FF920F931F93CF93DF93C82F542E652EA0
:103B6000762E872E790181FF08C080918A048F5FAD
:103B7000863008F05CC080938A040E945D18982EFD
:103B8000192F01110E94792960E0892D912F0E943F
:103B9000372B82E080938804C17080E0C82E81E0DA
:103BA000D82ED0E092E3A92EB12CB0928704A09237
:103BB000860481E090918A049D1380E080938904BB
:103BC000D601ED91FD916D01C11101C080E0B701F9
:103BD0000995DF5F809188048E5F80938804D630DA
:103BE00021F710928904F7014181652D762D872DEB
:103BF000982D0E94C61C002331F061E070E0892DF1
:103C0000912F0E94B02BC11115C0D1E08D2FDF91F3
:103C1000CF911F910F91FF90EF90DF90CF90BF90C9
:103C2000AF909F908F907F906F905F9008951092CB
:103C30008A04A3CFC7010E948018D0918A04D33090
:103C400069F4892D912F0E94902AA701652D762D68
:103C5000872D982D0E945C1DDC2FD8CFD111D5CF98
:103C60000E946018D3CF0F9301E00E949E1D0F9118
:103C70000895EF92FF920F931F93CF93DF938B01E1
:103C8000D82FC92F7A0110928A040E945D18AC01C6
:103C900067E47CE082E894E00E94E52BA701B8018C
:103CA0008D2F9C2FDF91CF911F910F91FF90EF905F
:103CB0000C945C1D66E070E00E942033892B11F0AB
:103CC00080E0089583E008950F931F93BC0107EBF4
:103CD00015E026E046E950E08BE596E00E94A72734
:103CE0008AE59EE190936306809362062BE834E0B8
:103CF00040E366E970E08DE496E00E940C201F919D
:103D00000F91089580914F0690915006892B39F4B8
:103D100081E090915106911103C080E0089581E007
:103D20000895CF93DF9300D000D0CDB7DEB7DC018C
:103D3000CB018055934CA109B10989839A83AB8348
:103D4000BC83BC01CD012AE030E040E050E00E949D
:103D50004833B9018DE496E00F900F900F900F90CB
:103D6000DF91CF910C942220CF93DF9300D000D02D
:103D7000CDB7DEB72091550630915606AAE0B0E0E7
:103D80000E948933DC01CB01805B9C43AF4FBF4F66
:103D9000BC01CD010F900F900F900F90DF91CF914C
:103DA0000895CF93DF9300D000D0CDB7DEB7209138
:103DB000530630915406AAE0B0E00E948933DC013A
:103DC000CB01805B9C43AF4FBF4FBC01CD010F9037
:103DD0000F900F900F90DF91CF91089580914F0633
:103DE0009091500690936106809360064AE070E0DF
:103DF00060E08BE596E00C94B827CF93DF9300D07A
:103E000000D00F92CDB7DEB769837A838B839C8312
:103E10004D838091C0008D7F8093C00029813A81BD
:103E20004B815C8184E0220F331F441F551F8A950C
:103E3000D1F760E072E18AE790E00E9448332150B8
:103E400031093093C5002093C40086E08093C200FE
:103E50008D8180FF05C08091C10080618093C10089
:103E60008D8182FF05C08091C10080688093C10070
:103E70008D8181FF05C08091C10088608093C10061
:103E80008D8183FF05C08091C10080648093C10053
:103E90000F900F900F900F900F90DF91CF9108959A
:103EA0004F925F926F927F92AF92BF92CF92DF92CA
:103EB000EF92FF920F931F93CF93DF9300D000D028
:103EC00000D0CDB7DEB78D839E838B017A01AD81A3
:103ED000BE8118964D905C90199716968D919C9185
:103EE00084159505F0F4481A590AD12CC12C712C6F
:103EF000612CCE14DF04C9F426960FB6F894DEBF09
:103F00000FBECDBFDF91CF911F910F91FF90EF902A
:103F1000DF90CF90BF90AF907F906F905F904F9069
:103F2000089544244394512CE0CFED81FE81A48474
:103F3000B584A00EB11EC801880F991F0284F385B5
:103F4000E02DE80FF91F20813181AD81BE811696E9
:103F50008D919C911797281B390B1596AC91B0E069
:103F60000E94893369837A838B839C83A3019201A6
:103F70000E944833F50120830F5F1F4FAD81BE8142
:103F80008D919C918017910711F410E000E0BFEF34
:103F9000CB1ADB0AAECFCF93DF93EC01CB012E819E
:103FA0003F816217730788F57F836E8321E0688500
:103FB00079856817790718F49987888721E06A81DD
:103FC0007B81660F771FEA85FB85E60FF71F9183DC
:103FD0008083442349F02223D1F04881598170E045
:103FE00060E0CE010E94501F8A819B8101969B83D5
:103FF0008A83288139818217930721F41B821A82D0
:1040000081E08C83DF91CF91089520E0D0CF6A8149
:104010007B8141E050E0E5CF0F931F93FC0171835A
:10402000608313821282148245838FEF9FEF978300
:1040300086831186108633872287158704871F9110
:104040000F9108950F931F93CF93DF93EC018C8111
:10405000882339F04E815F818885998548175907F3
:1040600041F441E0CE01DF91CF911F910F910C946B
:10407000CB1F2A813B81220F331FEA85FB85E20F8C
:10408000F31F208131814217530721F411E02617D5
:10409000370708F010E082179307B9F521E0681799
:1040A000790708F020E0822F90E0082F41E050E0EF
:1040B000481B590B111140E0CE010E94CB1F112368
:1040C00009F448C08FEF9FEF9F838E834881598109
:1040D00020E0822F90E084179507D0F0002351F064
:1040E000198618864881598120E0822F90E0841734
:1040F0009507F8F04881598170E060E0CE01DF91CA
:10410000CF911F910F910C94501F90E080E0CDCF84
:10411000880F991FEA85FB85E80FF91F808191813F
:104120006E817F818617970710F49F838E832F5FA0
:10413000D0CF880F991FEA85FB85E80FF91F808192
:104140009181688579856817790710F49987888740
:104150002F5FCBCF0111C4CFDF91CF911F910F9172
:104160000895AF92BF92CF92DF92EF92FF920F939A
:104170001F93CF93DF93FC01DB01BA01A901E80192
:1041800087019601750180E06115710501F5809147
:10419000B10086958170880F880F9091B10090FDD5
:1041A00082609091B1009091B1009B7F9093B1009B
:1041B0009091B1009D7F9093B1009091B1009E7F4E
:1041C0009093B10090916400906490936400109774
:1041D00051F490917A009F7790937A0090916400C7
:1041E0009160909364004115510529F49091640009
:1041F000986090936400209729F4909164009062F5
:10420000909364000115110529F490916400946065
:10421000909364002115310529F490916400926017
:1042200090936400E114F10429F490916400906883
:1042300090936400EA30F10599F098E0E3FD98E28C
:10424000E770E92B98E10FB6F894A8959093600079
:104250000FBEE093600090916000906490936000C6
:1042600093B7917F93BFF89493B7916093BF78947D
:10427000889593B79E7F93BF7894AB2B51F4909120
:1042800064009E7F9093640090917A009068909370
:104290007A00672B61F481FF05C08091B1008460D2
:1042A0008093B100809164008F7B80936400452BE4
:1042B00029F480916400877F80936400CD2B29F4DA
:1042C000809164008F7D80936400012B29F480919C
:1042D00064008B7F80936400232B29F48091640019
:1042E0008D7F80936400EF2829F4809164008F779C
:1042F00080936400DF91CF911F910F91FF90EF9019
:10430000DF90CF90BF90AF900895FC01DB01BA0120
:10431000A90180E0232BD9F48091B10086958170AA
:10432000880F880F9091B10090FD82609091B1004C
:104330009091B1009B7F9093B1009091B1009D7FCF
:104340009093B1009091B1009E7F9093B10010972F
:1043500029F490917A009F7790937A00EA30F105E2
:1043600099F098E0E3FD98E2E770E92B98E10FB649
:10437000F894A895909360000FBEE0936000909130
:10438000600090649093600093B7917F966093BFB4
:10439000672B01F5F89493B7916093BF95B790663A
:1043A00095BF9F7D95BF7894889593B79E7F93BF67
:1043B0007894AB2B29F490917A00906890937A00CE
:1043C000452B39F481FF05C08091B1008460809352
:1043D000B1000895F89493B7916093BFE4CF0F9222
:1043E0000FB60F921F9211248F930FB6F894A895D1
:1043F00080916000886180936000109260000FBE21
:104400008F911F900F900FBE0F901895AF92BF9293
:10441000CF92DF92EF92FF920F931F93CF93DF9390
:104420009C01DC01A95FBD4F8C91681730F41C9290
:10443000F901E85FFD4F11821082E901C85FDD4F8D
:1044400089010E5F1D4F7C2FDD2E7901FEEFFF1AD3
:104450003CC08F5F8C93472F5D2D88819981F80137
:10446000A080B1808A159B0568F4F701A080B18017
:10447000F501E80FF91FF170E20FF31FC080FDE0B6
:10448000CF1217C02B5F3D4F81E090E0F90191837F
:1044900080831C92FA011182108280E0DF91CF911B
:1044A0001F910F91FF90EF90DF90CF90BF90AF9052
:1044B0000895019699838883F801A080B1808A15B8
:1044C0009B0500F7FCE2CF12C8CF8C91861708F24B
:1044D00081E0E4CF0F931F93CF93DF939C01FB0107
:1044E00060817181EC01CE5FDD4F8C011E5F8081A8
:1044F0009181488159818417950760F06817790781
:10450000E4F501979183808381E0DF91CF911F9142
:104510000F910895D8014D915C91DA01A80FB91F50
:10452000B170A20FB31F4C9150ED540F5A3038F1B7
:104530004D3291F064F44A3221F04C3211F04D309A
:1045400041F48617970779F484E090E007C04E3273
:10455000C1F382E090E002C083E090E0D901AB5F5C
:10456000BD4F8D939C9380819181285F3D4FD901F0
:104570002D913C918217930721F680E0C6CF0196DA
:1045800091838083B4CF2F923F924F925F926F922C
:104590007F928F929F92AF92BF92CF92DF92EF92D3
:1045A000FF920F931F93CF93DF93CDB7DEB72D9775
:1045B0000FB6F894DEBF0FBECDBF7C016B018A0140
:1045C000F901309711F4FE013196812C912C5401A0
:1045D00083941D821E821F82188617018EEF381A5F
:1045E0000C151D052CF480829182A282B3823BC0FF
:1045F000D1018D919C91DC01A00FB11FB170AE0D66
:10460000BF1D8C9180538987A82F880FBB0BA501F4
:1046100094010E94AA336A877B878C879D872B0130
:104620003C018D819E81AF81B885480E591E6A1E5E
:104630007B1E81149AEC99069AE9A9069BE3B906B8
:10464000D9F5C016D10664F580829182A282B38228
:10465000F701EB5FFD4F85E090E0918380831D8241
:104660001E821F8218866D817E818F8198852D968E
:104670000FB6F894DEBF0FBECDBFDF91CF911F9173
:104680000F91FF90EF90DF90CF90BF90AF909F90F1
:104690008F907F906F905F904F903F902F900895F4
:1046A000A985A5308CF68D819E81AF81B88548168D
:1046B00059066A067B0640F201501109AAE0B0E0F3
:1046C000A50194010E949F334B015C014D825E82E3
:1046D0006F82788685CF9C01FC01FE5F118210827B
:1046E0003296118210823296108231961182108297
:1046F00032961082285F3D4FF90111821082089591
:10470000CF93DF939C01DC01AE5FBD4F8D919C91F7
:1047100011978115924098F5ED91FC911197E9015F
:10472000DE5F88819981E80FF91FF170E20FF31FB6
:1047300060836A30C9F48D919C9111970297A0F023
:10474000ED91FC91119788819981E80FF91F3197BC
:10475000F170E20FF31F80818D3031F4F901EC5FCD
:10476000FD4F80818F5F80838D919C911197019681
:1047700011969C938E9381E0DF91CF91089580E014
:10478000FBCF0F931F93CF93DF939C018B01EC0121
:10479000CE5FDD4F88819981079740F42B5F3D4FB5
:1047A00089E090E0D9018D939C9356C0F901FE5F9A
:1047B000A081B181B170A20FB31F8C91843249F4F2
:1047C000A081B1811196B170A20FB31F8C91873473
:1047D00041F02B5F3D4F88E090E0F90191838083A9
:1047E0003BC0A081B1818081918102969170820F3E
:1047F000931F1196B170AD01420F531FDC018C91D4
:10480000DA019C91892793E0492F50E068817981F2
:104810004617570770F00990D881C02D2297492F6D
:1048200050E04C175D0718F12B5F3D4F87E090E09B
:10483000B9CFA081B181A40FB51FB170A20FB31F72
:104840006C91400F511FDA0113974C916A3211F0AD
:104850006C3241F44423F9F280E0DF91CF911F9153
:104860000F91089586274613F7CF9F5FCDCFA08184
:10487000B181A40FB51FB170A20FB31F6C916D3041
:1048800099F26A3089F26A3259F560817181DA01F0
:104890001196A60FB71FB170A20FB31F6C91982F7E
:1048A00092959F70803AC0F4905D691310C060814A
:1048B0007181FA013296E60FF71FF170E20FF31FD4
:1048C00090818F708A3050F4805D981761F02B5F73
:1048D0003D4F86E090E081CF995CE7CF895CF5CFD2
:1048E00086279F5F9CCF81E0B8CFCF93DF939C0159
:1048F000EC01CC5FDD4F8881882309F1D901BE5FCF
:10490000ED91FC911197F170E20FF31F6081A90105
:104910004E5F5D4FFA0180819181892B11F06A30E1
:1049200089F4F8948881815088837894F901E95F4B
:10493000FD4F1082285F3D4FF90111821082DF91F7
:10494000CF910895F894ED91FC911197F170E20FD9
:10495000F31F6081FA0180819181019791838083A7
:104960008D919C9111970196917011969C938E93C5
:104970007894D0CFEF92FF920F931F93CF93DF9352
:1049800000D0CDB7DEB78C010E9406228823F9F053
:10499000F801E85FFD4FE080F180FA82E982BE0114
:1049A0006F5F7F4FC8010E946A22882381F049818E
:1049B0005A8130E020E0B701C8010F900F90DF91DD
:1049C000CF911F910F91FF90EF900C94C32260E064
:1049D00070E0CB010F900F90DF91CF911F910F915D
:1049E000FF90EF9008958F929F92BF92CF92DF92A7
:1049F000EF92FF920F931F93CF93DF93CDB7DEB764
:104A00002C970FB6F894DEBF0FBECDBF8C010E946D
:104A10000622882309F4FAC0F801E85FFD4F80817F
:104A2000918198878F8341E050E060E070E0498396
:104A30005A836B837C83480122E0820E921EF4012C
:104A4000208131818217930708F097C03297019037
:104A5000F081E02DE80FF91FF170E00FF11F2081C8
:104A60002D3209F08AC0019698878F83BB24B394B6
:104A7000EF80F884F40180819181E816F90608F04E
:104A80007EC0F801FE5F0190F081E02DEE0DFF1D6C
:104A9000F170E00FF11F80818E3209F470C0BE0109
:104AA000695F7F4FC8010E946A22882309F49AC077
:104AB0004F81588530E020E0B701C8010E94C32231
:104AC0006B017C016F817885F401808191819B016C
:104AD0002F5F3F4F01972817390708F45AC0812CE0
:104AE000912C00E010E0B601C7010E94A1356B01D6
:104AF0007C01B401C8010E94A1354B018C01698180
:104B00007A818B819C810E94A1359B01AC018986B1
:104B10009A860B871C8769857A858B859C850E9480
:104B2000F934A7019601BB2009F465C050582987C4
:104B30003A874B875C879B01AC0169857A858B85B9
:104B40009C850E948C3469877A878B879C876985CE
:104B50007A858B859C852C960FB6F894DEBF0FBEA8
:104B6000CDBFDF91CF911F910F91FF90EF90DF901C
:104B7000CF90BF909F908F900895B12C79CFF1E0A6
:104B8000EF1AF108F886EF82C12CD12CE12CF12C20
:104B900099CFF801FE5F0190F081E02DE20FF31F45
:104BA000F170E00FF11F80818E3209F098CF4B0138
:104BB000F2E08F0E911C9E828D82BE016B5F7F4F53
:104BC000C8010E946A22882309F489CF4D815E8141
:104BD0009E012F5F3F4FB401C8010E94C3224B01C9
:104BE0008C0181CF812C912C00E010E0C12CD12CC4
:104BF000E12CF12C78CF69877A878B879C87698530
:104C00007A858B859C850E948D349DCF60E070E015
:104C100080E090E098CFCF93DF93EC010E940622D2
:104C2000882331F1FE01FE5F0190F081E02DDE016D
:104C3000A85FBD4F8D919C91E80FF91FF170EC0FAB
:104C4000FD1F80819FEB980F9A3198F0CB5FDD4F6D
:104C50008A3251F03CF48A3039F08D3029F08BE003
:104C600090E004C08C32D9F784E090E09983888387
:104C700080E0DF91CF9108955F926F927F928F9243
:104C80009F92AF92BF92CF92DF92EF92FF920F93DB
:104C90001F93CF93DF9300D000D000D0CDB7DEB705
:104CA00089839A83762E5A01690148018701898197
:104CB0009A810E94F324562E672E7C0161E0670DD5
:104CC00089819A810E940B26D8018C93E981FA810F
:104CD000EB5FFD4F80819181892B09F081C020E03D
:104CE00030E048EC52E459826A82EB82FC826981AE
:104CF0007A818B819C810E94F9348B018E839D8304
:104D000069831A838B839C8369817A818B819C81DF
:104D10000E947235D5016C93862F90E0B0E0A0E040
:104D200089839A83AB83BC83BC01CD010E94A135EA
:104D30009B01AC0109831A839E819B83AD81AC8367
:104D400069817A818B819C810E948C3420E030E0E3
:104D500048EC52E469837A838B839C8369817A81EE
:104D60008B819C810E942F368B018E839D8369836A
:104D70001A838B839C8369817A818B819C810E94B9
:104D80007235F6016083862F90E0B0E0A0E0898361
:104D90009A83AB83BC83BC01CD010E94A1359B01EA
:104DA000AC0109831A839E819B83AD81AC836981A9
:104DB0007A818B819C810E948C3420E030E040E736
:104DC00052E469837A838B839C8369817A818B81A6
:104DD0009C810E942F36F4016083718382839383C8
:104DE00026960FB6F894DEBF0FBECDBFDF91CF91F0
:104DF0001F910F91FF90EF90DF90CF90BF90AF90F9
:104E00009F908F907F906F905F9008958F929F9268
:104E1000AF92BF92EF92FF920F931F93CF93DF93C6
:104E200000D000D000D0CDB7DEB76D837E838A017D
:104E3000790161E00E94BA2424E6822E912CA12CF3
:104E4000B12CA50194010E944833F7016083CA0187
:104E5000B901A50194010E944833F8016083ED81F6
:104E6000FE81208326960FB6F894DEBF0FBECDBF1D
:104E7000DF91CF911F910F91FF90EF90BF90AF9076
:104E80009F908F900895EF92FF920F931F93780158
:104E900089019A01AB0163E00E943C261F910F91AA
:104EA000FF90EF9008950F931F930E9443271F9147
:104EB0000F910895EF92FF920F931F93780189014C
:104EC0009A01AB0165E00E943C261F910F91FF9073
:104ED000EF9008958F929F92AF92BF92EF92FF92C0
:104EE0000F931F93CF93DF9300D000D000D0CDB7A6
:104EF000DEB76D837E838A01790169E00E94BA245E
:104F000024E6822E912CA12CB12CA50194010E94A3
:104F10004833F7016083CA01B901A50194010E94D9
:104F20004833F8016083ED81FE81208326960FB619
:104F3000F894DEBF0FBECDBFDF91CF911F910F91CF
:104F4000FF90EF90BF90AF909F908F9008950F9338
:104F50001F93FC01718360832283548343831682F1
:104F6000158210861782128701871F910F9108956D
:104F70003F924F925F926F927F928F929F92AF92E9
:104F8000BF92CF92DF92EF92FF920F931F93CF9336
:104F9000DF93EC015A80CB80DC80752C770C770C8A
:104FA000770C7A940FEF040F050D9B012150310906
:104FB0002C0D3D1D888199810E947E2A88819981CE
:104FC0000E94182B612CF12CE12C852D8150990B1E
:104FD0005C01E514A8F088819981DF91CF911F9140
:104FE0000F91FF90EF90DF90CF90BF90AF909F9088
:104FF0008F907F906F905F904F903F900C94E22B3A
:105000008D809E80E985FA85E80DF91D8081172D38
:10501000181B781608F410E0412C87E0382E360C67
:105020004C141D0430F08FEFE81AF80A98E0690E6E
:10503000D0CFE985FA85E80DF91D8081072D081B81
:10504000781608F400E0EF81F8853097E1F0AE14AF
:10505000BF04C9F4C401099590E060E098130FC043
:105060009FEF910F011790F0101778F41F5F902FAA
:105070009615B8F03116A8F0862D21E010C066957F
:1050800060689F5FEBCF60E0EBCF902F102FF0CFE9
:10509000811718F0981728F0622B8F5F220F3816AF
:1050A000B8F7888199810E942A2B9FEF891A990A63
:1050B000C814D90411F4912C812C4394102FB0CF33
:1050C000282F26952575880F8A7A282B822F86957A
:1050D0008695837394E0299F900111242C7C822B68
:1050E00082950895299A2A9808951F93CF93DF9364
:1050F000D82FC92F162F0E94DB2B6D2F7C2F82E219
:105100000E94DE2B0E94722887EC11118FE06D2F18
:105110007C2F0E94DE2B8D2F9C2F0E94E22B8D2F47
:105120009C2F0E94DB2B6D2F7C2F80E20E94DE2BB8
:105130008D2F9C2FDF91CF911F910C94E22BFC01BE
:1051400090E080E04F9B0BC0AFECB7E01197F1F718
:1051500000C000000196803ABFE09B0799F7AFE3DB
:10516000BFE11197F1F700C00000803A9F4011F4B1
:1051700081E080830895EF92FF920F931F93CF9366
:10518000DF93D82FC92F7B010E94DB2B6D2F7C2F43
:1051900082E30E94DE2B0E94722810E000E0F701FB
:1051A000E00FF11F84916D2F7C2F0E94DE2B0F5F8B
:1051B0001F4F0939110599F78D2F9C2F0E94E22B63
:1051C0008D2F9C2FDF91CF911F910F91FF90EF902A
:1051D0000C949F28FC018CE0DF011D928A95E9F771
:1051E00028E231E03283218380E183833583248385
:1051F0008683089528988FE99FE00197F1F700C012
:105200000000289A8FE99FE00197F1F700C00000A5
:105210000895CF93DF93D82FC92F6CE073E10E94DC
:10522000BB288D2F9C2F0E94DB2B6D2F7C2F8FE3B3
:105230000E94DE2B0E947228E5EAF3E184916D2F33
:105240007C2F0E94DE2B8D2F9C2F0E94E22B8D2F16
:105250009C2F0E94DB2B6D2F7C2F83E00E94DE2B86
:105260000E947228E6EAF3E184916D2F7C2F0E9460
:10527000DE2B8D2F9C2F0E94E22B8D2F9C2F0E94C6
:10528000DB2B6D2F7C2F84E00E94DE2B0E94722886
:10529000E7EAF3E184916D2F7C2F0E94DE2BE8EA90
:1052A000F3E184916D2F7C2F0E94DE2BE9EAF3E17C
:1052B00084916D2F7C2F0E94DE2B8D2F9C2F0E94BE
:1052C000E22B8D2F9C2F0E94DB2B6D2F7C2F8CE2ED
:1052D0000E94DE2B0E947228EAEAF3E184916D2F8E
:1052E0007C2F0E94DE2B8D2F9C2FDF91CF910C9471
:1052F000E22B0F931F93CF93DF93D82FC92F0E94D8
:10530000FA286BEA73E18D2F9C2F0E94BB288D2F0A
:105310009C2F0E94DB2B6D2F7C2F87E30E94DE2BBE
:105320000E94722802E013E1F80184916D2F7C2F16
:105330000E94DE2B0F5F1F4FF3E10C301F07A1F718
:105340008D2F9C2F0E94E22B8D2F9C2F0E94DB2BF8
:105350006D2F7C2F8CE30E94DE2B0E9472286D2F14
:105360007C2F80E80E94DE2B8D2F9C2F0E94E22B49
:105370008D2F9C2F0E94DB2B6D2F7C2F82E20E94B1
:10538000DE2B0E9472286D2F7C2F80EC0E94DE2B7A
:105390008D2F9C2F0E94E22B8D2F9C2F0E94DB2BA8
:1053A0006D2F7C2F80E20E94DE2B8D2F9C2F0E9480
:1053B000E22B8D2F9C2FDF91CF911F910F910C9499
:1053C0009F28AF92BF92CF92DF92EF92FF920F93FE
:1053D0001F93CF93DF93EC017B01142F69010E948F
:1053E000DB2BBE0184E40E94DE2B0E9472288B8599
:1053F00083FF79C0BE01812F0E94DE2BBE01802F6A
:105400000E94DE2BCE010E94E22BCE010E94DB2BFC
:10541000BE0185E40E94DE2B0E9472288B85570115
:1054200083FF05C087E291E05C01AE18BF08BE01B2
:105430008A2D0E94DE2BBE018B2D0E94DE2B8B85D8
:1054400083FF06C087E291E09C012C193D096901A8
:10545000BE018C2D0E94DE2BBE018D2D0E94DE2B05
:10546000CE010E94E22BCE010E94DB2BBE018EE416
:105470000E94DE2B0E9472288B8583FD03C08FE083
:10548000811B182FBE01812F0E94DE2BCE010E94AE
:10549000E22BCE010E94DB2BBE018FE40E94DE2BAB
:1054A0000E9472288B8583FF06C087E291E09C01F1
:1054B0002E193F097901BE018E2D0E94DE2BBE01FF
:1054C0008F2D0E94DE2BCE010E94E22BCE01DF91B8
:1054D000CF911F910F91FF90EF90DF90CF90BF90F1
:1054E000AF900C949F288FE0B82EBE018B2D811BAE
:1054F0000E94DE2BBE018B2D801B82CF0F93FC01FF
:1055000082859185890FA781B085080F2A0F3B1FDF
:10551000480F6A0F7B1FCF010E94E1290F91089568
:10552000EF92FF920F931F93CF93DF93EC010E94B2
:10553000C72B57985F9883E0E82EF12CCE010E948C
:105540009F281881113041F481E0E81AF10809F42C
:1055500068C00E94FA28F2CF111163C0CE010E94E8
:10556000DB2BBE0182E10E94DE2BCE010E94E22BEA
:10557000CE010E949F28CE010E94DB2BBE0181E05C
:105580000E94DE2B0E947228BE0187E20E94DE2B61
:10559000BE0181E00E94DE2BBE0180E00E94DE2B76
:1055A000CE010E94E22BCE010E94DB2BBE0181E1E5
:1055B0000E94DE2B0E9472288B8583FD30C086E01E
:1055C000BE010E94DE2BCE010E94E22BCE010E9482
:1055D000DB2BBE0181E20E94DE2B0E9472288B85AC
:1055E00082FF18E8BE01812F0E94DE2BBE0180E8F9
:1055F0000E94DE2BCE010E94E22B0FE027E231E079
:1056000040E070E060E0CE010E94E129CE01DF9130
:10561000CF911F910F91FF90EF900C94092985E095
:10562000CFCFDF91CF911F910F91FF90EF90089511
:10563000CF93DF93EC010E94DB2B8B8584FD08C0A8
:1056400084E2BE010E94DE2BDF91CF910C94722880
:1056500086E2F7CFCF93DF93D82FC92F862F0E94F2
:1056600060286D2F7C2FDF91CF910C94E02BCF928F
:10567000DF92FF920F931F93CF93DF93EC01862F5E
:105680000E946028F82E0E8101502C813D8121500E
:10569000310940E070E060E0CE010E94E129CE01D6
:1056A0000E94182B2E818C819D81289F6001299F4B
:1056B000D00C112410E000E00C151D0551F4CE01B2
:1056C000DF91CF911F910F91FF90DF90CF900C94BD
:1056D000E22BBE018F2D0E94E02B0F5F1F4FECCFFE
:1056E00060E00C9475280F931F93CF93DF93D82F0E
:1056F000C92F8B0164307105B9F00E94DB2B6D2F2F
:105700007C2F80E10E94DE2B0E9472286D2F7C2F5F
:10571000802F83700E94DE2B8D2F9C2FDF91CF91E5
:105720001F910F910C94E22BDF91CF911F910F915C
:1057300008950F931F93CF93DF93D82FC92F8B0119
:1057400060E00E9475288D2F9C2F0E949F28B80131
:105750008D2F9C2FDF91CF911F910F910C94732B64
:105760000F931F93CF93DF93D82FC92F8B0161E045
:105770000E9475288D2F9C2F0E949F28B8018D2F85
:105780009C2FDF91CF911F910F910C94732B229A34
:105790002A9A219A299A209A28988FE99FE00197BE
:1057A000F1F700C00000289A40E856E968E970E087
:1057B00081E00C94E52D29982A9808950C94282EC0
:1057C0000C94282E2A9A299A0895FC0171836083EB
:1057D0005383428316821582148217820895FC0136
:1057E000A281B3818C91811116C080819181FC01CD
:1057F0002491263571F43196E491E13451F4FC01A1
:105800003296E491E23529F4FC013396E491E133D8
:1058100011F080E28C9308952F923F924F925F9205
:105820006F927F928F929F92AF92BF92CF92DF92B0
:10583000EF92FF920F931F93CF93DF9300D00F92BD
:10584000CDB7DEB77C016B837983442E0E94EF2BAA
:10585000442009F484C0D7011296ED91FC9113976E
:10586000808181117CC016969C911697868198172D
:1058700008F075C0ED91FC9135962490AB80B9800D
:10588000F7016481758182819381DC0114964D91C9
:105890005C916417750708F059C0C080D180F6018B
:1058A00034963491B0E8BA83FA813F1708F46DC09A
:1058B000F501A08120E0F6E0CF0ED11CFA81F111B4
:1058C00068C0B4E02B9F900111242C0D3D1DF901FF
:1058D000B491AB133BC0319664903196A49131964C
:1058E000E491FA2FCE0EDF1EC114D10479F14B01E1
:1058F000860C911C4815590508F44A01D7011696E3
:105900004C91FC012681722C740E271508F4722E1E
:105910000FEF070D9401215031090E947E2AD70113
:1059200012968D919C910E94182BF70187818170AE
:1059300089833680371408F483C0D70112968D917D
:105940009C910E94E22BF70195828482FFEFAF1AAF
:10595000BF0A8A2D2B81821B841508F491CF0F90EA
:105960000F900F90DF91CF911F910F91FF90EF90CB
:10597000DF90CF90BF90AF909F908F907F906F906F
:105980005F904F903F902F900895EA81E695EA83CB
:105990008BCFBA812B2BEB2F231750F4B4E02B9F26
:1059A000F0011124EC0DFD1DE491AE171CF4EA8109
:1059B000E0952E23EA81E695EA8380CF8C918111D0
:1059C00016C0FA81F11115C0F601F491FA832FEF98
:1059D000C21AD20A55245394F7FF03C0FF77FA8303
:1059E000512C8A81811105C091E29C931A826FEF3C
:1059F0000CC0F6016491FA81F150FA83552011F040
:105A0000F11103C02FEFC21AD20AD70114968D915B
:105A10009C91800F911F8815990540F4B981B111AF
:105A20006095F701828193810E942A2B0F5F1F4F9F
:105A3000F701A281B381061508F4C0CF33947ACF61
:105A400010E000E0F5CFDB010D900020E9F71197A1
:105A5000AD01461B570B0C940C2C282FDB01AB011E
:105A60004D5F5F4F81110AC0FB01329680E31396B0
:105A70008C934E1B5F0B4083CF010895FA013AE0EF
:105A80003197822F632F0E940633905D9183922F6E
:105A9000282F9A30A8F7EDCF0F931F93CF93DF9362
:105AA0009C01DB01EB012596892B71F4FB013496F7
:105AB00080E315968C93CE1BDF0BC083CF01DF9163
:105AC000CF911F910F910895FE010AE010E0C901E6
:105AD000B8010E9420333197805D8183C9019B0109
